{
  "contractName": "game",
  "abi": [
    {
      "constant": true,
      "inputs": [
        {
          "name": "",
          "type": "address"
        }
      ],
      "name": "playerInfo",
      "outputs": [
        {
          "name": "amountBet",
          "type": "string"
        }
      ],
      "payable": false,
      "stateMutability": "view",
      "type": "function",
      "signature": "0x4b114691"
    },
    {
      "constant": true,
      "inputs": [
        {
          "name": "",
          "type": "uint256"
        }
      ],
      "name": "watchers",
      "outputs": [
        {
          "name": "",
          "type": "address"
        }
      ],
      "payable": false,
      "stateMutability": "view",
      "type": "function",
      "signature": "0xcabe05f2"
    },
    {
      "inputs": [],
      "payable": false,
      "stateMutability": "nonpayable",
      "type": "constructor",
      "signature": "constructor"
    },
    {
      "payable": true,
      "stateMutability": "payable",
      "type": "fallback"
    },
    {
      "anonymous": false,
      "inputs": [
        {
          "indexed": false,
          "name": "_sender",
          "type": "address"
        },
        {
          "indexed": false,
          "name": "_reciever",
          "type": "address"
        },
        {
          "indexed": false,
          "name": "_amount",
          "type": "uint256"
        }
      ],
      "name": "transferFund",
      "type": "event",
      "signature": "0x62d5969633e8a33eb6c8ce39af086f3abf04daa520b3858a6f1acbc0073e9ef9"
    },
    {
      "constant": true,
      "inputs": [],
      "name": "getDares",
      "outputs": [
        {
          "name": "",
          "type": "string[]"
        }
      ],
      "payable": false,
      "stateMutability": "view",
      "type": "function",
      "signature": "0x25a21701"
    },
    {
      "constant": true,
      "inputs": [],
      "name": "getBalance",
      "outputs": [
        {
          "name": "",
          "type": "uint256"
        }
      ],
      "payable": false,
      "stateMutability": "view",
      "type": "function",
      "signature": "0x12065fe0"
    },
    {
      "constant": false,
      "inputs": [
        {
          "name": "_reciever",
          "type": "address"
        }
      ],
      "name": "send",
      "outputs": [
        {
          "name": "",
          "type": "bool"
        }
      ],
      "payable": true,
      "stateMutability": "payable",
      "type": "function",
      "signature": "0x3e58c58c"
    }
  ],
  "bytecode": "0x608060405234801561001057600080fd5b506002806001815401808255809150509060018203906000526020600020016000606060405190810160405280603081526020017f45617420736f6d657468696e6720616e64207468656e2074616c6b207769746881526020017f20796f7572206d6f7574682066756c6c00000000000000000000000000000000815250909190915090805190602001906100a6929190610272565b50506002806001815401808255809150509060018203906000526020600020016000606060405190810160405280603181526020017f46696c6c20796f7572206d6f757468207769746820776174657220616e64207481526020017f72792073696e67696e67206120736f6e670000000000000000000000000000008152509091909150908051906020019061013d929190610272565b50506002806001815401808255809150509060018203906000526020600020016000606060405190810160405280603081526020017f43616c6c20757020796f757220637275736820616e64206465636c617265207981526020017f6f7572206c6f766520666f722068696d00000000000000000000000000000000815250909190915090805190602001906101d4929190610272565b50506002806001815401808255809150509060018203906000526020600020016000606060405190810160405280602d81526020017f4d616b6520616e206f627363656e652070686f6e652063616c6c20746f20612081526020017f72616e646f6d206e756d626572000000000000000000000000000000000000008152509091909150908051906020019061026b929190610272565b5050610317565b828054600181600116156101000203166002900490600052602060002090601f016020900481019282601f106102b357805160ff19168380011785556102e1565b828001600101855582156102e1579182015b828111156102e05782518255916020019190600101906102c5565b5b5090506102ee91906102f2565b5090565b61031491905b808211156103105760008160009055506001016102f8565b5090565b90565b610800806103266000396000f3fe60806040526004361061006d576000357c0100000000000000000000000000000000000000000000000000000000900463ffffffff16806312065fe01461006f57806325a217011461009a5780633e58c58c146100c55780634b114691146100f5578063cabe05f214610132575b005b34801561007b57600080fd5b5061008461016f565b604051610091919061068b565b60405180910390f35b3480156100a657600080fd5b506100af61018e565b6040516100bc919061062c565b60405180910390f35b6100df60048036036100da91908101906104a8565b6102c2565b6040516100ec919061064e565b60405180910390f35b34801561010157600080fd5b5061011c6004803603610117919081019061047f565b61034f565b6040516101299190610669565b60405180910390f35b34801561013e57600080fd5b50610159600480360361015491908101906104d1565b610405565b60405161016691906105da565b60405180910390f35b60003373ffffffffffffffffffffffffffffffffffffffff1631905090565b6060806002805490506040519080825280602002602001820160405280156101ca57816020015b60608152602001906001900390816101b55790505b50905060008090505b6002805490508110156102ba576002818154811015156101ef57fe5b906000526020600020018054600181600116156101000203166002900480601f01602080910402602001604051908101604052809291908181526020018280546001816001161561010002031660029004801561028d5780601f106102625761010080835404028352916020019161028d565b820191906000526020600020905b81548152906001019060200180831161027057829003601f168201915b505050505082828151811015156102a057fe5b9060200190602002018190525080806001019150506101d3565b508091505090565b60008173ffffffffffffffffffffffffffffffffffffffff166108fc349081150290604051600060405180830381858888f1935050505015801561030a573d6000803e3d6000fd5b507f62d5969633e8a33eb6c8ce39af086f3abf04daa520b3858a6f1acbc0073e9ef933833460405161033e939291906105f5565b60405180910390a160019050919050565b6000602052806000526040600020600091509050806000018054600181600116156101000203166002900480601f0160208091040260200160405190810160405280929190818152602001828054600181600116156101000203166002900480156103fb5780601f106103d0576101008083540402835291602001916103fb565b820191906000526020600020905b8154815290600101906020018083116103de57829003601f168201915b5050505050905081565b60018181548110151561041457fe5b906000526020600020016000915054906101000a900473ffffffffffffffffffffffffffffffffffffffff1681565b600061044f823561071e565b905092915050565b60006104638235610730565b905092915050565b60006104778235610742565b905092915050565b60006020828403121561049157600080fd5b600061049f84828501610443565b91505092915050565b6000602082840312156104ba57600080fd5b60006104c884828501610457565b91505092915050565b6000602082840312156104e357600080fd5b60006104f18482850161046b565b91505092915050565b6105038161074c565b82525050565b610512816106d6565b82525050565b6000610523826106b3565b8084526020840193508360208202850161053c856106a6565b60005b84811015610575578383038852610557838351610595565b9250610562826106c9565b915060208801975060018101905061053f565b508196508694505050505092915050565b61058f816106e8565b82525050565b60006105a0826106be565b8084526105b4816020860160208601610782565b6105bd816107b5565b602085010191505092915050565b6105d481610714565b82525050565b60006020820190506105ef6000830184610509565b92915050565b600060608201905061060a60008301866104fa565b61061760208301856104fa565b61062460408301846105cb565b949350505050565b600060208201905081810360008301526106468184610518565b905092915050565b60006020820190506106636000830184610586565b92915050565b600060208201905081810360008301526106838184610595565b905092915050565b60006020820190506106a060008301846105cb565b92915050565b6000602082019050919050565b600081519050919050565b600081519050919050565b6000602082019050919050565b60006106e1826106f4565b9050919050565b60008115159050919050565b600073ffffffffffffffffffffffffffffffffffffffff82169050919050565b6000819050919050565b6000610729826106f4565b9050919050565b600061073b826106f4565b9050919050565b6000819050919050565b60006107578261075e565b9050919050565b600061076982610770565b9050919050565b600061077b826106f4565b9050919050565b60005b838110156107a0578082015181840152602081019050610785565b838111156107af576000848401525b50505050565b6000601f19601f830116905091905056fea265627a7a7230582059148f836b4f43a2fcf4032e54ff286a203f53dcad809bbb07806e40d56b5eac6c6578706572696d656e74616cf50037",
  "source": "pragma solidity ^0.5.0;\npragma experimental ABIEncoderV2;\n\ncontract game{\n    struct Player {\n        string amountBet;\n    }  \n    mapping(address => Player) public playerInfo;\n    \n    address payable[] public watchers;\n    //mapping (uint => string) Dares;\n    string[] Dares;\n    event transferFund(address _sender,address _reciever,uint _amount);\n\n    constructor()public {\n        Dares.push(\"Eat something and then talk with your mouth full\");\n        Dares.push(\"Fill your mouth with water and try singing a song\");\n        Dares.push(\"Call up your crush and declare your love for him\");\n        Dares.push(\"Make an obscene phone call to a random number\");\n    }\n  \n    function getDares()public view returns(string[] memory){\n      string[] memory _Dares = new string[](Dares.length);\n       for(uint i = 0; i < Dares.length; i++){\n          _Dares[i] = Dares[i];\n       }\n       return _Dares;\n    }\n    function getBalance() public view returns(uint){\n         return (msg.sender.balance);\n    }\n      \n\n    function send(address payable _reciever) public payable returns(bool){\n        _reciever.transfer(msg.value);\n        emit transferFund(msg.sender,_reciever,msg.value);\n        return true;\n    }\n    function() external payable {}\n}",
  "sourcePath": "/home/abir/Nerve-Project/contracts/game.sol",
  "compiler": {
    "name": "solc",
    "version": "0.5.0+commit.1d4f565a.Emscripten.clang"
  },
  "schemaVersion": "3.0.2",
  "updatedAt": "2019-06-09T08:30:12.226Z",
  "devdoc": {
    "methods": {}
  },
  "userdoc": {
    "methods": {}
  }
}