{
  "contractName": "game",
  "abi": [
    {
      "constant": true,
      "inputs": [
        {
          "name": "",
          "type": "address"
        }
      ],
      "name": "watcherInfo",
      "outputs": [
        {
          "name": "BetAmount",
          "type": "uint256"
        },
        {
          "name": "Poolkey",
          "type": "uint256"
        },
        {
          "name": "vote",
          "type": "bool"
        }
      ],
      "payable": false,
      "stateMutability": "view",
      "type": "function",
      "signature": "0x0d67269d"
    },
    {
      "constant": true,
      "inputs": [
        {
          "name": "",
          "type": "uint256"
        }
      ],
      "name": "Users",
      "outputs": [
        {
          "name": "nickName",
          "type": "string"
        },
        {
          "name": "Uaddress",
          "type": "address"
        }
      ],
      "payable": false,
      "stateMutability": "view",
      "type": "function",
      "signature": "0x1e98fd1c"
    },
    {
      "constant": true,
      "inputs": [],
      "name": "player",
      "outputs": [
        {
          "name": "",
          "type": "address"
        }
      ],
      "payable": false,
      "stateMutability": "view",
      "type": "function",
      "signature": "0x48db5f89"
    },
    {
      "constant": true,
      "inputs": [],
      "name": "requiredWatcherNumber",
      "outputs": [
        {
          "name": "",
          "type": "uint256"
        }
      ],
      "payable": false,
      "stateMutability": "view",
      "type": "function",
      "signature": "0xa12258ce"
    },
    {
      "constant": true,
      "inputs": [],
      "name": "minimumBet",
      "outputs": [
        {
          "name": "",
          "type": "uint256"
        }
      ],
      "payable": false,
      "stateMutability": "view",
      "type": "function",
      "signature": "0xc38a8afd"
    },
    {
      "constant": true,
      "inputs": [
        {
          "name": "",
          "type": "uint256"
        }
      ],
      "name": "watchers",
      "outputs": [
        {
          "name": "",
          "type": "address"
        }
      ],
      "payable": false,
      "stateMutability": "view",
      "type": "function",
      "signature": "0xcabe05f2"
    },
    {
      "constant": true,
      "inputs": [
        {
          "name": "",
          "type": "address"
        }
      ],
      "name": "PLayedDare",
      "outputs": [
        {
          "name": "PoolID",
          "type": "uint256"
        },
        {
          "name": "TotalAmount",
          "type": "uint256"
        },
        {
          "name": "ProofID",
          "type": "string"
        },
        {
          "name": "DareKey",
          "type": "uint256"
        },
        {
          "name": "NbWatchers",
          "type": "uint256"
        }
      ],
      "payable": false,
      "stateMutability": "view",
      "type": "function",
      "signature": "0xfce56468"
    },
    {
      "inputs": [],
      "payable": false,
      "stateMutability": "nonpayable",
      "type": "constructor",
      "signature": "constructor"
    },
    {
      "payable": true,
      "stateMutability": "payable",
      "type": "fallback"
    },
    {
      "anonymous": false,
      "inputs": [
        {
          "indexed": false,
          "name": "_sender",
          "type": "address"
        },
        {
          "indexed": false,
          "name": "_reciever",
          "type": "address"
        },
        {
          "indexed": false,
          "name": "_amount",
          "type": "uint256"
        }
      ],
      "name": "transferFund",
      "type": "event",
      "signature": "0x62d5969633e8a33eb6c8ce39af086f3abf04daa520b3858a6f1acbc0073e9ef9"
    },
    {
      "anonymous": false,
      "inputs": [
        {
          "indexed": false,
          "name": "PoolID",
          "type": "uint256"
        },
        {
          "indexed": false,
          "name": "_player",
          "type": "address"
        }
      ],
      "name": "PoolCreated",
      "type": "event",
      "signature": "0x65fc0eb45954044fb55e1b01344d5d72fbfdf88e732d955f73bb7fb2bcc131e9"
    },
    {
      "constant": true,
      "inputs": [],
      "name": "getDares",
      "outputs": [
        {
          "name": "",
          "type": "string[]"
        }
      ],
      "payable": false,
      "stateMutability": "view",
      "type": "function",
      "signature": "0x25a21701"
    },
    {
      "constant": true,
      "inputs": [
        {
          "name": "_dare",
          "type": "string"
        }
      ],
      "name": "getDareKey",
      "outputs": [
        {
          "name": "",
          "type": "uint256"
        }
      ],
      "payable": false,
      "stateMutability": "view",
      "type": "function",
      "signature": "0x6fdbdbec"
    },
    {
      "constant": true,
      "inputs": [],
      "name": "getUsers",
      "outputs": [
        {
          "components": [
            {
              "name": "nickName",
              "type": "string"
            },
            {
              "name": "Uaddress",
              "type": "address"
            }
          ],
          "name": "",
          "type": "tuple[]"
        }
      ],
      "payable": false,
      "stateMutability": "view",
      "type": "function",
      "signature": "0x00ce8e3e"
    },
    {
      "constant": false,
      "inputs": [
        {
          "name": "_BetAmount",
          "type": "uint256"
        },
        {
          "name": "_DareKey",
          "type": "uint256"
        },
        {
          "name": "_player",
          "type": "address"
        }
      ],
      "name": "dareYou",
      "outputs": [
        {
          "name": "",
          "type": "bool"
        }
      ],
      "payable": true,
      "stateMutability": "payable",
      "type": "function",
      "signature": "0x52cf2cc4"
    },
    {
      "constant": false,
      "inputs": [
        {
          "name": "_poolID",
          "type": "uint256"
        },
        {
          "name": "_betAmount",
          "type": "uint256"
        }
      ],
      "name": "joinDare",
      "outputs": [
        {
          "name": "",
          "type": "bool"
        }
      ],
      "payable": true,
      "stateMutability": "payable",
      "type": "function",
      "signature": "0x86f69a3a"
    },
    {
      "constant": false,
      "inputs": [
        {
          "name": "_BetAmount",
          "type": "uint256"
        },
        {
          "name": "_DareKey",
          "type": "uint256"
        }
      ],
      "name": "dareMe",
      "outputs": [
        {
          "name": "",
          "type": "bool"
        }
      ],
      "payable": true,
      "stateMutability": "payable",
      "type": "function",
      "signature": "0x27b852ed"
    },
    {
      "constant": true,
      "inputs": [],
      "name": "getPools",
      "outputs": [
        {
          "components": [
            {
              "name": "PoolID",
              "type": "uint256"
            },
            {
              "name": "TotalAmount",
              "type": "uint256"
            },
            {
              "name": "ProofID",
              "type": "string"
            },
            {
              "name": "DareKey",
              "type": "uint256"
            },
            {
              "name": "NbWatchers",
              "type": "uint256"
            }
          ],
          "name": "",
          "type": "tuple[]"
        }
      ],
      "payable": false,
      "stateMutability": "view",
      "type": "function",
      "signature": "0x673a2a1f"
    },
    {
      "constant": true,
      "inputs": [],
      "name": "getMyDares",
      "outputs": [
        {
          "components": [
            {
              "name": "PoolID",
              "type": "uint256"
            },
            {
              "name": "TotalAmount",
              "type": "uint256"
            },
            {
              "name": "ProofID",
              "type": "string"
            },
            {
              "name": "DareKey",
              "type": "uint256"
            },
            {
              "name": "NbWatchers",
              "type": "uint256"
            }
          ],
          "name": "",
          "type": "tuple[]"
        }
      ],
      "payable": false,
      "stateMutability": "view",
      "type": "function",
      "signature": "0x0a53cf54"
    },
    {
      "constant": true,
      "inputs": [
        {
          "name": "_pool",
          "type": "uint256"
        }
      ],
      "name": "getActiveDareName",
      "outputs": [
        {
          "name": "",
          "type": "string"
        }
      ],
      "payable": false,
      "stateMutability": "view",
      "type": "function",
      "signature": "0xaaed1214"
    },
    {
      "constant": true,
      "inputs": [
        {
          "name": "_pool",
          "type": "uint256"
        }
      ],
      "name": "getActiveDarePlayer",
      "outputs": [
        {
          "name": "",
          "type": "string"
        }
      ],
      "payable": false,
      "stateMutability": "view",
      "type": "function",
      "signature": "0xacc1ec43"
    },
    {
      "constant": true,
      "inputs": [
        {
          "name": "_pool",
          "type": "uint256"
        }
      ],
      "name": "getActiveDareAmount",
      "outputs": [
        {
          "name": "",
          "type": "uint256"
        }
      ],
      "payable": false,
      "stateMutability": "view",
      "type": "function",
      "signature": "0xa8d24e78"
    },
    {
      "constant": true,
      "inputs": [
        {
          "name": "_pool",
          "type": "uint256"
        }
      ],
      "name": "getActiveDareNBwatchers",
      "outputs": [
        {
          "name": "",
          "type": "uint256"
        }
      ],
      "payable": false,
      "stateMutability": "view",
      "type": "function",
      "signature": "0xcc4be5f6"
    },
    {
      "constant": true,
      "inputs": [],
      "name": "getBalance",
      "outputs": [
        {
          "name": "",
          "type": "uint256"
        }
      ],
      "payable": false,
      "stateMutability": "view",
      "type": "function",
      "signature": "0x12065fe0"
    },
    {
      "constant": false,
      "inputs": [
        {
          "name": "_reciever",
          "type": "address"
        }
      ],
      "name": "send",
      "outputs": [
        {
          "name": "",
          "type": "bool"
        }
      ],
      "payable": true,
      "stateMutability": "payable",
      "type": "function",
      "signature": "0x3e58c58c"
    }
  ],
  "bytecode": "0x608060405260036001553480156200001657600080fd5b506200002162000725565b6200002b62000755565b606060405190810160405280603081526020017f45617420736f6d657468696e6720616e64207468656e2074616c6b207769746881526020017f20796f7572206d6f7574682066756c6c00000000000000000000000000000000815250600a6000600181526020019081526020016000209080519060200190620000b192919062000785565b50600b60019080600181540180825580915050906001820390600052602060002001600090919290919091505550606060405190810160405280603181526020017f46696c6c20796f7572206d6f757468207769746820776174657220616e64207481526020017f72792073696e67696e67206120736f6e67000000000000000000000000000000815250600a60006002815260200190815260200160002090805190602001906200016592919062000785565b50600b60029080600181540180825580915050906001820390600052602060002001600090919290919091505550606060405190810160405280603081526020017f43616c6c20757020796f757220637275736820616e64206465636c617265207981526020017f6f7572206c6f766520666f722068696d00000000000000000000000000000000815250600a60006003815260200190815260200160002090805190602001906200021992919062000785565b50600b60039080600181540180825580915050906001820390600052602060002001600090919290919091505550606060405190810160405280602d81526020017f4d616b6520616e206f627363656e652070686f6e652063616c6c20746f20612081526020017f72616e646f6d206e756d62657200000000000000000000000000000000000000815250600a6000600481526020019081526020016000209080519060200190620002cd92919062000785565b50600b600490806001815401808255809150509060018203906000526020600020016000909192909190915055506040805190810160405280600481526020017f6162697200000000000000000000000000000000000000000000000000000000815250826000018190525073bd291142e71c7278de5eb82d7cddc53ae704e1fa826020019073ffffffffffffffffffffffffffffffffffffffff16908173ffffffffffffffffffffffffffffffffffffffff16815250508160066000600181526020019081526020016000206000820151816000019080519060200190620003b89291906200080c565b5060208201518160010160006101000a81548173ffffffffffffffffffffffffffffffffffffffff021916908373ffffffffffffffffffffffffffffffffffffffff1602179055509050506007600190806001815401808255809150509060018203906000526020600020016000909192909190915055506040805190810160405280600581526020017f68616d7a61000000000000000000000000000000000000000000000000000000815250826000018190525073bb9bc244d798123fde783fcc1c72d3bb8c189413826020019073ffffffffffffffffffffffffffffffffffffffff16908173ffffffffffffffffffffffffffffffffffffffff16815250508160066000600281526020019081526020016000206000820151816000019080519060200190620004ed9291906200080c565b5060208201518160010160006101000a81548173ffffffffffffffffffffffffffffffffffffffff021916908373ffffffffffffffffffffffffffffffffffffffff1602179055509050506007600290806001815401808255809150509060018203906000526020600020016000909192909190915055506040805190810160405280600481526020017f6d616a6400000000000000000000000000000000000000000000000000000000815250826000018190525073de0b295669a9fd93d5f28d9ec85e40f4cb697bae826020019073ffffffffffffffffffffffffffffffffffffffff16908173ffffffffffffffffffffffffffffffffffffffff16815250508160066000600381526020019081526020016000206000820151816000019080519060200190620006229291906200080c565b5060208201518160010160006101000a81548173ffffffffffffffffffffffffffffffffffffffff021916908373ffffffffffffffffffffffffffffffffffffffff16021790555090505060076003908060018154018082558091505090600182039060005260206000200160009091929091909150555060008160000181815250506008819080600181540180825580915050906001820390600052602060002090600502016000909192909190915060008201518160000155602082015181600101556040820151816002019080519060200190620007059291906200080c565b5060608201518160030155608082015181600401555050505050620008bb565b604080519081016040528060608152602001600073ffffffffffffffffffffffffffffffffffffffff1681525090565b60a06040519081016040528060008152602001600081526020016060815260200160008152602001600081525090565b828054600181600116156101000203166002900490600052602060002090601f016020900481019282601f10620007c857805160ff1916838001178555620007f9565b82800160010185558215620007f9579182015b82811115620007f8578251825591602001919060010190620007db565b5b50905062000808919062000893565b5090565b828054600181600116156101000203166002900490600052602060002090601f016020900481019282601f106200084f57805160ff191683800117855562000880565b8280016001018555821562000880579182015b828111156200087f57825182559160200191906001019062000862565b5b5090506200088f919062000893565b5090565b620008b891905b80821115620008b45760008160009055506001016200089a565b5090565b90565b6123b080620008cb6000396000f3fe60806040526004361061011c576000357c0100000000000000000000000000000000000000000000000000000000900463ffffffff168062ce8e3e1461011e5780630a53cf54146101495780630d67269d1461017457806312065fe0146101b35780631e98fd1c146101de57806325a217011461021c57806327b852ed146102475780633e58c58c1461027757806348db5f89146102a757806352cf2cc4146102d2578063673a2a1f146103025780636fdbdbec1461032d57806386f69a3a1461036a578063a12258ce1461039a578063a8d24e78146103c5578063aaed121414610402578063acc1ec431461043f578063c38a8afd1461047c578063cabe05f2146104a7578063cc4be5f6146104e4578063fce5646814610521575b005b34801561012a57600080fd5b50610133610562565b6040516101409190611ffa565b60405180910390f35b34801561015557600080fd5b5061015e610719565b60405161016b9190611fd8565b60405180910390f35b34801561018057600080fd5b5061019b60048036036101969190810190611b4e565b6108ff565b6040516101aa939291906120f6565b60405180910390f35b3480156101bf57600080fd5b506101c8610936565b6040516101d59190612089565b60405180910390f35b3480156101ea57600080fd5b5061020560048036036102009190810190611be1565b610955565b604051610213929190612059565b60405180910390f35b34801561022857600080fd5b50610231610a31565b60405161023e9190611fb6565b60405180910390f35b610261600480360361025c9190810190611c0a565b610b78565b60405161026e919061201c565b60405180910390f35b610291600480360361028c9190810190611b77565b610d53565b60405161029e919061201c565b60405180910390f35b3480156102b357600080fd5b506102bc610de0565b6040516102c99190611f49565b60405180910390f35b6102ec60048036036102e79190810190611c46565b610e06565b6040516102f9919061201c565b60405180910390f35b34801561030e57600080fd5b50610317610fff565b6040516103249190611fd8565b60405180910390f35b34801561033957600080fd5b50610354600480360361034f9190810190611ba0565b61117a565b6040516103619190612089565b60405180910390f35b610384600480360361037f9190810190611c0a565b6112ce565b604051610391919061201c565b60405180910390f35b3480156103a657600080fd5b506103af6112e7565b6040516103bc9190612089565b60405180910390f35b3480156103d157600080fd5b506103ec60048036036103e79190810190611be1565b6112ed565b6040516103f99190612089565b60405180910390f35b34801561040e57600080fd5b5061042960048036036104249190810190611be1565b611366565b6040516104369190612037565b60405180910390f35b34801561044b57600080fd5b5061046660048036036104619190810190611be1565b61148b565b6040516104739190612037565b60405180910390f35b34801561048857600080fd5b5061049161161c565b60405161049e9190612089565b60405180910390f35b3480156104b357600080fd5b506104ce60048036036104c99190810190611be1565b611622565b6040516104db9190611f64565b60405180910390f35b3480156104f057600080fd5b5061050b60048036036105069190810190611be1565b611660565b6040516105189190612089565b60405180910390f35b34801561052d57600080fd5b5061054860048036036105439190810190611b4e565b6116d9565b60405161055995949392919061212d565b60405180910390f35b6060806007805490506040519080825280602002602001820160405280156105a457816020015b610591611963565b8152602001906001900390816105895790505b50905060008090505b60078054905081101561071157600660006007838154811015156105cd57fe5b90600052602060002001548152602001908152602001600020604080519081016040529081600082018054600181600116156101000203166002900480601f01602080910402602001604051908101604052809291908181526020018280546001816001161561010002031660029004801561068a5780601f1061065f5761010080835404028352916020019161068a565b820191906000526020600020905b81548152906001019060200180831161066d57829003601f168201915b505050505081526020016001820160009054906101000a900473ffffffffffffffffffffffffffffffffffffffff1673ffffffffffffffffffffffffffffffffffffffff1673ffffffffffffffffffffffffffffffffffffffff168152505082828151811015156106f757fe5b9060200190602002018190525080806001019150506105ad565b508091505090565b60608060088054905060405190808252806020026020018201604052801561075b57816020015b610748611993565b8152602001906001900390816107405790505b50905060008090505b6008805490508110156108f75760088181548110151561078057fe5b906000526020600020906005020160000154600260003373ffffffffffffffffffffffffffffffffffffffff1673ffffffffffffffffffffffffffffffffffffffff1681526020019081526020016000206000015414156108ea576008818154811015156107ea57fe5b906000526020600020906005020160a060405190810160405290816000820154815260200160018201548152602001600282018054600181600116156101000203166002900480601f0160208091040260200160405190810160405280929190818152602001828054600181600116156101000203166002900480156108b15780601f10610886576101008083540402835291602001916108b1565b820191906000526020600020905b81548152906001019060200180831161089457829003601f168201915b505050505081526020016003820154815260200160048201548152505082828151811015156108dc57fe5b906020019060200201819052505b8080600101915050610764565b508091505090565b60036020528060005260406000206000915090508060000154908060010154908060020160009054906101000a900460ff16905083565b60003373ffffffffffffffffffffffffffffffffffffffff1631905090565b6006602052806000526040600020600091509050806000018054600181600116156101000203166002900480601f016020809104026020016040519081016040528092919081815260200182805460018160011615610100020316600290048015610a015780601f106109d657610100808354040283529160200191610a01565b820191906000526020600020905b8154815290600101906020018083116109e457829003601f168201915b5050505050908060010160009054906101000a900473ffffffffffffffffffffffffffffffffffffffff16905082565b606080600b80549050604051908082528060200260200182016040528015610a6d57816020015b6060815260200190600190039081610a585790505b50905060008090505b600b80549050811015610b7057600a6000600b83815481101515610a9657fe5b906000526020600020015481526020019081526020016000208054600181600116156101000203166002900480601f016020809104026020016040519081016040528092919081815260200182805460018160011615610100020316600290048015610b435780601f10610b1857610100808354040283529160200191610b43565b820191906000526020600020905b815481529060010190602001808311610b2657829003601f168201915b50505050508282815181101515610b5657fe5b906020019060200201819052508080600101915050610a76565b508091505090565b6000610b826119c3565b60088054905081600001818152505083816020018181510191508181525050828160600181815250506008819080600181540180825580915050906001820390600052602060002090600502016000909192909190915060008201518160000155602082015181600101556040820151816002019080519060200190610c099291906119f3565b5060608201518160030155608082015181600401555050508060096000600880549050815260200190815260200160002060008201518160000155602082015181600101556040820151816002019080519060200190610c6a9291906119f3565b50606082015181600301556080820151816004015590505080600260003373ffffffffffffffffffffffffffffffffffffffff1673ffffffffffffffffffffffffffffffffffffffff16815260200190815260200160002060008201518160000155602082015181600101556040820151816002019080519060200190610cf29291906119f3565b5060608201518160030155608082015181600401559050507f65fc0eb45954044fb55e1b01344d5d72fbfdf88e732d955f73bb7fb2bcc131e960088054905033604051610d409291906120cd565b60405180910390a1600191505092915050565b60008173ffffffffffffffffffffffffffffffffffffffff166108fc349081150290604051600060405180830381858888f19350505050158015610d9b573d6000803e3d6000fd5b507f62d5969633e8a33eb6c8ce39af086f3abf04daa520b3858a6f1acbc0073e9ef9338334604051610dcf93929190611f7f565b60405180910390a160019050919050565b600560009054906101000a900473ffffffffffffffffffffffffffffffffffffffff1681565b6000610e106119c3565b6008805490508160000181815250508481602001818151019150818152505083816060018181525050806080018051809190600101815250506008819080600181540180825580915050906001820390600052602060002090600502016000909192909190915060008201518160000155602082015181600101556040820151816002019080519060200190610ea79291906119f3565b50606082015181600301556080820151816004015550505080600960008360000151815260200190815260200160002060008201518160000155602082015181600101556040820151816002019080519060200190610f079291906119f3565b506060820151816003015560808201518160040155905050610f2e858260000151336117a7565b80600260008573ffffffffffffffffffffffffffffffffffffffff1673ffffffffffffffffffffffffffffffffffffffff16815260200190815260200160002060008201518160000155602082015181600101556040820151816002019080519060200190610f9e9291906119f3565b5060608201518160030155608082015181600401559050507f65fc0eb45954044fb55e1b01344d5d72fbfdf88e732d955f73bb7fb2bcc131e9816000015184604051610feb9291906120a4565b60405180910390a160019150509392505050565b60608060088054905060405190808252806020026020018201604052801561104157816020015b61102e611993565b8152602001906001900390816110265790505b50905060008090505b6008805490508110156111725760088181548110151561106657fe5b906000526020600020906005020160a060405190810160405290816000820154815260200160018201548152602001600282018054600181600116156101000203166002900480601f01602080910402602001604051908101604052809291908181526020018280546001816001161561010002031660029004801561112d5780601f106111025761010080835404028352916020019161112d565b820191906000526020600020905b81548152906001019060200180831161111057829003601f168201915b5050505050815260200160038201548152602001600482015481525050828281518110151561115857fe5b90602001906020020181905250808060010191505061104a565b508091505090565b60008060008090505b600b805490508110156112c457600b8181548110151561119f57fe5b90600052602060002001549150836040516020018082805190602001908083835b6020831015156111e557805182526020820191506020810190506020830392506111c0565b6001836020036101000a03801982511681845116808217855250505050505090500191505060405160208183030381529060405280519060200120600a600084815260200190815260200160002060405160200180828054600181600116156101000203166002900480156112915780601f1061126f576101008083540402835291820191611291565b820191906000526020600020905b81548152906001019060200180831161127d575b50509150506040516020818303038152906040528051906020012014156112b7576112c4565b8080600101915050611183565b5080915050919050565b60006112dc600883856118a6565b506001905092915050565b60015481565b60008060008090505b60088054905081101561135c578360088281548110151561131357fe5b906000526020600020906005020160000154141561134f5760088181548110151561133a57fe5b90600052602060002090600502016001015491505b80806001019150506112f6565b5080915050919050565b6060600080600090505b6008805490508110156113d6578360088281548110151561138d57fe5b90600052602060002090600502016000015414156113c9576008818154811015156113b457fe5b90600052602060002090600502016003015491505b8080600101915050611370565b50600a60008281526020019081526020016000208054600181600116156101000203166002900480601f01602080910402602001604051908101604052809291908181526020018280546001816001161561010002031660029004801561147e5780601f106114535761010080835404028352916020019161147e565b820191906000526020600020905b81548152906001019060200180831161146157829003601f168201915b5050505050915050919050565b60608060008090505b600780549050811015611612578360026000600660006007868154811015156114b957fe5b9060005260206000200154815260200190815260200160002060010160009054906101000a900473ffffffffffffffffffffffffffffffffffffffff1673ffffffffffffffffffffffffffffffffffffffff1673ffffffffffffffffffffffffffffffffffffffff168152602001908152602001600020600001541415611605576006600060078381548110151561154d57fe5b906000526020600020015481526020019081526020016000206000018054600181600116156101000203166002900480601f0160208091040260200160405190810160405280929190818152602001828054600181600116156101000203166002900480156115fd5780601f106115d2576101008083540402835291602001916115fd565b820191906000526020600020905b8154815290600101906020018083116115e057829003601f168201915b505050505091505b8080600101915050611494565b5080915050919050565b60005481565b60048181548110151561163157fe5b906000526020600020016000915054906101000a900473ffffffffffffffffffffffffffffffffffffffff1681565b60008060008090505b6008805490508110156116cf578360088281548110151561168657fe5b90600052602060002090600502016000015414156116c2576008818154811015156116ad57fe5b90600052602060002090600502016004015491505b8080600101915050611669565b5080915050919050565b6002602052806000526040600020600091509050806000015490806001015490806002018054600181600116156101000203166002900480601f0160208091040260200160405190810160405280929190818152602001828054600181600116156101000203166002900480156117915780601f1061176657610100808354040283529160200191611791565b820191906000526020600020905b81548152906001019060200180831161177457829003601f168201915b5050505050908060030154908060040154905085565b6117af611a73565b838160000181815250508281602001818152505080600360008473ffffffffffffffffffffffffffffffffffffffff1673ffffffffffffffffffffffffffffffffffffffff168152602001908152602001600020600082015181600001556020820151816001015560408201518160020160006101000a81548160ff02191690831515021790555090505060048290806001815401808255809150509060018203906000526020600020016000909192909190916101000a81548173ffffffffffffffffffffffffffffffffffffffff021916908373ffffffffffffffffffffffffffffffffffffffff1602179055505050505050565b600080600090505b600880549050811015611957578285828154811015156118ca57fe5b906000526020600020906005020160000154141561194a578385828154811015156118f157fe5b906000526020600020906005020160010160008282540192505081905550848181548110151561191d57fe5b9060005260206000209060050201600401600081548092919060010191905055506119498484336117a7565b5b80806001019150506118ae565b50600190509392505050565b604080519081016040528060608152602001600073ffffffffffffffffffffffffffffffffffffffff1681525090565b60a06040519081016040528060008152602001600081526020016060815260200160008152602001600081525090565b60a06040519081016040528060008152602001600081526020016060815260200160008152602001600081525090565b828054600181600116156101000203166002900490600052602060002090601f016020900481019282601f10611a3457805160ff1916838001178555611a62565b82800160010185558215611a62579182015b82811115611a61578251825591602001919060010190611a46565b5b509050611a6f9190611a97565b5090565b60606040519081016040528060008152602001600081526020016000151581525090565b611ab991905b80821115611ab5576000816000905550600101611a9d565b5090565b90565b6000611ac882356122bf565b905092915050565b6000611adc82356122d1565b905092915050565b600082601f8301121515611af757600080fd5b8135611b0a611b05826121b4565b612187565b91508082526020830160208301858383011115611b2657600080fd5b611b31838284612323565b50505092915050565b6000611b4682356122e3565b905092915050565b600060208284031215611b6057600080fd5b6000611b6e84828501611abc565b91505092915050565b600060208284031215611b8957600080fd5b6000611b9784828501611ad0565b91505092915050565b600060208284031215611bb257600080fd5b600082013567ffffffffffffffff811115611bcc57600080fd5b611bd884828501611ae4565b91505092915050565b600060208284031215611bf357600080fd5b6000611c0184828501611b3a565b91505092915050565b60008060408385031215611c1d57600080fd5b6000611c2b85828601611b3a565b9250506020611c3c85828601611b3a565b9150509250929050565b600080600060608486031215611c5b57600080fd5b6000611c6986828701611b3a565b9350506020611c7a86828701611b3a565b9250506040611c8b86828701611abc565b9150509250925092565b611c9e816122ed565b82525050565b611cad81612277565b82525050565b611cbc81612265565b82525050565b6000611ccd82612207565b80845260208401935083602082028501611ce6856121e0565b60005b84811015611d1f578383038852611d01838351611e51565b9250611d0c8261223e565b9150602088019750600181019050611ce9565b508196508694505050505092915050565b6000611d3b82612212565b80845260208401935083602082028501611d54856121ed565b60005b84811015611d8d578383038852611d6f838351611e87565b9250611d7a8261224b565b9150602088019750600181019050611d57565b508196508694505050505092915050565b6000611da98261221d565b80845260208401935083602082028501611dc2856121fa565b60005b84811015611dfb578383038852611ddd838351611efd565b9250611de882612258565b9150602088019750600181019050611dc5565b508196508694505050505092915050565b611e1581612289565b82525050565b6000611e2682612233565b808452611e3a816020860160208601612332565b611e4381612365565b602085010191505092915050565b6000611e5c82612228565b808452611e70816020860160208601612332565b611e7981612365565b602085010191505092915050565b600060a083016000830151611e9f6000860182611f3a565b506020830151611eb26020860182611f3a565b5060408301518482036040860152611eca8282611e51565b9150506060830151611edf6060860182611f3a565b506080830151611ef26080860182611f3a565b508091505092915050565b60006040830160008301518482036000860152611f1a8282611e51565b9150506020830151611f2f6020860182611cb3565b508091505092915050565b611f43816122b5565b82525050565b6000602082019050611f5e6000830184611cb3565b92915050565b6000602082019050611f796000830184611ca4565b92915050565b6000606082019050611f946000830186611c95565b611fa16020830185611c95565b611fae6040830184611f3a565b949350505050565b60006020820190508181036000830152611fd08184611cc2565b905092915050565b60006020820190508181036000830152611ff28184611d30565b905092915050565b600060208201905081810360008301526120148184611d9e565b905092915050565b60006020820190506120316000830184611e0c565b92915050565b600060208201905081810360008301526120518184611e1b565b905092915050565b600060408201905081810360008301526120738185611e51565b90506120826020830184611cb3565b9392505050565b600060208201905061209e6000830184611f3a565b92915050565b60006040820190506120b96000830185611f3a565b6120c66020830184611cb3565b9392505050565b60006040820190506120e26000830185611f3a565b6120ef6020830184611c95565b9392505050565b600060608201905061210b6000830186611f3a565b6121186020830185611f3a565b6121256040830184611e0c565b949350505050565b600060a0820190506121426000830188611f3a565b61214f6020830187611f3a565b81810360408301526121618186611e51565b90506121706060830185611f3a565b61217d6080830184611f3a565b9695505050505050565b6000604051905081810181811067ffffffffffffffff821117156121aa57600080fd5b8060405250919050565b600067ffffffffffffffff8211156121cb57600080fd5b601f19601f8301169050602081019050919050565b6000602082019050919050565b6000602082019050919050565b6000602082019050919050565b600081519050919050565b600081519050919050565b600081519050919050565b600081519050919050565b600081519050919050565b6000602082019050919050565b6000602082019050919050565b6000602082019050919050565b600061227082612295565b9050919050565b600061228282612295565b9050919050565b60008115159050919050565b600073ffffffffffffffffffffffffffffffffffffffff82169050919050565b6000819050919050565b60006122ca82612295565b9050919050565b60006122dc82612295565b9050919050565b6000819050919050565b60006122f8826122ff565b9050919050565b600061230a82612311565b9050919050565b600061231c82612295565b9050919050565b82818337600083830152505050565b60005b83811015612350578082015181840152602081019050612335565b8381111561235f576000848401525b50505050565b6000601f19601f830116905091905056fea265627a7a7230582009a5ea02efa050b832f3b2c808489b9b46dce9360d9791fbbe475a02610d452c6c6578706572696d656e74616cf50037",
  "source": "pragma solidity ^0.5.0;\npragma experimental ABIEncoderV2;\n\ncontract game{\n    /************************************* Global vars ***************************************/\n    uint public minimumBet; //min bet for a watcher to play the game\n    uint public requiredWatcherNumber = 3; //required number of watchers to play a dare\n\n    /************************************* Structs *******************************************/\n\n    struct User{\n        string nickName;\n        address Uaddress;\n    }\n    \n    struct Watcher{\n        uint BetAmount; \n        uint Poolkey;\n        bool vote ; // true if proof is acceptes and 0 if not\n    }\n    struct PrizePool{\n        uint PoolID;\n        uint TotalAmount;\n        string ProofID; // IPFS ID of the proof\n        uint DareKey;\n        uint NbWatchers;\n    }\n     \n    /************************************* Arrays ***************************************/\n    mapping(address => PrizePool) public PLayedDare; // mapping (player => prizepool)\n    mapping(address => Watcher) public watcherInfo; // maaping(player-address => player-informations)\n    \n    //address[] public Users; // players are stored in blockchain as an array of adresses\n    address payable[] public watchers; // watchers are stored in blockchain as an array of payable adresses\n    address public player;\n    \n    mapping(uint => User) public Users;\n    uint[] UsersKeyList;\n   /* mapping(uint => PrizePool) PrizePools;\n    uint[] PoolsKeyList;*/\n    PrizePool[] PrizePools;\n    mapping(uint => PrizePool) PoolKey;\n    mapping (uint => string) Dares; // mapping(Dare-key => Dare-description)\n    uint[] DaresKeyList; //array that store all Dares keys \n\n    /************************************* Events *******************************************/\n    event transferFund(address _sender,address _reciever,uint _amount);\n    event PoolCreated(uint PoolID,address _player);\n    \n\n    constructor()public {\n        User memory _user;\n        PrizePool memory _pool;\n        //Hard-coded list of dares for test\n        Dares[1]=\"Eat something and then talk with your mouth full\";\n        DaresKeyList.push(1);\n        Dares[2]=\"Fill your mouth with water and try singing a song\";\n        DaresKeyList.push(2);\n        Dares[3]=\"Call up your crush and declare your love for him\";\n        DaresKeyList.push(3);\n        Dares[4]=\"Make an obscene phone call to a random number\";\n        DaresKeyList.push(4);\n\n        //Hard-coded list of users\n        _user.nickName = 'abir';\n        _user.Uaddress = 0xbd291142E71c7278DE5eb82D7CddC53AE704e1fa;\n         Users[1] = _user;\n         UsersKeyList.push(1);\n         _user.nickName = 'hamza';\n        _user.Uaddress = 0xBB9bc244D798123fDe783fCc1C72d3Bb8C189413;\n         Users[2] = _user;\n         UsersKeyList.push(2);\n         _user.nickName = 'majd';\n        _user.Uaddress = 0xde0B295669a9FD93d5F28D9Ec85E40f4cb697BAe;\n         Users[3] = _user;\n         UsersKeyList.push(3);\n        // Initial Pool\n        _pool.PoolID = 0 ;\n        PrizePools.push(_pool);\n\n    }\n    function checkPlayerExists(address _player) private view returns(bool){\n        return _player == player;\n    }\n\n    modifier OnlyPlayer(){\n        require(checkPlayerExists(msg.sender));\n         _;\n    }\n    function checkUserExists(address _user) private view returns(bool){\n         for(uint i = 0; i < UsersKeyList.length; i++){\n            if(keccak256(abi.encode(Users[UsersKeyList[i]]))==keccak256(abi.encode(_user)) ){\n                return true;\n                break;\n            }\n    \n        }\n        return false;\n    }\n    modifier OnlyUser(){\n        require(checkUserExists(msg.sender));\n         _;\n    }\n    function checkWatcherExists(address _watcher) private view returns(bool){\n        for(uint i = 0; i < watchers.length; i++){\n            if(watchers[i] == _watcher) {\n                return true;\n                 break;\n            }\n        }\n        return false;\n    }\n  \n    modifier OnlyWatcher() {\n       require(checkWatcherExists(msg.sender));\n         _;\n    }\n    modifier ExceptWatcher() {\n       require(!checkWatcherExists(msg.sender));\n         _;\n    }\n   \n  \n  /// @dev function that returns all dares \n  /// @return array of string new experimental blockchain feature \n    function getDares()public view returns(string[] memory){\n      string[] memory _Dares = new string[](DaresKeyList.length);\n       for(uint i = 0; i < DaresKeyList.length; i++){\n           _Dares[i] = Dares[DaresKeyList[i]];\n       }\n       return _Dares;\n    }\n   /// @dev function that returns key of selected dare\n  /// @return uint=key in mapping(key => dare)\n    function getDareKey(string memory _dare) public view returns(uint){\n     uint _key;\n        for(uint i = 0; i < DaresKeyList.length; i++){\n             _key = DaresKeyList[i];\n            if(keccak256(abi.encodePacked(Dares[_key]))==keccak256(abi.encodePacked(_dare)) )\n            break;\n        }\n        return _key;\n    }\n    function getDareByKey(uint _key) private view returns(string memory){\n       return Dares[_key];\n    }  \n    function getUsers()public view returns(User[] memory){\n        User[] memory _users = new User[](UsersKeyList.length);\n          for(uint i = 0; i < UsersKeyList.length; i++){\n           _users[i] = Users[UsersKeyList[i]];\n          }\n       return _users;\n    }\n\n    function createWatcher(uint _BetAmount,uint _Poolkey,address payable _address)private {\n     Watcher memory _watcher;\n     _watcher.BetAmount = _BetAmount;\n     _watcher.Poolkey = _Poolkey;\n     watcherInfo[_address]=_watcher;\n     watchers.push(_address);\n     \n    }\n    function dareYou(uint _BetAmount,uint _DareKey,address _player) public payable returns(bool){\n        //require(_BetAmount>minimumBet);\n        PrizePool memory _Pool;\n        //create the new prizepool\n        _Pool.PoolID = PrizePools.length;\n        _Pool.TotalAmount +=_BetAmount;\n        _Pool.DareKey = _DareKey;\n        _Pool.NbWatchers ++;\n        //store the new prizepool\n         PrizePools.push(_Pool);\n         PoolKey[_Pool.PoolID] = _Pool;\n        // create new watcher\n        createWatcher(_BetAmount,_Pool.PoolID,msg.sender);\n        // associate the game with the player\n        PLayedDare[_player] = _Pool;\n        emit PoolCreated(_Pool.PoolID,_player);\n        return true;\n    }\n    function update(PrizePool[] storage _pools,uint _betAmount,uint _poolID)internal returns(bool){\n          \n           for(uint i = 0; i < PrizePools.length; i++){\n             if(_pools[i].PoolID == _poolID){\n               _pools[i].TotalAmount+=_betAmount;\n               _pools[i].NbWatchers++;\n               // create new watcher\n               createWatcher(_betAmount,_poolID,msg.sender);\n              }\n            }\n          return true;\n    }\n    function joinDare(uint _poolID,uint _betAmount)public payable returns(bool ){\n       update(PrizePools,_betAmount,_poolID);\n      return true;\n      \n    }\n    \n    function dareMe(uint _BetAmount,uint  _DareKey) public payable returns(bool){\n        //require(_BetAmount>minimumBet);\n        PrizePool memory _Pool;\n        //create the new prizepool\n        _Pool.PoolID = PrizePools.length;\n        _Pool.TotalAmount +=_BetAmount;\n        _Pool.DareKey = _DareKey;\n        //store the new prizepool\n         PrizePools.push(_Pool);\n         PoolKey[PrizePools.length] = _Pool;\n        // associate the game with the player\n        PLayedDare[msg.sender] = _Pool;\n        emit PoolCreated(PrizePools.length,msg.sender);\n        return true;\n    }\n    // get all active dares\n     function getPools()public view returns(PrizePool[] memory ){\n        PrizePool[] memory _pools = new PrizePool[](PrizePools.length);\n       for(uint i = 0; i < PrizePools.length; i++){\n           _pools[i] = PrizePools[i];\n       }\n       return _pools;\n    \n    }  \n// get active dares for a selected player\n    function getMyDares() public view returns(PrizePool[] memory ){\n      PrizePool[] memory _pools = new PrizePool[](PrizePools.length);\n       for(uint i = 0; i < PrizePools.length; i++){\n           if(PLayedDare[msg.sender].PoolID == PrizePools[i].PoolID)\n           _pools[i] = PrizePools[i];\n       }\n       return _pools;\n\n    }\n// 4 functions to get dare informations\n    function getActiveDareName(uint _pool) public view returns(string memory){\n        uint _dareID;\n        for(uint i = 0; i < PrizePools.length; i++){\n           if(PrizePools[i].PoolID == _pool){\n              _dareID = PrizePools[i].DareKey;\n           }\n       }\n       return Dares[_dareID];\n     } \n    function getActiveDarePlayer(uint _pool) public view returns(string memory){\n      string memory _player;\n        for(uint i = 0; i < UsersKeyList.length; i++){\n           if(PLayedDare[Users[UsersKeyList[i]].Uaddress].PoolID == _pool){\n              _player = Users[UsersKeyList[i]].nickName;\n           }\n       }\n       return _player;\n    }\n\n      function getActiveDareAmount(uint _pool) public view returns(uint){\n        uint _totalAMount;\n        for(uint i = 0; i < PrizePools.length; i++){\n           if(PrizePools[i].PoolID == _pool){\n              _totalAMount = PrizePools[i].TotalAmount;\n           }\n       }\n       return _totalAMount;\n     } \n       function getActiveDareNBwatchers(uint _pool) public view returns(uint){\n        uint _nbWatchers;\n        for(uint i = 0; i < PrizePools.length; i++){\n           if(PrizePools[i].PoolID == _pool){\n              _nbWatchers = PrizePools[i].NbWatchers;\n           }\n       }\n       return _nbWatchers;\n     } \n\n    function getBalance() public view returns(uint){\n         return (msg.sender.balance);\n    }\n    function send(address payable _reciever) public payable returns(bool){\n        _reciever.transfer(msg.value);\n        emit transferFund(msg.sender,_reciever,msg.value);\n        return true;\n    }\n        // Fallback function in case someone sends ether to the contract so it doesn't get lost and to increase the treasury of this contract that will be distributed in each game\n    function() external payable {}\n}",
  "sourcePath": "/home/abir/Nerve-Project/contracts/game.sol",
  "compiler": {
    "name": "solc",
    "version": "0.5.0+commit.1d4f565a.Emscripten.clang"
  },
  "schemaVersion": "3.0.2",
  "updatedAt": "2019-06-14T22:28:41.685Z",
  "devdoc": {
    "methods": {
      "getDareKey(string)": {
        "details": "function that returns key of selected dare",
        "return": "uint=key in mapping(key => dare)"
      },
      "getDares()": {
        "details": "function that returns all dares ",
        "return": "array of string new experimental blockchain feature "
      }
    }
  },
  "userdoc": {
    "methods": {}
  }
}