{
  "contractName": "game",
  "abi": [
    {
      "constant": true,
      "inputs": [
        {
          "name": "",
          "type": "address"
        }
      ],
      "name": "watcherInfo",
      "outputs": [
        {
          "name": "BetAmount",
          "type": "uint256"
        },
        {
          "name": "Poolkey",
          "type": "uint256"
        },
        {
          "name": "vote",
          "type": "bool"
        }
      ],
      "payable": false,
      "stateMutability": "view",
      "type": "function",
      "signature": "0x0d67269d"
    },
    {
      "constant": true,
      "inputs": [
        {
          "name": "",
          "type": "uint256"
        }
      ],
      "name": "Users",
      "outputs": [
        {
          "name": "nickName",
          "type": "string"
        },
        {
          "name": "Uaddress",
          "type": "address"
        }
      ],
      "payable": false,
      "stateMutability": "view",
      "type": "function",
      "signature": "0x1e98fd1c"
    },
    {
      "constant": true,
      "inputs": [
        {
          "name": "",
          "type": "uint256"
        }
      ],
      "name": "users",
      "outputs": [
        {
          "name": "",
          "type": "address"
        }
      ],
      "payable": false,
      "stateMutability": "view",
      "type": "function",
      "signature": "0x365b98b2"
    },
    {
      "constant": true,
      "inputs": [],
      "name": "player",
      "outputs": [
        {
          "name": "",
          "type": "address"
        }
      ],
      "payable": false,
      "stateMutability": "view",
      "type": "function",
      "signature": "0x48db5f89"
    },
    {
      "constant": false,
      "inputs": [],
      "name": "renounceOwnership",
      "outputs": [],
      "payable": false,
      "stateMutability": "nonpayable",
      "type": "function",
      "signature": "0x715018a6"
    },
    {
      "constant": true,
      "inputs": [],
      "name": "owner",
      "outputs": [
        {
          "name": "",
          "type": "address"
        }
      ],
      "payable": false,
      "stateMutability": "view",
      "type": "function",
      "signature": "0x8da5cb5b"
    },
    {
      "constant": true,
      "inputs": [],
      "name": "isOwner",
      "outputs": [
        {
          "name": "",
          "type": "bool"
        }
      ],
      "payable": false,
      "stateMutability": "view",
      "type": "function",
      "signature": "0x8f32d59b"
    },
    {
      "constant": true,
      "inputs": [],
      "name": "requiredWatcherNumber",
      "outputs": [
        {
          "name": "",
          "type": "uint256"
        }
      ],
      "payable": false,
      "stateMutability": "view",
      "type": "function",
      "signature": "0xa12258ce"
    },
    {
      "constant": true,
      "inputs": [],
      "name": "minimumBet",
      "outputs": [
        {
          "name": "",
          "type": "uint256"
        }
      ],
      "payable": false,
      "stateMutability": "view",
      "type": "function",
      "signature": "0xc38a8afd"
    },
    {
      "constant": true,
      "inputs": [
        {
          "name": "",
          "type": "uint256"
        }
      ],
      "name": "watchers",
      "outputs": [
        {
          "name": "",
          "type": "address"
        }
      ],
      "payable": false,
      "stateMutability": "view",
      "type": "function",
      "signature": "0xcabe05f2"
    },
    {
      "constant": false,
      "inputs": [
        {
          "name": "newOwner",
          "type": "address"
        }
      ],
      "name": "transferOwnership",
      "outputs": [],
      "payable": false,
      "stateMutability": "nonpayable",
      "type": "function",
      "signature": "0xf2fde38b"
    },
    {
      "constant": true,
      "inputs": [
        {
          "name": "",
          "type": "address"
        }
      ],
      "name": "PLayedDare",
      "outputs": [
        {
          "name": "PoolID",
          "type": "uint256"
        },
        {
          "name": "TotalAmount",
          "type": "uint256"
        },
        {
          "name": "ProofID",
          "type": "string"
        },
        {
          "name": "DareKey",
          "type": "uint256"
        },
        {
          "name": "NbWatchers",
          "type": "uint256"
        },
        {
          "name": "state",
          "type": "bool"
        }
      ],
      "payable": false,
      "stateMutability": "view",
      "type": "function",
      "signature": "0xfce56468"
    },
    {
      "inputs": [],
      "payable": false,
      "stateMutability": "nonpayable",
      "type": "constructor",
      "signature": "constructor"
    },
    {
      "payable": true,
      "stateMutability": "payable",
      "type": "fallback"
    },
    {
      "anonymous": false,
      "inputs": [
        {
          "indexed": false,
          "name": "_sender",
          "type": "address"
        },
        {
          "indexed": false,
          "name": "_reciever",
          "type": "address"
        },
        {
          "indexed": false,
          "name": "_amount",
          "type": "uint256"
        }
      ],
      "name": "transferFund",
      "type": "event",
      "signature": "0x62d5969633e8a33eb6c8ce39af086f3abf04daa520b3858a6f1acbc0073e9ef9"
    },
    {
      "anonymous": false,
      "inputs": [
        {
          "indexed": false,
          "name": "PoolID",
          "type": "uint256"
        },
        {
          "indexed": false,
          "name": "_player",
          "type": "address"
        }
      ],
      "name": "PoolCreated",
      "type": "event",
      "signature": "0x65fc0eb45954044fb55e1b01344d5d72fbfdf88e732d955f73bb7fb2bcc131e9"
    },
    {
      "anonymous": false,
      "inputs": [
        {
          "indexed": false,
          "name": "_poolID",
          "type": "uint256"
        },
        {
          "indexed": false,
          "name": "_ipfsID",
          "type": "string"
        }
      ],
      "name": "proofUpdated",
      "type": "event",
      "signature": "0xdff8ff842f09174143526d155ab2e4621b55eea05415f0f7389dbd0826bb6ad1"
    },
    {
      "anonymous": false,
      "inputs": [
        {
          "indexed": true,
          "name": "previousOwner",
          "type": "address"
        },
        {
          "indexed": true,
          "name": "newOwner",
          "type": "address"
        }
      ],
      "name": "OwnershipTransferred",
      "type": "event",
      "signature": "0x8be0079c531659141344cd1fd0a4f28419497f9722a3daafe3b4186f6b6457e0"
    },
    {
      "constant": true,
      "inputs": [],
      "name": "getDares",
      "outputs": [
        {
          "name": "",
          "type": "string[]"
        }
      ],
      "payable": false,
      "stateMutability": "view",
      "type": "function",
      "signature": "0x25a21701"
    },
    {
      "constant": true,
      "inputs": [
        {
          "name": "_dare",
          "type": "string"
        }
      ],
      "name": "getDareKey",
      "outputs": [
        {
          "name": "",
          "type": "uint256"
        }
      ],
      "payable": false,
      "stateMutability": "view",
      "type": "function",
      "signature": "0x6fdbdbec"
    },
    {
      "constant": true,
      "inputs": [],
      "name": "getUsers",
      "outputs": [
        {
          "components": [
            {
              "name": "nickName",
              "type": "string"
            },
            {
              "name": "Uaddress",
              "type": "address"
            }
          ],
          "name": "",
          "type": "tuple[]"
        }
      ],
      "payable": false,
      "stateMutability": "view",
      "type": "function",
      "signature": "0x00ce8e3e"
    },
    {
      "constant": false,
      "inputs": [
        {
          "name": "_BetAmount",
          "type": "uint256"
        },
        {
          "name": "_DareKey",
          "type": "uint256"
        },
        {
          "name": "_player",
          "type": "address"
        }
      ],
      "name": "dareYou",
      "outputs": [
        {
          "name": "",
          "type": "bool"
        }
      ],
      "payable": true,
      "stateMutability": "payable",
      "type": "function",
      "signature": "0x52cf2cc4"
    },
    {
      "constant": false,
      "inputs": [
        {
          "name": "_poolID",
          "type": "uint256"
        },
        {
          "name": "_betAmount",
          "type": "uint256"
        }
      ],
      "name": "joinDare",
      "outputs": [
        {
          "name": "",
          "type": "bool"
        }
      ],
      "payable": true,
      "stateMutability": "payable",
      "type": "function",
      "signature": "0x86f69a3a"
    },
    {
      "constant": false,
      "inputs": [
        {
          "name": "_BetAmount",
          "type": "uint256"
        },
        {
          "name": "_DareKey",
          "type": "uint256"
        }
      ],
      "name": "dareMe",
      "outputs": [
        {
          "name": "",
          "type": "bool"
        }
      ],
      "payable": true,
      "stateMutability": "payable",
      "type": "function",
      "signature": "0x27b852ed"
    },
    {
      "constant": true,
      "inputs": [],
      "name": "getPools",
      "outputs": [
        {
          "components": [
            {
              "name": "PoolID",
              "type": "uint256"
            },
            {
              "name": "TotalAmount",
              "type": "uint256"
            },
            {
              "name": "ProofID",
              "type": "string"
            },
            {
              "name": "DareKey",
              "type": "uint256"
            },
            {
              "name": "NbWatchers",
              "type": "uint256"
            },
            {
              "name": "state",
              "type": "bool"
            }
          ],
          "name": "",
          "type": "tuple[]"
        }
      ],
      "payable": false,
      "stateMutability": "view",
      "type": "function",
      "signature": "0x673a2a1f"
    },
    {
      "constant": true,
      "inputs": [],
      "name": "getMyDares",
      "outputs": [
        {
          "components": [
            {
              "name": "PoolID",
              "type": "uint256"
            },
            {
              "name": "TotalAmount",
              "type": "uint256"
            },
            {
              "name": "ProofID",
              "type": "string"
            },
            {
              "name": "DareKey",
              "type": "uint256"
            },
            {
              "name": "NbWatchers",
              "type": "uint256"
            },
            {
              "name": "state",
              "type": "bool"
            }
          ],
          "name": "",
          "type": "tuple[]"
        }
      ],
      "payable": false,
      "stateMutability": "view",
      "type": "function",
      "signature": "0x0a53cf54"
    },
    {
      "constant": true,
      "inputs": [
        {
          "name": "_pool",
          "type": "uint256"
        }
      ],
      "name": "getActiveDareName",
      "outputs": [
        {
          "name": "",
          "type": "string"
        }
      ],
      "payable": false,
      "stateMutability": "view",
      "type": "function",
      "signature": "0xaaed1214"
    },
    {
      "constant": true,
      "inputs": [
        {
          "name": "_pool",
          "type": "uint256"
        }
      ],
      "name": "getActiveDarePlayer",
      "outputs": [
        {
          "name": "",
          "type": "string"
        }
      ],
      "payable": false,
      "stateMutability": "view",
      "type": "function",
      "signature": "0xacc1ec43"
    },
    {
      "constant": true,
      "inputs": [
        {
          "name": "_pool",
          "type": "uint256"
        }
      ],
      "name": "getActiveDareAmount",
      "outputs": [
        {
          "name": "",
          "type": "uint256"
        }
      ],
      "payable": false,
      "stateMutability": "view",
      "type": "function",
      "signature": "0xa8d24e78"
    },
    {
      "constant": true,
      "inputs": [
        {
          "name": "_pool",
          "type": "uint256"
        }
      ],
      "name": "getActiveDareProof",
      "outputs": [
        {
          "name": "",
          "type": "string"
        }
      ],
      "payable": false,
      "stateMutability": "view",
      "type": "function",
      "signature": "0x1d62d0cc"
    },
    {
      "constant": true,
      "inputs": [
        {
          "name": "_pool",
          "type": "uint256"
        }
      ],
      "name": "getActiveDareNBwatchers",
      "outputs": [
        {
          "name": "",
          "type": "uint256"
        }
      ],
      "payable": false,
      "stateMutability": "view",
      "type": "function",
      "signature": "0xcc4be5f6"
    },
    {
      "constant": false,
      "inputs": [
        {
          "name": "_poolID",
          "type": "uint256"
        },
        {
          "name": "_ipfsID",
          "type": "string"
        }
      ],
      "name": "setProof",
      "outputs": [
        {
          "name": "",
          "type": "bool"
        }
      ],
      "payable": true,
      "stateMutability": "payable",
      "type": "function",
      "signature": "0xf683a3b9"
    },
    {
      "constant": true,
      "inputs": [
        {
          "name": "_poolID",
          "type": "uint256"
        }
      ],
      "name": "getProof",
      "outputs": [
        {
          "name": "",
          "type": "string"
        }
      ],
      "payable": false,
      "stateMutability": "view",
      "type": "function",
      "signature": "0x11149ada"
    },
    {
      "constant": false,
      "inputs": [
        {
          "name": "_poolID",
          "type": "uint256"
        },
        {
          "name": "_vote",
          "type": "bool"
        }
      ],
      "name": "vote",
      "outputs": [
        {
          "name": "",
          "type": "bool"
        }
      ],
      "payable": true,
      "stateMutability": "payable",
      "type": "function",
      "signature": "0xc9d27afe"
    },
    {
      "constant": false,
      "inputs": [
        {
          "name": "_poolID",
          "type": "uint256"
        }
      ],
      "name": "distributePrizes",
      "outputs": [
        {
          "name": "",
          "type": "bool"
        }
      ],
      "payable": true,
      "stateMutability": "payable",
      "type": "function",
      "signature": "0x6ca3fc3b"
    },
    {
      "constant": true,
      "inputs": [],
      "name": "getBalance",
      "outputs": [
        {
          "name": "",
          "type": "uint256"
        }
      ],
      "payable": false,
      "stateMutability": "view",
      "type": "function",
      "signature": "0x12065fe0"
    },
    {
      "constant": false,
      "inputs": [
        {
          "name": "_reciever",
          "type": "address"
        }
      ],
      "name": "send",
      "outputs": [
        {
          "name": "",
          "type": "bool"
        }
      ],
      "payable": true,
      "stateMutability": "payable",
      "type": "function",
      "signature": "0x3e58c58c"
    }
  ],
  "bytecode": "0x608060405260036002553480156200001657600080fd5b50336000806101000a81548173ffffffffffffffffffffffffffffffffffffffff021916908373ffffffffffffffffffffffffffffffffffffffff1602179055506000809054906101000a900473ffffffffffffffffffffffffffffffffffffffff1673ffffffffffffffffffffffffffffffffffffffff16600073ffffffffffffffffffffffffffffffffffffffff167f8be0079c531659141344cd1fd0a4f28419497f9722a3daafe3b4186f6b6457e060405160405180910390a3620000dd62000801565b620000e762000831565b606060405190810160405280603081526020017f45617420736f6d657468696e6720616e64207468656e2074616c6b207769746881526020017f20796f7572206d6f7574682066756c6c00000000000000000000000000000000815250600c60006001815260200190815260200160002090805190602001906200016d9291906200086a565b50600d60019080600181540180825580915050906001820390600052602060002001600090919290919091505550606060405190810160405280603181526020017f46696c6c20796f7572206d6f757468207769746820776174657220616e64207481526020017f72792073696e67696e67206120736f6e67000000000000000000000000000000815250600c6000600281526020019081526020016000209080519060200190620002219291906200086a565b50600d60029080600181540180825580915050906001820390600052602060002001600090919290919091505550606060405190810160405280603081526020017f43616c6c20757020796f757220637275736820616e64206465636c617265207981526020017f6f7572206c6f766520666f722068696d00000000000000000000000000000000815250600c6000600381526020019081526020016000209080519060200190620002d59291906200086a565b50600d60039080600181540180825580915050906001820390600052602060002001600090919290919091505550606060405190810160405280602d81526020017f4d616b6520616e206f627363656e652070686f6e652063616c6c20746f20612081526020017f72616e646f6d206e756d62657200000000000000000000000000000000000000815250600c6000600481526020019081526020016000209080519060200190620003899291906200086a565b50600d600490806001815401808255809150509060018203906000526020600020016000909192909190915055506040805190810160405280600481526020017f6162697200000000000000000000000000000000000000000000000000000000815250826000018190525073bd291142e71c7278de5eb82d7cddc53ae704e1fa826020019073ffffffffffffffffffffffffffffffffffffffff16908173ffffffffffffffffffffffffffffffffffffffff1681525050816007600060018152602001908152602001600020600082015181600001908051906020019062000474929190620008f1565b5060208201518160010160006101000a81548173ffffffffffffffffffffffffffffffffffffffff021916908373ffffffffffffffffffffffffffffffffffffffff1602179055509050506008600190806001815401808255809150509060018203906000526020600020016000909192909190915055506040805190810160405280600581526020017f68616d7a61000000000000000000000000000000000000000000000000000000815250826000018190525073bb9bc244d798123fde783fcc1c72d3bb8c189413826020019073ffffffffffffffffffffffffffffffffffffffff16908173ffffffffffffffffffffffffffffffffffffffff16815250508160076000600281526020019081526020016000206000820151816000019080519060200190620005a9929190620008f1565b5060208201518160010160006101000a81548173ffffffffffffffffffffffffffffffffffffffff021916908373ffffffffffffffffffffffffffffffffffffffff1602179055509050506008600290806001815401808255809150509060018203906000526020600020016000909192909190915055506040805190810160405280600481526020017f6d616a6400000000000000000000000000000000000000000000000000000000815250826000018190525073de0b295669a9fd93d5f28d9ec85e40f4cb697bae826020019073ffffffffffffffffffffffffffffffffffffffff16908173ffffffffffffffffffffffffffffffffffffffff16815250508160076000600381526020019081526020016000206000820151816000019080519060200190620006de929190620008f1565b5060208201518160010160006101000a81548173ffffffffffffffffffffffffffffffffffffffff021916908373ffffffffffffffffffffffffffffffffffffffff1602179055509050506008600390806001815401808255809150509060018203906000526020600020016000909192909190915055506000816000018181525050600a819080600181540180825580915050906001820390600052602060002090600602016000909192909190915060008201518160000155602082015181600101556040820151816002019080519060200190620007c1929190620008f1565b50606082015181600301556080820151816004015560a08201518160050160006101000a81548160ff0219169083151502179055505050505050620009a0565b604080519081016040528060608152602001600073ffffffffffffffffffffffffffffffffffffffff1681525090565b60c06040519081016040528060008152602001600081526020016060815260200160008152602001600081526020016000151581525090565b828054600181600116156101000203166002900490600052602060002090601f016020900481019282601f10620008ad57805160ff1916838001178555620008de565b82800160010185558215620008de579182015b82811115620008dd578251825591602001919060010190620008c0565b5b509050620008ed919062000978565b5090565b828054600181600116156101000203166002900490600052602060002090601f016020900481019282601f106200093457805160ff191683800117855562000965565b8280016001018555821562000965579182015b828111156200096457825182559160200191906001019062000947565b5b50905062000974919062000978565b5090565b6200099d91905b80821115620009995760008160009055506001016200097f565b5090565b90565b61359480620009b06000396000f3fe60806040526004361061018a576000357c0100000000000000000000000000000000000000000000000000000000900463ffffffff168062ce8e3e1461018c5780630a53cf54146101b75780630d67269d146101e257806311149ada1461022157806312065fe01461025e5780631d62d0cc146102895780631e98fd1c146102c657806325a217011461030457806327b852ed1461032f578063365b98b21461035f5780633e58c58c1461039c57806348db5f89146103cc57806352cf2cc4146103f7578063673a2a1f146104275780636ca3fc3b146104525780636fdbdbec14610482578063715018a6146104bf57806386f69a3a146104d65780638da5cb5b146105065780638f32d59b14610531578063a12258ce1461055c578063a8d24e7814610587578063aaed1214146105c4578063acc1ec4314610601578063c38a8afd1461063e578063c9d27afe14610669578063cabe05f214610699578063cc4be5f6146106d6578063f2fde38b14610713578063f683a3b91461073c578063fce564681461076c575b005b34801561019857600080fd5b506101a16107ae565b6040516101ae9190613154565b60405180910390f35b3480156101c357600080fd5b506101cc610965565b6040516101d99190613132565b60405180910390f35b3480156101ee57600080fd5b5061020960048036036102049190810190612b71565b610b66565b604051610218939291906132c0565b60405180910390f35b34801561022d57600080fd5b5061024860048036036102439190810190612c04565b610b9d565b6040516102559190613191565b60405180910390f35b34801561026a57600080fd5b50610273610caf565b6040516102809190613223565b60405180910390f35b34801561029557600080fd5b506102b060048036036102ab9190810190612c04565b610cce565b6040516102bd9190613191565b60405180910390f35b3480156102d257600080fd5b506102ed60048036036102e89190810190612c04565b610ddf565b6040516102fb9291906131b3565b60405180910390f35b34801561031057600080fd5b50610319610ebb565b6040516103269190613110565b60405180910390f35b61034960048036036103449190810190612cbd565b611002565b6040516103569190613176565b60405180910390f35b34801561036b57600080fd5b5061038660048036036103819190810190612c04565b61124e565b60405161039391906130be565b60405180910390f35b6103b660048036036103b19190810190612b9a565b61128c565b6040516103c39190613176565b60405180910390f35b3480156103d857600080fd5b506103e1611319565b6040516103ee91906130a3565b60405180910390f35b610411600480360361040c9190810190612cf9565b61133f565b60405161041e9190613176565b60405180910390f35b34801561043357600080fd5b5061043c6115a9565b6040516104499190613132565b60405180910390f35b61046c60048036036104679190810190612c04565b61173f565b6040516104799190613176565b60405180910390f35b34801561048e57600080fd5b506104a960048036036104a49190810190612bc3565b611c4d565b6040516104b69190613223565b60405180910390f35b3480156104cb57600080fd5b506104d4611da1565b005b6104f060048036036104eb9190810190612cbd565b611ea9565b6040516104fd9190613176565b60405180910390f35b34801561051257600080fd5b5061051b611ec2565b60405161052891906130a3565b60405180910390f35b34801561053d57600080fd5b50610546611eeb565b6040516105539190613176565b60405180910390f35b34801561056857600080fd5b50610571611f42565b60405161057e9190613223565b60405180910390f35b34801561059357600080fd5b506105ae60048036036105a99190810190612c04565b611f48565b6040516105bb9190613223565b60405180910390f35b3480156105d057600080fd5b506105eb60048036036105e69190810190612c04565b611fc1565b6040516105f89190613191565b60405180910390f35b34801561060d57600080fd5b5061062860048036036106239190810190612c04565b6120e6565b6040516106359190613191565b60405180910390f35b34801561064a57600080fd5b50610653612277565b6040516106609190613223565b60405180910390f35b610683600480360361067e9190810190612c2d565b61227d565b6040516106909190613176565b60405180910390f35b3480156106a557600080fd5b506106c060048036036106bb9190810190612c04565b6122d1565b6040516106cd91906130be565b60405180910390f35b3480156106e257600080fd5b506106fd60048036036106f89190810190612c04565b61230f565b60405161070a9190613223565b60405180910390f35b34801561071f57600080fd5b5061073a60048036036107359190810190612b71565b612388565b005b61075660048036036107519190810190612c69565b6123dd565b6040516107639190613176565b60405180910390f35b34801561077857600080fd5b50610793600480360361078e9190810190612b71565b61242e565b6040516107a5969594939291906132f7565b60405180910390f35b6060806008805490506040519080825280602002602001820160405280156107f057816020015b6107dd6128e0565b8152602001906001900390816107d55790505b50905060008090505b60088054905081101561095d576007600060088381548110151561081957fe5b90600052602060002001548152602001908152602001600020604080519081016040529081600082018054600181600116156101000203166002900480601f0160208091040260200160405190810160405280929190818152602001828054600181600116156101000203166002900480156108d65780601f106108ab576101008083540402835291602001916108d6565b820191906000526020600020905b8154815290600101906020018083116108b957829003601f168201915b505050505081526020016001820160009054906101000a900473ffffffffffffffffffffffffffffffffffffffff1673ffffffffffffffffffffffffffffffffffffffff1673ffffffffffffffffffffffffffffffffffffffff1681525050828281518110151561094357fe5b9060200190602002018190525080806001019150506107f9565b508091505090565b606080600a805490506040519080825280602002602001820160405280156109a757816020015b610994612910565b81526020019060019003908161098c5790505b50905060008090505b600a80549050811015610b5e57600a818154811015156109cc57fe5b906000526020600020906006020160000154600360003373ffffffffffffffffffffffffffffffffffffffff1673ffffffffffffffffffffffffffffffffffffffff168152602001908152602001600020600001541415610b5157600a81815481101515610a3657fe5b906000526020600020906006020160c060405190810160405290816000820154815260200160018201548152602001600282018054600181600116156101000203166002900480601f016020809104026020016040519081016040528092919081815260200182805460018160011615610100020316600290048015610afd5780601f10610ad257610100808354040283529160200191610afd565b820191906000526020600020905b815481529060010190602001808311610ae057829003601f168201915b5050505050815260200160038201548152602001600482015481526020016005820160009054906101000a900460ff1615151515815250508282815181101515610b4357fe5b906020019060200201819052505b80806001019150506109b0565b508091505090565b60046020528060005260406000206000915090508060000154908060010154908060020160009054906101000a900460ff16905083565b606060008090505b600a80549050811015610ca85782600a82815481101515610bc257fe5b9060005260206000209060060201600001541415610c9b57600a81815481101515610be957fe5b90600052602060002090600602016002018054600181600116156101000203166002900480601f016020809104026020016040519081016040528092919081815260200182805460018160011615610100020316600290048015610c8e5780601f10610c6357610100808354040283529160200191610c8e565b820191906000526020600020905b815481529060010190602001808311610c7157829003601f168201915b5050505050915050610caa565b8080600101915050610ba5565b505b919050565b60003373ffffffffffffffffffffffffffffffffffffffff1631905090565b60608060008090505b600a80549050811015610dd55783600a82815481101515610cf457fe5b9060005260206000209060060201600001541415610dc857600a81815481101515610d1b57fe5b90600052602060002090600602016002018054600181600116156101000203166002900480601f016020809104026020016040519081016040528092919081815260200182805460018160011615610100020316600290048015610dc05780601f10610d9557610100808354040283529160200191610dc0565b820191906000526020600020905b815481529060010190602001808311610da357829003601f168201915b505050505091505b8080600101915050610cd7565b5080915050919050565b6007602052806000526040600020600091509050806000018054600181600116156101000203166002900480601f016020809104026020016040519081016040528092919081815260200182805460018160011615610100020316600290048015610e8b5780601f10610e6057610100808354040283529160200191610e8b565b820191906000526020600020905b815481529060010190602001808311610e6e57829003601f168201915b5050505050908060010160009054906101000a900473ffffffffffffffffffffffffffffffffffffffff16905082565b606080600d80549050604051908082528060200260200182016040528015610ef757816020015b6060815260200190600190039081610ee25790505b50905060008090505b600d80549050811015610ffa57600c6000600d83815481101515610f2057fe5b906000526020600020015481526020019081526020016000208054600181600116156101000203166002900480601f016020809104026020016040519081016040528092919081815260200182805460018160011615610100020316600290048015610fcd5780601f10610fa257610100808354040283529160200191610fcd565b820191906000526020600020905b815481529060010190602001808311610fb057829003601f168201915b50505050508282815181101515610fe057fe5b906020019060200201819052508080600101915050610f00565b508091505090565b600061100c612949565b600a80549050816000018181525050838160200181815101915081815250508281606001818152505060018160a0019015159081151581525050600a8190806001815401808255809150509060018203906000526020600020906006020160009091929091909150600082015181600001556020820151816001015560408201518160020190805190602001906110a4929190612982565b50606082015181600301556080820151816004015560a08201518160050160006101000a81548160ff02191690831515021790555050505080600b6000600a80549050815260200190815260200160002060008201518160000155602082015181600101556040820151816002019080519060200190611125929190612982565b50606082015181600301556080820151816004015560a08201518160050160006101000a81548160ff02191690831515021790555090505080600360003373ffffffffffffffffffffffffffffffffffffffff1673ffffffffffffffffffffffffffffffffffffffff168152602001908152602001600020600082015181600001556020820151816001015560408201518160020190805190602001906111cd929190612982565b50606082015181600301556080820151816004015560a08201518160050160006101000a81548160ff0219169083151502179055509050507f65fc0eb45954044fb55e1b01344d5d72fbfdf88e732d955f73bb7fb2bcc131e9600a805490503360405161123b929190613267565b60405180910390a1600191505092915050565b60098181548110151561125d57fe5b906000526020600020016000915054906101000a900473ffffffffffffffffffffffffffffffffffffffff1681565b60008173ffffffffffffffffffffffffffffffffffffffff166108fc349081150290604051600060405180830381858888f193505050501580156112d4573d6000803e3d6000fd5b507f62d5969633e8a33eb6c8ce39af086f3abf04daa520b3858a6f1acbc0073e9ef9338334604051611308939291906130d9565b60405180910390a160019050919050565b600660009054906101000a900473ffffffffffffffffffffffffffffffffffffffff1681565b6000611349612949565b600a8054905081600001818152505084816020018181510191508181525050838160600181815250508060800180518091906001018152505060018160a0019015159081151581525050600a8190806001815401808255809150509060018203906000526020600020906006020160009091929091909150600082015181600001556020820151816001015560408201518160020190805190602001906113f1929190612982565b50606082015181600301556080820151816004015560a08201518160050160006101000a81548160ff02191690831515021790555050505080600b60008360000151815260200190815260200160002060008201518160000155602082015181600101556040820151816002019080519060200190611471929190612982565b50606082015181600301556080820151816004015560a08201518160050160006101000a81548160ff0219169083151502179055509050506114b88582600001513361250f565b80600360008573ffffffffffffffffffffffffffffffffffffffff1673ffffffffffffffffffffffffffffffffffffffff16815260200190815260200160002060008201518160000155602082015181600101556040820151816002019080519060200190611528929190612982565b50606082015181600301556080820151816004015560a08201518160050160006101000a81548160ff0219169083151502179055509050507f65fc0eb45954044fb55e1b01344d5d72fbfdf88e732d955f73bb7fb2bcc131e981600001518460405161159592919061323e565b60405180910390a160019150509392505050565b606080600a805490506040519080825280602002602001820160405280156115eb57816020015b6115d8612910565b8152602001906001900390816115d05790505b50905060008090505b600a8054905081101561173757600a8181548110151561161057fe5b906000526020600020906006020160c060405190810160405290816000820154815260200160018201548152602001600282018054600181600116156101000203166002900480601f0160208091040260200160405190810160405280929190818152602001828054600181600116156101000203166002900480156116d75780601f106116ac576101008083540402835291602001916116d7565b820191906000526020600020905b8154815290600101906020018083116116ba57829003601f168201915b5050505050815260200160038201548152602001600482015481526020016005820160009054906101000a900460ff161515151581525050828281518110151561171d57fe5b9060200190602002018190525080806001019150506115f4565b508091505090565b600080600190506000809050600080905060008090505b600a805490508110156117da5785600a8281548110151561177357fe5b9060005260206000209060060201600001541480156117c3575060001515600a828154811015156117a057fe5b906000526020600020906006020160050160009054906101000a900460ff161515145b156117cd57600093505b8080600101915050611756565b508215156118a25760008090505b6005805490508110156118a057600115156004600060058481548110151561180c57fe5b9060005260206000200160009054906101000a900473ffffffffffffffffffffffffffffffffffffffff1673ffffffffffffffffffffffffffffffffffffffff1673ffffffffffffffffffffffffffffffffffffffff16815260200190815260200160002060020160009054906101000a900460ff16151514156118935782806001019350505b80806001019150506117e8565b505b60026005805490508115156118b357fe5b048211806118c657506118c58561260e565b5b15611a705760008090505b600980549050811015611a6a5785600360006009848154811015156118f257fe5b9060005260206000200160009054906101000a900473ffffffffffffffffffffffffffffffffffffffff1673ffffffffffffffffffffffffffffffffffffffff1673ffffffffffffffffffffffffffffffffffffffff168152602001908152602001600020600001541415611a5d5760098181548110151561197057fe5b9060005260206000200160009054906101000a900473ffffffffffffffffffffffffffffffffffffffff1673ffffffffffffffffffffffffffffffffffffffff166108fc600360006009858154811015156119c757fe5b9060005260206000200160009054906101000a900473ffffffffffffffffffffffffffffffffffffffff1673ffffffffffffffffffffffffffffffffffffffff1673ffffffffffffffffffffffffffffffffffffffff168152602001908152602001600020600101549081150290604051600060405180830381858888f19350505050158015611a5b573d6000803e3d6000fd5b505b80806001019150506118d1565b50611c45565b60008090505b600980549050811015611ba2578560036000600984815481101515611a9757fe5b9060005260206000200160009054906101000a900473ffffffffffffffffffffffffffffffffffffffff1673ffffffffffffffffffffffffffffffffffffffff1673ffffffffffffffffffffffffffffffffffffffff168152602001908152602001600020600001541415611b955760058054905060036000600984815481101515611b1f57fe5b9060005260206000200160009054906101000a900473ffffffffffffffffffffffffffffffffffffffff1673ffffffffffffffffffffffffffffffffffffffff1673ffffffffffffffffffffffffffffffffffffffff16815260200190815260200160002060010154811515611b9157fe5b0491505b8080600101915050611a76565b5060008090505b600580549050811015611c4357600581815481101515611bc557fe5b9060005260206000200160009054906101000a900473ffffffffffffffffffffffffffffffffffffffff1673ffffffffffffffffffffffffffffffffffffffff166108fc839081150290604051600060405180830381858888f19350505050158015611c35573d6000803e3d6000fd5b508080600101915050611ba9565b505b505050919050565b60008060008090505b600d80549050811015611d9757600d81815481101515611c7257fe5b90600052602060002001549150836040516020018082805190602001908083835b602083101515611cb85780518252602082019150602081019050602083039250611c93565b6001836020036101000a03801982511681845116808217855250505050505090500191505060405160208183030381529060405280519060200120600c60008481526020019081526020016000206040516020018082805460018160011615610100020316600290048015611d645780601f10611d42576101008083540402835291820191611d64565b820191906000526020600020905b815481529060010190602001808311611d50575b5050915050604051602081830303815290604052805190602001201415611d8a57611d97565b8080600101915050611c56565b5080915050919050565b611da9611eeb565b1515611dea576040517f08c379a0000000000000000000000000000000000000000000000000000000008152600401611de190613203565b60405180910390fd5b600073ffffffffffffffffffffffffffffffffffffffff166000809054906101000a900473ffffffffffffffffffffffffffffffffffffffff1673ffffffffffffffffffffffffffffffffffffffff167f8be0079c531659141344cd1fd0a4f28419497f9722a3daafe3b4186f6b6457e060405160405180910390a360008060006101000a81548173ffffffffffffffffffffffffffffffffffffffff021916908373ffffffffffffffffffffffffffffffffffffffff160217905550565b6000611eb7600a8385612619565b506001905092915050565b60008060009054906101000a900473ffffffffffffffffffffffffffffffffffffffff16905090565b60008060009054906101000a900473ffffffffffffffffffffffffffffffffffffffff1673ffffffffffffffffffffffffffffffffffffffff163373ffffffffffffffffffffffffffffffffffffffff1614905090565b60025481565b60008060008090505b600a80549050811015611fb75783600a82815481101515611f6e57fe5b9060005260206000209060060201600001541415611faa57600a81815481101515611f9557fe5b90600052602060002090600602016001015491505b8080600101915050611f51565b5080915050919050565b6060600080600090505b600a805490508110156120315783600a82815481101515611fe857fe5b906000526020600020906006020160000154141561202457600a8181548110151561200f57fe5b90600052602060002090600602016003015491505b8080600101915050611fcb565b50600c60008281526020019081526020016000208054600181600116156101000203166002900480601f0160208091040260200160405190810160405280929190818152602001828054600181600116156101000203166002900480156120d95780601f106120ae576101008083540402835291602001916120d9565b820191906000526020600020905b8154815290600101906020018083116120bc57829003601f168201915b5050505050915050919050565b60608060008090505b60088054905081101561226d5783600360006007600060088681548110151561211457fe5b9060005260206000200154815260200190815260200160002060010160009054906101000a900473ffffffffffffffffffffffffffffffffffffffff1673ffffffffffffffffffffffffffffffffffffffff1673ffffffffffffffffffffffffffffffffffffffff16815260200190815260200160002060000154141561226057600760006008838154811015156121a857fe5b906000526020600020015481526020019081526020016000206000018054600181600116156101000203166002900480601f0160208091040260200160405190810160405280929190818152602001828054600181600116156101000203166002900480156122585780601f1061222d57610100808354040283529160200191612258565b820191906000526020600020905b81548152906001019060200180831161223b57829003601f168201915b505050505091505b80806001019150506120ef565b5080915050919050565b60015481565b60006122c7600460003373ffffffffffffffffffffffffffffffffffffffff1673ffffffffffffffffffffffffffffffffffffffff168152602001908152602001600020836126d6565b6001905092915050565b6005818154811015156122e057fe5b906000526020600020016000915054906101000a900473ffffffffffffffffffffffffffffffffffffffff1681565b60008060008090505b600a8054905081101561237e5783600a8281548110151561233557fe5b906000526020600020906006020160000154141561237157600a8181548110151561235c57fe5b90600052602060002090600602016004015491505b8080600101915050612318565b5080915050919050565b612390611eeb565b15156123d1576040517f08c379a00000000000000000000000000000000000000000000000000000000081526004016123c890613203565b60405180910390fd5b6123da816126f6565b50565b60006123eb600a8484612826565b7fdff8ff842f09174143526d155ab2e4621b55eea05415f0f7389dbd0826bb6ad1838360405161241c929190613290565b60405180910390a16001905092915050565b6003602052806000526040600020600091509050806000015490806001015490806002018054600181600116156101000203166002900480601f0160208091040260200160405190810160405280929190818152602001828054600181600116156101000203166002900480156124e65780601f106124bb576101008083540402835291602001916124e6565b820191906000526020600020905b8154815290600101906020018083116124c957829003601f168201915b5050505050908060030154908060040154908060050160009054906101000a900460ff16905086565b612517612a02565b838160000181815250508281602001818152505080600460008473ffffffffffffffffffffffffffffffffffffffff1673ffffffffffffffffffffffffffffffffffffffff168152602001908152602001600020600082015181600001556020820151816001015560408201518160020160006101000a81548160ff02191690831515021790555090505060058290806001815401808255809150509060018203906000526020600020016000909192909190916101000a81548173ffffffffffffffffffffffffffffffffffffffff021916908373ffffffffffffffffffffffffffffffffffffffff1602179055505050505050565b600060019050919050565b600080600090505b600a805490508110156126ca5782858281548110151561263d57fe5b90600052602060002090600602016000015414156126bd5783858281548110151561266457fe5b906000526020600020906006020160010160008282540192505081905550848181548110151561269057fe5b9060005260206000209060060201600401600081548092919060010191905055506126bc84843361250f565b5b8080600101915050612621565b50600190509392505050565b808260020160006101000a81548160ff0219169083151502179055505050565b600073ffffffffffffffffffffffffffffffffffffffff168173ffffffffffffffffffffffffffffffffffffffff1614151515612768576040517f08c379a000000000000000000000000000000000000000000000000000000000815260040161275f906131e3565b60405180910390fd5b8073ffffffffffffffffffffffffffffffffffffffff166000809054906101000a900473ffffffffffffffffffffffffffffffffffffffff1673ffffffffffffffffffffffffffffffffffffffff167f8be0079c531659141344cd1fd0a4f28419497f9722a3daafe3b4186f6b6457e060405160405180910390a3806000806101000a81548173ffffffffffffffffffffffffffffffffffffffff021916908373ffffffffffffffffffffffffffffffffffffffff16021790555050565b60008090505b600a805490508110156128da5782848281548110151561284857fe5b90600052602060002090600602016000015414156128cd5781848281548110151561286f57fe5b90600052602060002090600602016002019080519060200190612893929190612a26565b50600084828154811015156128a457fe5b906000526020600020906006020160050160006101000a81548160ff0219169083151502179055505b808060010191505061282c565b50505050565b604080519081016040528060608152602001600073ffffffffffffffffffffffffffffffffffffffff1681525090565b60c06040519081016040528060008152602001600081526020016060815260200160008152602001600081526020016000151581525090565b60c06040519081016040528060008152602001600081526020016060815260200160008152602001600081526020016000151581525090565b828054600181600116156101000203166002900490600052602060002090601f016020900481019282601f106129c357805160ff19168380011785556129f1565b828001600101855582156129f1579182015b828111156129f05782518255916020019190600101906129d5565b5b5090506129fe9190612aa6565b5090565b60606040519081016040528060008152602001600081526020016000151581525090565b828054600181600116156101000203166002900490600052602060002090601f016020900481019282601f10612a6757805160ff1916838001178555612a95565b82800160010185558215612a95579182015b82811115612a94578251825591602001919060010190612a79565b5b509050612aa29190612aa6565b5090565b612ac891905b80821115612ac4576000816000905550600101612aac565b5090565b90565b6000612ad78235613497565b905092915050565b6000612aeb82356134a9565b905092915050565b6000612aff82356134bb565b905092915050565b600082601f8301121515612b1a57600080fd5b8135612b2d612b288261338c565b61335f565b91508082526020830160208301858383011115612b4957600080fd5b612b54838284613507565b50505092915050565b6000612b6982356134c7565b905092915050565b600060208284031215612b8357600080fd5b6000612b9184828501612acb565b91505092915050565b600060208284031215612bac57600080fd5b6000612bba84828501612adf565b91505092915050565b600060208284031215612bd557600080fd5b600082013567ffffffffffffffff811115612bef57600080fd5b612bfb84828501612b07565b91505092915050565b600060208284031215612c1657600080fd5b6000612c2484828501612b5d565b91505092915050565b60008060408385031215612c4057600080fd5b6000612c4e85828601612b5d565b9250506020612c5f85828601612af3565b9150509250929050565b60008060408385031215612c7c57600080fd5b6000612c8a85828601612b5d565b925050602083013567ffffffffffffffff811115612ca757600080fd5b612cb385828601612b07565b9150509250929050565b60008060408385031215612cd057600080fd5b6000612cde85828601612b5d565b9250506020612cef85828601612b5d565b9150509250929050565b600080600060608486031215612d0e57600080fd5b6000612d1c86828701612b5d565b9350506020612d2d86828701612b5d565b9250506040612d3e86828701612acb565b9150509250925092565b612d51816134d1565b82525050565b612d608161344f565b82525050565b612d6f8161343d565b82525050565b6000612d80826133df565b80845260208401935083602082028501612d99856133b8565b60005b84811015612dd2578383038852612db4838351612f04565b9250612dbf82613416565b9150602088019750600181019050612d9c565b508196508694505050505092915050565b6000612dee826133ea565b80845260208401935083602082028501612e07856133c5565b60005b84811015612e40578383038852612e22838351612fce565b9250612e2d82613423565b9150602088019750600181019050612e0a565b508196508694505050505092915050565b6000612e5c826133f5565b80845260208401935083602082028501612e75856133d2565b60005b84811015612eae578383038852612e90838351613057565b9250612e9b82613430565b9150602088019750600181019050612e78565b508196508694505050505092915050565b612ec881613461565b82525050565b6000612ed98261340b565b808452612eed816020860160208601613516565b612ef681613549565b602085010191505092915050565b6000612f0f82613400565b808452612f23816020860160208601613516565b612f2c81613549565b602085010191505092915050565b6000602682527f4f776e61626c653a206e6577206f776e657220697320746865207a65726f206160208301527f64647265737300000000000000000000000000000000000000000000000000006040830152606082019050919050565b6000602082527f4f776e61626c653a2063616c6c6572206973206e6f7420746865206f776e65726020830152604082019050919050565b600060c083016000830151612fe66000860182613094565b506020830151612ff96020860182613094565b50604083015184820360408601526130118282612f04565b91505060608301516130266060860182613094565b5060808301516130396080860182613094565b5060a083015161304c60a0860182612ebf565b508091505092915050565b600060408301600083015184820360008601526130748282612f04565b91505060208301516130896020860182612d66565b508091505092915050565b61309d8161348d565b82525050565b60006020820190506130b86000830184612d66565b92915050565b60006020820190506130d36000830184612d57565b92915050565b60006060820190506130ee6000830186612d48565b6130fb6020830185612d48565b6131086040830184613094565b949350505050565b6000602082019050818103600083015261312a8184612d75565b905092915050565b6000602082019050818103600083015261314c8184612de3565b905092915050565b6000602082019050818103600083015261316e8184612e51565b905092915050565b600060208201905061318b6000830184612ebf565b92915050565b600060208201905081810360008301526131ab8184612ece565b905092915050565b600060408201905081810360008301526131cd8185612f04565b90506131dc6020830184612d66565b9392505050565b600060208201905081810360008301526131fc81612f3a565b9050919050565b6000602082019050818103600083015261321c81612f97565b9050919050565b60006020820190506132386000830184613094565b92915050565b60006040820190506132536000830185613094565b6132606020830184612d66565b9392505050565b600060408201905061327c6000830185613094565b6132896020830184612d48565b9392505050565b60006040820190506132a56000830185613094565b81810360208301526132b78184612ece565b90509392505050565b60006060820190506132d56000830186613094565b6132e26020830185613094565b6132ef6040830184612ebf565b949350505050565b600060c08201905061330c6000830189613094565b6133196020830188613094565b818103604083015261332b8187612f04565b905061333a6060830186613094565b6133476080830185613094565b61335460a0830184612ebf565b979650505050505050565b6000604051905081810181811067ffffffffffffffff8211171561338257600080fd5b8060405250919050565b600067ffffffffffffffff8211156133a357600080fd5b601f19601f8301169050602081019050919050565b6000602082019050919050565b6000602082019050919050565b6000602082019050919050565b600081519050919050565b600081519050919050565b600081519050919050565b600081519050919050565b600081519050919050565b6000602082019050919050565b6000602082019050919050565b6000602082019050919050565b60006134488261346d565b9050919050565b600061345a8261346d565b9050919050565b60008115159050919050565b600073ffffffffffffffffffffffffffffffffffffffff82169050919050565b6000819050919050565b60006134a28261346d565b9050919050565b60006134b48261346d565b9050919050565b60008115159050919050565b6000819050919050565b60006134dc826134e3565b9050919050565b60006134ee826134f5565b9050919050565b60006135008261346d565b9050919050565b82818337600083830152505050565b60005b83811015613534578082015181840152602081019050613519565b83811115613543576000848401525b50505050565b6000601f19601f830116905091905056fea265627a7a72305820903c65324c4cbc57c90b45496c00b03b3fc7355b9f7c6cbf1d1c456565bb1b616c6578706572696d656e74616cf50037",
  "source": "pragma solidity ^0.5.0;\npragma experimental ABIEncoderV2;\n\nimport 'node_modules/openzeppelin-solidity/contracts/ownership/Ownable.sol';\n\ncontract game is Ownable{\n    /************************************* Global vars ***************************************/\n    uint public minimumBet; //min bet for a watcher to play the game\n    uint public requiredWatcherNumber = 3; //required number of watchers to play a dare\n\n    /************************************* Structs *******************************************/\n\n    struct User{\n        string nickName;\n        address Uaddress;\n    }\n    \n    struct Watcher{\n        uint BetAmount; \n        uint Poolkey;\n        bool vote ; // true if proof is acceptes and 0 if not\n    }\n    struct PrizePool{\n        uint PoolID;\n        uint TotalAmount;\n        string ProofID; // IPFS ID of the proof\n        uint DareKey;\n        uint NbWatchers;\n        bool state;\n    }\n     \n    /************************************* Arrays ***************************************/\n    mapping(address => PrizePool) public PLayedDare; // mapping (player => prizepool)\n    mapping(address => Watcher) public watcherInfo; // maaping(player-address => player-informations)\n    \n    //address[] public Users; // players are stored in blockchain as an array of adresses\n    address payable[] public watchers; // watchers are stored in blockchain as an array of payable adresses\n    address public player;\n    \n    mapping(uint => User) public Users;\n    uint[] UsersKeyList;\n    address payable[] public users;\n   /* mapping(uint => PrizePool) PrizePools;\n    uint[] PoolsKeyList;*/\n    PrizePool[] PrizePools;\n    mapping(uint => PrizePool) PoolKey;\n    mapping (uint => string) Dares; // mapping(Dare-key => Dare-description)\n    uint[] DaresKeyList; //array that store all Dares keys \n\n    /************************************* Events *******************************************/\n    event transferFund(address _sender,address _reciever,uint _amount);\n    event PoolCreated(uint PoolID,address _player);\n    event proofUpdated(uint _poolID,string _ipfsID);\n    \n\n    constructor()public {\n        User memory _user;\n        PrizePool memory _pool;\n        //Hard-coded list of dares for test\n        Dares[1]=\"Eat something and then talk with your mouth full\";\n        DaresKeyList.push(1);\n        Dares[2]=\"Fill your mouth with water and try singing a song\";\n        DaresKeyList.push(2);\n        Dares[3]=\"Call up your crush and declare your love for him\";\n        DaresKeyList.push(3);\n        Dares[4]=\"Make an obscene phone call to a random number\";\n        DaresKeyList.push(4);\n\n        //Hard-coded list of users\n        _user.nickName = 'abir';\n        _user.Uaddress = 0xbd291142E71c7278DE5eb82D7CddC53AE704e1fa;\n         Users[1] = _user;\n         UsersKeyList.push(1);\n         _user.nickName = 'hamza';\n        _user.Uaddress = 0xBB9bc244D798123fDe783fCc1C72d3Bb8C189413;\n         Users[2] = _user;\n         UsersKeyList.push(2);\n         _user.nickName = 'majd';\n        _user.Uaddress = 0xde0B295669a9FD93d5F28D9Ec85E40f4cb697BAe;\n         Users[3] = _user;\n         UsersKeyList.push(3);\n        // Initial Pool\n        _pool.PoolID = 0 ;\n        PrizePools.push(_pool);\n\n    }\n    function checkPlayerExists(address _player) private view returns(bool){\n        return _player == player;\n    }\n\n    modifier OnlyPlayer(){\n        require(checkPlayerExists(msg.sender));\n         _;\n    }\n    function checkUserExists(address _user) private view returns(bool){\n         for(uint i = 0; i < UsersKeyList.length; i++){\n            if(keccak256(abi.encode(Users[UsersKeyList[i]]))==keccak256(abi.encode(_user)) ){\n                return true;\n                break;\n            }\n    \n        }\n        return false;\n    }\n    modifier OnlyUser(){\n        require(checkUserExists(msg.sender));\n         _;\n    }\n    function checkWatcherExists(address _watcher) private view returns(bool){\n        for(uint i = 0; i < watchers.length; i++){\n            if(watchers[i] == _watcher) {\n                return true;\n                 break;\n            }\n        }\n        return false;\n    }\n  \n    modifier OnlyWatcher() {\n       require(checkWatcherExists(msg.sender));\n         _;\n    }\n    modifier ExceptWatcher() {\n       require(!checkWatcherExists(msg.sender));\n         _;\n    }\n   \n  \n  /// @dev function that returns all dares \n  /// @return array of string new experimental blockchain feature \n    function getDares()public view returns(string[] memory){\n      string[] memory _Dares = new string[](DaresKeyList.length);\n       for(uint i = 0; i < DaresKeyList.length; i++){\n           _Dares[i] = Dares[DaresKeyList[i]];\n       }\n       return _Dares;\n    }\n   /// @dev function that returns key of selected dare\n  /// @return uint=key in mapping(key => dare)\n    function getDareKey(string memory _dare) public view returns(uint){\n     uint _key;\n        for(uint i = 0; i < DaresKeyList.length; i++){\n             _key = DaresKeyList[i];\n            if(keccak256(abi.encodePacked(Dares[_key]))==keccak256(abi.encodePacked(_dare)) )\n            break;\n        }\n        return _key;\n    }\n    function getDareByKey(uint _key) private view returns(string memory){\n       return Dares[_key];\n    }  \n    function getUsers()public view returns(User[] memory){\n        User[] memory _users = new User[](UsersKeyList.length);\n          for(uint i = 0; i < UsersKeyList.length; i++){\n           _users[i] = Users[UsersKeyList[i]];\n          }\n       return _users;\n    }\n\n    function createWatcher(uint _BetAmount,uint _Poolkey,address payable _address)private {\n     Watcher memory _watcher;\n     _watcher.BetAmount = _BetAmount;\n     _watcher.Poolkey = _Poolkey;\n     watcherInfo[_address]=_watcher;\n     watchers.push(_address);\n     \n    }\n    function dareYou(uint _BetAmount,uint _DareKey,address _player) public payable returns(bool){\n        //require(_BetAmount>minimumBet);\n        PrizePool memory _Pool;\n        //create the new prizepool\n        _Pool.PoolID = PrizePools.length;\n        _Pool.TotalAmount +=_BetAmount;\n        _Pool.DareKey = _DareKey;\n        _Pool.NbWatchers ++;\n        _Pool.state = true;\n        //store the new prizepool\n         PrizePools.push(_Pool);\n         PoolKey[_Pool.PoolID] = _Pool;\n        // create new watcher\n        createWatcher(_BetAmount,_Pool.PoolID,msg.sender);\n        // associate the game with the player\n        PLayedDare[_player] = _Pool;\n        emit PoolCreated(_Pool.PoolID,_player);\n        return true;\n    }\n    function update(PrizePool[] storage _pools,uint _betAmount,uint _poolID)internal returns(bool){\n          \n           for(uint i = 0; i < PrizePools.length; i++){\n             if(_pools[i].PoolID == _poolID){\n               _pools[i].TotalAmount+=_betAmount;\n               _pools[i].NbWatchers++;\n               // create new watcher\n               createWatcher(_betAmount,_poolID,msg.sender);\n              }\n            }\n          return true;\n    }\n    function joinDare(uint _poolID,uint _betAmount)public payable returns(bool ){\n       update(PrizePools,_betAmount,_poolID);\n      return true;\n      \n    }\n    \n    function dareMe(uint _BetAmount,uint  _DareKey) public payable returns(bool){\n        //require(_BetAmount>minimumBet);\n        PrizePool memory _Pool;\n        //create the new prizepool\n        _Pool.PoolID = PrizePools.length;\n        _Pool.TotalAmount +=_BetAmount;\n        _Pool.DareKey = _DareKey;\n        _Pool.state = true;\n        //store the new prizepool\n         PrizePools.push(_Pool);\n         PoolKey[PrizePools.length] = _Pool;\n        // associate the game with the player\n        PLayedDare[msg.sender] = _Pool;\n        emit PoolCreated(PrizePools.length,msg.sender);\n        return true;\n    }\n    // get all active dares\n     function getPools()public view returns(PrizePool[] memory ){\n        PrizePool[] memory _pools = new PrizePool[](PrizePools.length);\n       for(uint i = 0; i < PrizePools.length; i++){\n           _pools[i] = PrizePools[i];\n       }\n       return _pools;\n    \n    }  \n// get active dares for a selected player\n    function getMyDares() public view returns(PrizePool[] memory ){\n      PrizePool[] memory _pools = new PrizePool[](PrizePools.length);\n       for(uint i = 0; i < PrizePools.length; i++){\n           if(PLayedDare[msg.sender].PoolID == PrizePools[i].PoolID)\n           _pools[i] = PrizePools[i];\n       }\n       return _pools;\n\n    }\n// 4 functions to get dare informations\n    function getActiveDareName(uint _pool) public view returns(string memory){\n        uint _dareID;\n        for(uint i = 0; i < PrizePools.length; i++){\n           if(PrizePools[i].PoolID == _pool){\n              _dareID = PrizePools[i].DareKey;\n           }\n       }\n       return Dares[_dareID];\n     } \n    function getActiveDarePlayer(uint _pool) public view returns(string memory){\n      string memory _player;\n        for(uint i = 0; i < UsersKeyList.length; i++){\n           if(PLayedDare[Users[UsersKeyList[i]].Uaddress].PoolID == _pool){\n              _player = Users[UsersKeyList[i]].nickName;\n           }\n       }\n       return _player;\n    }\n\n      function getActiveDareAmount(uint _pool) public view returns(uint){\n        uint _totalAMount;\n        for(uint i = 0; i < PrizePools.length; i++){\n           if(PrizePools[i].PoolID == _pool){\n              _totalAMount = PrizePools[i].TotalAmount;\n           }\n       }\n       return _totalAMount;\n     } \n       function getActiveDareProof(uint _pool) public view returns(string memory){\n        string memory _proof;\n        for(uint i = 0; i < PrizePools.length; i++){\n           if(PrizePools[i].PoolID == _pool){\n              _proof = PrizePools[i].ProofID;\n           }\n       }\n       return _proof;\n     } \n       function getActiveDareNBwatchers(uint _pool) public view returns(uint){\n        uint _nbWatchers;\n        for(uint i = 0; i < PrizePools.length; i++){\n           if(PrizePools[i].PoolID == _pool){\n              _nbWatchers = PrizePools[i].NbWatchers;\n           }\n       }\n       return _nbWatchers;\n     } \n\n  \n    function updateProof(PrizePool[] storage _pools,uint _poolID,string memory _ipfsID)internal {\n        \n           for(uint i = 0; i < PrizePools.length; i++){\n             if(_pools[i].PoolID == _poolID){\n               _pools[i].ProofID = _ipfsID;\n                _pools[i].state = false;\n              }\n            }\n    }\n    \n    function setProof(uint _poolID,string memory _ipfsID)public payable returns(bool){\n        updateProof(PrizePools,_poolID,_ipfsID);\n        emit proofUpdated(_poolID,_ipfsID);\n        return true;\n\n    }\n    function getProof(uint _poolID)public view returns(string memory){\n        for(uint i = 0; i < PrizePools.length; i++){\n             if(PrizePools[i].PoolID == _poolID){\n               return PrizePools[i].ProofID ;\n              }\n            }\n    }\n    function vote(uint _poolID,bool _vote)public payable returns(bool) {\n\n          updateVote(watcherInfo[msg.sender],_vote);\n          //emit voteUpdated();\n          return true;\n    }\n    function updateVote(Watcher storage _watcher,bool _vote)internal {\n             _watcher.vote = _vote;\n    }\n    function AdminVote(uint  _poolId)internal returns(bool){\n        return true;\n    }\n    function distributePrizes(uint _poolID) public payable returns(bool){\n        bool _closedGame=true;\n        uint _nbVote=0;\n        uint part=0;\n        for(uint i = 0; i < PrizePools.length; i++){\n            if((PrizePools[i].PoolID == _poolID)&&(PrizePools[i].state == false))\n               _closedGame=false;\n              \n        }\n        if(!_closedGame){\n            for(uint i = 0; i < watchers.length; i++){ \n              if(watcherInfo[watchers[i]].vote == true) \n                  _nbVote++;\n            }\n        }\n        if((_nbVote > watchers.length/2)||(AdminVote(_poolID))){\n            for(uint i = 0; i < users.length; i++){ \n              if(PLayedDare[users[i]].PoolID == _poolID) \n                  users[i].transfer(PLayedDare[users[i]].TotalAmount);\n            }\n        }\n        else{\n          for(uint i = 0; i < users.length; i++){ \n             if(PLayedDare[users[i]].PoolID == _poolID)\n                part=PLayedDare[users[i]].TotalAmount/watchers.length;\n          }\n          for(uint i = 0; i < watchers.length; i++){ \n               watchers[i].transfer(part);\n            }\n        }\n           \n    } \n\n    function getBalance() public view returns(uint){\n         return (msg.sender.balance);\n    }\n    function send(address payable _reciever) public payable returns(bool){\n        _reciever.transfer(msg.value);\n        emit transferFund(msg.sender,_reciever,msg.value);\n        return true;\n    }\n        // Fallback function in case someone sends ether to the contract so it doesn't get lost and to increase the treasury of this contract that will be distributed in each game\n    function() external payable {}\n}",
  "sourcePath": "/home/abir/Nerve-Project/contracts/game.sol",
  "compiler": {
    "name": "solc",
    "version": "0.5.0+commit.1d4f565a.Emscripten.clang"
  },
  "schemaVersion": "3.0.2",
  "updatedAt": "2019-06-15T21:33:22.560Z",
  "devdoc": {
    "methods": {
      "getDareKey(string)": {
        "details": "function that returns key of selected dare",
        "return": "uint=key in mapping(key => dare)"
      },
      "getDares()": {
        "details": "function that returns all dares ",
        "return": "array of string new experimental blockchain feature "
      },
      "isOwner()": {
        "details": "Returns true if the caller is the current owner."
      },
      "owner()": {
        "details": "Returns the address of the current owner."
      },
      "renounceOwnership()": {
        "details": "Leaves the contract without owner. It will not be possible to call `onlyOwner` functions anymore. Can only be called by the current owner.     * > Note: Renouncing ownership will leave the contract without an owner, thereby removing any functionality that is only available to the owner."
      },
      "transferOwnership(address)": {
        "details": "Transfers ownership of the contract to a new account (`newOwner`). Can only be called by the current owner."
      }
    }
  },
  "userdoc": {
    "methods": {}
  }
}