{
  "contractName": "game",
  "abi": [
    {
      "constant": true,
      "inputs": [
        {
          "name": "",
          "type": "address"
        }
      ],
      "name": "watcherInfo",
      "outputs": [
        {
          "name": "BetAmount",
          "type": "uint256"
        },
        {
          "name": "Poolkey",
          "type": "uint256"
        },
        {
          "name": "vote",
          "type": "bool"
        }
      ],
      "payable": false,
      "stateMutability": "view",
      "type": "function",
      "signature": "0x0d67269d"
    },
    {
      "constant": true,
      "inputs": [
        {
          "name": "",
          "type": "uint256"
        }
      ],
      "name": "Users",
      "outputs": [
        {
          "name": "nickName",
          "type": "string"
        },
        {
          "name": "Uaddress",
          "type": "address"
        }
      ],
      "payable": false,
      "stateMutability": "view",
      "type": "function",
      "signature": "0x1e98fd1c"
    },
    {
      "constant": true,
      "inputs": [],
      "name": "player",
      "outputs": [
        {
          "name": "",
          "type": "address"
        }
      ],
      "payable": false,
      "stateMutability": "view",
      "type": "function",
      "signature": "0x48db5f89"
    },
    {
      "constant": false,
      "inputs": [],
      "name": "renounceOwnership",
      "outputs": [],
      "payable": false,
      "stateMutability": "nonpayable",
      "type": "function",
      "signature": "0x715018a6"
    },
    {
      "constant": true,
      "inputs": [],
      "name": "owner",
      "outputs": [
        {
          "name": "",
          "type": "address"
        }
      ],
      "payable": false,
      "stateMutability": "view",
      "type": "function",
      "signature": "0x8da5cb5b"
    },
    {
      "constant": true,
      "inputs": [],
      "name": "isOwner",
      "outputs": [
        {
          "name": "",
          "type": "bool"
        }
      ],
      "payable": false,
      "stateMutability": "view",
      "type": "function",
      "signature": "0x8f32d59b"
    },
    {
      "constant": true,
      "inputs": [],
      "name": "requiredWatcherNumber",
      "outputs": [
        {
          "name": "",
          "type": "uint256"
        }
      ],
      "payable": false,
      "stateMutability": "view",
      "type": "function",
      "signature": "0xa12258ce"
    },
    {
      "constant": true,
      "inputs": [],
      "name": "minimumBet",
      "outputs": [
        {
          "name": "",
          "type": "uint256"
        }
      ],
      "payable": false,
      "stateMutability": "view",
      "type": "function",
      "signature": "0xc38a8afd"
    },
    {
      "constant": true,
      "inputs": [
        {
          "name": "",
          "type": "uint256"
        }
      ],
      "name": "watchers",
      "outputs": [
        {
          "name": "",
          "type": "address"
        }
      ],
      "payable": false,
      "stateMutability": "view",
      "type": "function",
      "signature": "0xcabe05f2"
    },
    {
      "constant": false,
      "inputs": [
        {
          "name": "newOwner",
          "type": "address"
        }
      ],
      "name": "transferOwnership",
      "outputs": [],
      "payable": false,
      "stateMutability": "nonpayable",
      "type": "function",
      "signature": "0xf2fde38b"
    },
    {
      "constant": true,
      "inputs": [
        {
          "name": "",
          "type": "address"
        }
      ],
      "name": "PLayedDare",
      "outputs": [
        {
          "name": "PoolID",
          "type": "uint256"
        },
        {
          "name": "TotalAmount",
          "type": "uint256"
        },
        {
          "name": "ProofID",
          "type": "string"
        },
        {
          "name": "DareKey",
          "type": "uint256"
        },
        {
          "name": "NbWatchers",
          "type": "uint256"
        },
        {
          "name": "state",
          "type": "bool"
        }
      ],
      "payable": false,
      "stateMutability": "view",
      "type": "function",
      "signature": "0xfce56468"
    },
    {
      "inputs": [],
      "payable": false,
      "stateMutability": "nonpayable",
      "type": "constructor",
      "signature": "constructor"
    },
    {
      "payable": true,
      "stateMutability": "payable",
      "type": "fallback"
    },
    {
      "anonymous": false,
      "inputs": [
        {
          "indexed": false,
          "name": "_sender",
          "type": "address"
        },
        {
          "indexed": false,
          "name": "_reciever",
          "type": "address"
        },
        {
          "indexed": false,
          "name": "_amount",
          "type": "uint256"
        }
      ],
      "name": "transferFund",
      "type": "event",
      "signature": "0x62d5969633e8a33eb6c8ce39af086f3abf04daa520b3858a6f1acbc0073e9ef9"
    },
    {
      "anonymous": false,
      "inputs": [
        {
          "indexed": false,
          "name": "PoolID",
          "type": "uint256"
        },
        {
          "indexed": false,
          "name": "_player",
          "type": "address"
        }
      ],
      "name": "PoolCreated",
      "type": "event",
      "signature": "0x65fc0eb45954044fb55e1b01344d5d72fbfdf88e732d955f73bb7fb2bcc131e9"
    },
    {
      "anonymous": false,
      "inputs": [
        {
          "indexed": false,
          "name": "_poolID",
          "type": "uint256"
        },
        {
          "indexed": false,
          "name": "_ipfsID",
          "type": "string"
        }
      ],
      "name": "proofUpdated",
      "type": "event",
      "signature": "0xdff8ff842f09174143526d155ab2e4621b55eea05415f0f7389dbd0826bb6ad1"
    },
    {
      "anonymous": false,
      "inputs": [
        {
          "indexed": true,
          "name": "previousOwner",
          "type": "address"
        },
        {
          "indexed": true,
          "name": "newOwner",
          "type": "address"
        }
      ],
      "name": "OwnershipTransferred",
      "type": "event",
      "signature": "0x8be0079c531659141344cd1fd0a4f28419497f9722a3daafe3b4186f6b6457e0"
    },
    {
      "constant": true,
      "inputs": [],
      "name": "getDares",
      "outputs": [
        {
          "name": "",
          "type": "string[]"
        }
      ],
      "payable": false,
      "stateMutability": "view",
      "type": "function",
      "signature": "0x25a21701"
    },
    {
      "constant": true,
      "inputs": [
        {
          "name": "_dare",
          "type": "string"
        }
      ],
      "name": "getDareKey",
      "outputs": [
        {
          "name": "",
          "type": "uint256"
        }
      ],
      "payable": false,
      "stateMutability": "view",
      "type": "function",
      "signature": "0x6fdbdbec"
    },
    {
      "constant": true,
      "inputs": [],
      "name": "getUsers",
      "outputs": [
        {
          "components": [
            {
              "name": "nickName",
              "type": "string"
            },
            {
              "name": "Uaddress",
              "type": "address"
            }
          ],
          "name": "",
          "type": "tuple[]"
        }
      ],
      "payable": false,
      "stateMutability": "view",
      "type": "function",
      "signature": "0x00ce8e3e"
    },
    {
      "constant": false,
      "inputs": [
        {
          "name": "_BetAmount",
          "type": "uint256"
        },
        {
          "name": "_DareKey",
          "type": "uint256"
        },
        {
          "name": "_player",
          "type": "address"
        }
      ],
      "name": "dareYou",
      "outputs": [
        {
          "name": "",
          "type": "bool"
        }
      ],
      "payable": true,
      "stateMutability": "payable",
      "type": "function",
      "signature": "0x52cf2cc4"
    },
    {
      "constant": false,
      "inputs": [
        {
          "name": "_poolID",
          "type": "uint256"
        },
        {
          "name": "_betAmount",
          "type": "uint256"
        }
      ],
      "name": "joinDare",
      "outputs": [
        {
          "name": "",
          "type": "bool"
        }
      ],
      "payable": true,
      "stateMutability": "payable",
      "type": "function",
      "signature": "0x86f69a3a"
    },
    {
      "constant": false,
      "inputs": [
        {
          "name": "_BetAmount",
          "type": "uint256"
        },
        {
          "name": "_DareKey",
          "type": "uint256"
        }
      ],
      "name": "dareMe",
      "outputs": [
        {
          "name": "",
          "type": "bool"
        }
      ],
      "payable": true,
      "stateMutability": "payable",
      "type": "function",
      "signature": "0x27b852ed"
    },
    {
      "constant": true,
      "inputs": [],
      "name": "getPools",
      "outputs": [
        {
          "components": [
            {
              "name": "PoolID",
              "type": "uint256"
            },
            {
              "name": "TotalAmount",
              "type": "uint256"
            },
            {
              "name": "ProofID",
              "type": "string"
            },
            {
              "name": "DareKey",
              "type": "uint256"
            },
            {
              "name": "NbWatchers",
              "type": "uint256"
            },
            {
              "name": "state",
              "type": "bool"
            }
          ],
          "name": "",
          "type": "tuple[]"
        }
      ],
      "payable": false,
      "stateMutability": "view",
      "type": "function",
      "signature": "0x673a2a1f"
    },
    {
      "constant": true,
      "inputs": [],
      "name": "getMyDares",
      "outputs": [
        {
          "components": [
            {
              "name": "PoolID",
              "type": "uint256"
            },
            {
              "name": "TotalAmount",
              "type": "uint256"
            },
            {
              "name": "ProofID",
              "type": "string"
            },
            {
              "name": "DareKey",
              "type": "uint256"
            },
            {
              "name": "NbWatchers",
              "type": "uint256"
            },
            {
              "name": "state",
              "type": "bool"
            }
          ],
          "name": "",
          "type": "tuple[]"
        }
      ],
      "payable": false,
      "stateMutability": "view",
      "type": "function",
      "signature": "0x0a53cf54"
    },
    {
      "constant": true,
      "inputs": [
        {
          "name": "_pool",
          "type": "uint256"
        }
      ],
      "name": "getActiveDareName",
      "outputs": [
        {
          "name": "",
          "type": "string"
        }
      ],
      "payable": false,
      "stateMutability": "view",
      "type": "function",
      "signature": "0xaaed1214"
    },
    {
      "constant": true,
      "inputs": [
        {
          "name": "_pool",
          "type": "uint256"
        }
      ],
      "name": "getActiveDarePlayer",
      "outputs": [
        {
          "name": "",
          "type": "string"
        }
      ],
      "payable": false,
      "stateMutability": "view",
      "type": "function",
      "signature": "0xacc1ec43"
    },
    {
      "constant": true,
      "inputs": [
        {
          "name": "_pool",
          "type": "uint256"
        }
      ],
      "name": "getActiveDareAmount",
      "outputs": [
        {
          "name": "",
          "type": "uint256"
        }
      ],
      "payable": false,
      "stateMutability": "view",
      "type": "function",
      "signature": "0xa8d24e78"
    },
    {
      "constant": true,
      "inputs": [
        {
          "name": "_pool",
          "type": "uint256"
        }
      ],
      "name": "getActiveDareProof",
      "outputs": [
        {
          "name": "",
          "type": "string"
        }
      ],
      "payable": false,
      "stateMutability": "view",
      "type": "function",
      "signature": "0x1d62d0cc"
    },
    {
      "constant": true,
      "inputs": [
        {
          "name": "_pool",
          "type": "uint256"
        }
      ],
      "name": "getActiveDareNBwatchers",
      "outputs": [
        {
          "name": "",
          "type": "uint256"
        }
      ],
      "payable": false,
      "stateMutability": "view",
      "type": "function",
      "signature": "0xcc4be5f6"
    },
    {
      "constant": true,
      "inputs": [],
      "name": "getBalance",
      "outputs": [
        {
          "name": "",
          "type": "uint256"
        }
      ],
      "payable": false,
      "stateMutability": "view",
      "type": "function",
      "signature": "0x12065fe0"
    },
    {
      "constant": false,
      "inputs": [
        {
          "name": "_reciever",
          "type": "address"
        }
      ],
      "name": "send",
      "outputs": [
        {
          "name": "",
          "type": "bool"
        }
      ],
      "payable": true,
      "stateMutability": "payable",
      "type": "function",
      "signature": "0x3e58c58c"
    },
    {
      "constant": false,
      "inputs": [
        {
          "name": "_poolID",
          "type": "uint256"
        },
        {
          "name": "_ipfsID",
          "type": "string"
        }
      ],
      "name": "setProof",
      "outputs": [
        {
          "name": "",
          "type": "bool"
        }
      ],
      "payable": true,
      "stateMutability": "payable",
      "type": "function",
      "signature": "0xf683a3b9"
    },
    {
      "constant": true,
      "inputs": [
        {
          "name": "_poolID",
          "type": "uint256"
        }
      ],
      "name": "getProof",
      "outputs": [
        {
          "name": "",
          "type": "string"
        }
      ],
      "payable": false,
      "stateMutability": "view",
      "type": "function",
      "signature": "0x11149ada"
    },
    {
      "constant": false,
      "inputs": [
        {
          "name": "_poolID",
          "type": "uint256"
        },
        {
          "name": "_vote",
          "type": "bool"
        }
      ],
      "name": "vote",
      "outputs": [
        {
          "name": "",
          "type": "bool"
        }
      ],
      "payable": true,
      "stateMutability": "payable",
      "type": "function",
      "signature": "0xc9d27afe"
    },
    {
      "constant": false,
      "inputs": [
        {
          "name": "_poolID",
          "type": "uint256"
        }
      ],
      "name": "distributePrizes",
      "outputs": [],
      "payable": false,
      "stateMutability": "nonpayable",
      "type": "function",
      "signature": "0x6ca3fc3b"
    }
  ],
  "bytecode": "0x608060405260036002553480156200001657600080fd5b50336000806101000a81548173ffffffffffffffffffffffffffffffffffffffff021916908373ffffffffffffffffffffffffffffffffffffffff1602179055506000809054906101000a900473ffffffffffffffffffffffffffffffffffffffff1673ffffffffffffffffffffffffffffffffffffffff16600073ffffffffffffffffffffffffffffffffffffffff167f8be0079c531659141344cd1fd0a4f28419497f9722a3daafe3b4186f6b6457e060405160405180910390a3620000dd62000801565b620000e762000831565b606060405190810160405280603081526020017f45617420736f6d657468696e6720616e64207468656e2074616c6b207769746881526020017f20796f7572206d6f7574682066756c6c00000000000000000000000000000000815250600b60006001815260200190815260200160002090805190602001906200016d9291906200086a565b50600c60019080600181540180825580915050906001820390600052602060002001600090919290919091505550606060405190810160405280603181526020017f46696c6c20796f7572206d6f757468207769746820776174657220616e64207481526020017f72792073696e67696e67206120736f6e67000000000000000000000000000000815250600b6000600281526020019081526020016000209080519060200190620002219291906200086a565b50600c60029080600181540180825580915050906001820390600052602060002001600090919290919091505550606060405190810160405280603081526020017f43616c6c20757020796f757220637275736820616e64206465636c617265207981526020017f6f7572206c6f766520666f722068696d00000000000000000000000000000000815250600b6000600381526020019081526020016000209080519060200190620002d59291906200086a565b50600c60039080600181540180825580915050906001820390600052602060002001600090919290919091505550606060405190810160405280602d81526020017f4d616b6520616e206f627363656e652070686f6e652063616c6c20746f20612081526020017f72616e646f6d206e756d62657200000000000000000000000000000000000000815250600b6000600481526020019081526020016000209080519060200190620003899291906200086a565b50600c600490806001815401808255809150509060018203906000526020600020016000909192909190915055506040805190810160405280600481526020017f6162697200000000000000000000000000000000000000000000000000000000815250826000018190525073bd291142e71c7278de5eb82d7cddc53ae704e1fa826020019073ffffffffffffffffffffffffffffffffffffffff16908173ffffffffffffffffffffffffffffffffffffffff1681525050816007600060018152602001908152602001600020600082015181600001908051906020019062000474929190620008f1565b5060208201518160010160006101000a81548173ffffffffffffffffffffffffffffffffffffffff021916908373ffffffffffffffffffffffffffffffffffffffff1602179055509050506008600190806001815401808255809150509060018203906000526020600020016000909192909190915055506040805190810160405280600581526020017f68616d7a61000000000000000000000000000000000000000000000000000000815250826000018190525073bb9bc244d798123fde783fcc1c72d3bb8c189413826020019073ffffffffffffffffffffffffffffffffffffffff16908173ffffffffffffffffffffffffffffffffffffffff16815250508160076000600281526020019081526020016000206000820151816000019080519060200190620005a9929190620008f1565b5060208201518160010160006101000a81548173ffffffffffffffffffffffffffffffffffffffff021916908373ffffffffffffffffffffffffffffffffffffffff1602179055509050506008600290806001815401808255809150509060018203906000526020600020016000909192909190915055506040805190810160405280600481526020017f6d616a6400000000000000000000000000000000000000000000000000000000815250826000018190525073de0b295669a9fd93d5f28d9ec85e40f4cb697bae826020019073ffffffffffffffffffffffffffffffffffffffff16908173ffffffffffffffffffffffffffffffffffffffff16815250508160076000600381526020019081526020016000206000820151816000019080519060200190620006de929190620008f1565b5060208201518160010160006101000a81548173ffffffffffffffffffffffffffffffffffffffff021916908373ffffffffffffffffffffffffffffffffffffffff16021790555090505060086003908060018154018082558091505090600182039060005260206000200160009091929091909150555060008160000181815250506009819080600181540180825580915050906001820390600052602060002090600602016000909192909190915060008201518160000155602082015181600101556040820151816002019080519060200190620007c1929190620008f1565b50606082015181600301556080820151816004015560a08201518160050160006101000a81548160ff0219169083151502179055505050505050620009a0565b604080519081016040528060608152602001600073ffffffffffffffffffffffffffffffffffffffff1681525090565b60c06040519081016040528060008152602001600081526020016060815260200160008152602001600081526020016000151581525090565b828054600181600116156101000203166002900490600052602060002090601f016020900481019282601f10620008ad57805160ff1916838001178555620008de565b82800160010185558215620008de579182015b82811115620008dd578251825591602001919060010190620008c0565b5b509050620008ed919062000978565b5090565b828054600181600116156101000203166002900490600052602060002090601f016020900481019282601f106200093457805160ff191683800117855562000965565b8280016001018555821562000965579182015b828111156200096457825182559160200191906001019062000947565b5b50905062000974919062000978565b5090565b6200099d91905b80821115620009995760008160009055506001016200097f565b5090565b90565b612ff180620009b06000396000f3fe60806040526004361061017f576000357c0100000000000000000000000000000000000000000000000000000000900463ffffffff168062ce8e3e146101815780630a53cf54146101ac5780630d67269d146101d757806311149ada1461021657806312065fe0146102535780631d62d0cc1461027e5780631e98fd1c146102bb57806325a21701146102f957806327b852ed146103245780633e58c58c1461035457806348db5f891461038457806352cf2cc4146103af578063673a2a1f146103df5780636ca3fc3b1461040a5780636fdbdbec14610433578063715018a61461047057806386f69a3a146104875780638da5cb5b146104b75780638f32d59b146104e2578063a12258ce1461050d578063a8d24e7814610538578063aaed121414610575578063acc1ec43146105b2578063c38a8afd146105ef578063c9d27afe1461061a578063cabe05f21461064a578063cc4be5f614610687578063f2fde38b146106c4578063f683a3b9146106ed578063fce564681461071d575b005b34801561018d57600080fd5b5061019661075f565b6040516101a39190612bb1565b60405180910390f35b3480156101b857600080fd5b506101c1610916565b6040516101ce9190612b8f565b60405180910390f35b3480156101e357600080fd5b506101fe60048036036101f991908101906125ce565b610b17565b60405161020d93929190612d1d565b60405180910390f35b34801561022257600080fd5b5061023d60048036036102389190810190612661565b610b4e565b60405161024a9190612bee565b60405180910390f35b34801561025f57600080fd5b50610268610c60565b6040516102759190612c80565b60405180910390f35b34801561028a57600080fd5b506102a560048036036102a09190810190612661565b610c7f565b6040516102b29190612bee565b60405180910390f35b3480156102c757600080fd5b506102e260048036036102dd9190810190612661565b610d90565b6040516102f0929190612c10565b60405180910390f35b34801561030557600080fd5b5061030e610e6c565b60405161031b9190612b6d565b60405180910390f35b61033e6004803603610339919081019061271a565b610fb3565b60405161034b9190612bd3565b60405180910390f35b61036e600480360361036991908101906125f7565b6111ff565b60405161037b9190612bd3565b60405180910390f35b34801561039057600080fd5b5061039961128c565b6040516103a69190612b00565b60405180910390f35b6103c960048036036103c49190810190612756565b6112b2565b6040516103d69190612bd3565b60405180910390f35b3480156103eb57600080fd5b506103f461151c565b6040516104019190612b8f565b60405180910390f35b34801561041657600080fd5b50610431600480360361042c9190810190612661565b6116b2565b005b34801561043f57600080fd5b5061045a60048036036104559190810190612620565b6116b5565b6040516104679190612c80565b60405180910390f35b34801561047c57600080fd5b50610485611809565b005b6104a1600480360361049c919081019061271a565b611911565b6040516104ae9190612bd3565b60405180910390f35b3480156104c357600080fd5b506104cc61192a565b6040516104d99190612b00565b60405180910390f35b3480156104ee57600080fd5b506104f7611953565b6040516105049190612bd3565b60405180910390f35b34801561051957600080fd5b506105226119aa565b60405161052f9190612c80565b60405180910390f35b34801561054457600080fd5b5061055f600480360361055a9190810190612661565b6119b0565b60405161056c9190612c80565b60405180910390f35b34801561058157600080fd5b5061059c60048036036105979190810190612661565b611a29565b6040516105a99190612bee565b60405180910390f35b3480156105be57600080fd5b506105d960048036036105d49190810190612661565b611b4e565b6040516105e69190612bee565b60405180910390f35b3480156105fb57600080fd5b50610604611cdf565b6040516106119190612c80565b60405180910390f35b610634600480360361062f919081019061268a565b611ce5565b6040516106419190612bd3565b60405180910390f35b34801561065657600080fd5b50610671600480360361066c9190810190612661565b611d39565b60405161067e9190612b1b565b60405180910390f35b34801561069357600080fd5b506106ae60048036036106a99190810190612661565b611d77565b6040516106bb9190612c80565b60405180910390f35b3480156106d057600080fd5b506106eb60048036036106e691908101906125ce565b611df0565b005b610707600480360361070291908101906126c6565b611e45565b6040516107149190612bd3565b60405180910390f35b34801561072957600080fd5b50610744600480360361073f91908101906125ce565b611e96565b60405161075696959493929190612d54565b60405180910390f35b6060806008805490506040519080825280602002602001820160405280156107a157816020015b61078e61233d565b8152602001906001900390816107865790505b50905060008090505b60088054905081101561090e57600760006008838154811015156107ca57fe5b90600052602060002001548152602001908152602001600020604080519081016040529081600082018054600181600116156101000203166002900480601f0160208091040260200160405190810160405280929190818152602001828054600181600116156101000203166002900480156108875780601f1061085c57610100808354040283529160200191610887565b820191906000526020600020905b81548152906001019060200180831161086a57829003601f168201915b505050505081526020016001820160009054906101000a900473ffffffffffffffffffffffffffffffffffffffff1673ffffffffffffffffffffffffffffffffffffffff1673ffffffffffffffffffffffffffffffffffffffff168152505082828151811015156108f457fe5b9060200190602002018190525080806001019150506107aa565b508091505090565b60608060098054905060405190808252806020026020018201604052801561095857816020015b61094561236d565b81526020019060019003908161093d5790505b50905060008090505b600980549050811015610b0f5760098181548110151561097d57fe5b906000526020600020906006020160000154600360003373ffffffffffffffffffffffffffffffffffffffff1673ffffffffffffffffffffffffffffffffffffffff168152602001908152602001600020600001541415610b02576009818154811015156109e757fe5b906000526020600020906006020160c060405190810160405290816000820154815260200160018201548152602001600282018054600181600116156101000203166002900480601f016020809104026020016040519081016040528092919081815260200182805460018160011615610100020316600290048015610aae5780601f10610a8357610100808354040283529160200191610aae565b820191906000526020600020905b815481529060010190602001808311610a9157829003601f168201915b5050505050815260200160038201548152602001600482015481526020016005820160009054906101000a900460ff1615151515815250508282815181101515610af457fe5b906020019060200201819052505b8080600101915050610961565b508091505090565b60046020528060005260406000206000915090508060000154908060010154908060020160009054906101000a900460ff16905083565b606060008090505b600980549050811015610c595782600982815481101515610b7357fe5b9060005260206000209060060201600001541415610c4c57600981815481101515610b9a57fe5b90600052602060002090600602016002018054600181600116156101000203166002900480601f016020809104026020016040519081016040528092919081815260200182805460018160011615610100020316600290048015610c3f5780601f10610c1457610100808354040283529160200191610c3f565b820191906000526020600020905b815481529060010190602001808311610c2257829003601f168201915b5050505050915050610c5b565b8080600101915050610b56565b505b919050565b60003373ffffffffffffffffffffffffffffffffffffffff1631905090565b60608060008090505b600980549050811015610d865783600982815481101515610ca557fe5b9060005260206000209060060201600001541415610d7957600981815481101515610ccc57fe5b90600052602060002090600602016002018054600181600116156101000203166002900480601f016020809104026020016040519081016040528092919081815260200182805460018160011615610100020316600290048015610d715780601f10610d4657610100808354040283529160200191610d71565b820191906000526020600020905b815481529060010190602001808311610d5457829003601f168201915b505050505091505b8080600101915050610c88565b5080915050919050565b6007602052806000526040600020600091509050806000018054600181600116156101000203166002900480601f016020809104026020016040519081016040528092919081815260200182805460018160011615610100020316600290048015610e3c5780601f10610e1157610100808354040283529160200191610e3c565b820191906000526020600020905b815481529060010190602001808311610e1f57829003601f168201915b5050505050908060010160009054906101000a900473ffffffffffffffffffffffffffffffffffffffff16905082565b606080600c80549050604051908082528060200260200182016040528015610ea857816020015b6060815260200190600190039081610e935790505b50905060008090505b600c80549050811015610fab57600b6000600c83815481101515610ed157fe5b906000526020600020015481526020019081526020016000208054600181600116156101000203166002900480601f016020809104026020016040519081016040528092919081815260200182805460018160011615610100020316600290048015610f7e5780601f10610f5357610100808354040283529160200191610f7e565b820191906000526020600020905b815481529060010190602001808311610f6157829003601f168201915b50505050508282815181101515610f9157fe5b906020019060200201819052508080600101915050610eb1565b508091505090565b6000610fbd6123a6565b600980549050816000018181525050838160200181815101915081815250508281606001818152505060018160a001901515908115158152505060098190806001815401808255809150509060018203906000526020600020906006020160009091929091909150600082015181600001556020820151816001015560408201518160020190805190602001906110559291906123df565b50606082015181600301556080820151816004015560a08201518160050160006101000a81548160ff02191690831515021790555050505080600a60006009805490508152602001908152602001600020600082015181600001556020820151816001015560408201518160020190805190602001906110d69291906123df565b50606082015181600301556080820151816004015560a08201518160050160006101000a81548160ff02191690831515021790555090505080600360003373ffffffffffffffffffffffffffffffffffffffff1673ffffffffffffffffffffffffffffffffffffffff1681526020019081526020016000206000820151816000015560208201518160010155604082015181600201908051906020019061117e9291906123df565b50606082015181600301556080820151816004015560a08201518160050160006101000a81548160ff0219169083151502179055509050507f65fc0eb45954044fb55e1b01344d5d72fbfdf88e732d955f73bb7fb2bcc131e9600980549050336040516111ec929190612cc4565b60405180910390a1600191505092915050565b60008173ffffffffffffffffffffffffffffffffffffffff166108fc349081150290604051600060405180830381858888f19350505050158015611247573d6000803e3d6000fd5b507f62d5969633e8a33eb6c8ce39af086f3abf04daa520b3858a6f1acbc0073e9ef933833460405161127b93929190612b36565b60405180910390a160019050919050565b600660009054906101000a900473ffffffffffffffffffffffffffffffffffffffff1681565b60006112bc6123a6565b60098054905081600001818152505084816020018181510191508181525050838160600181815250508060800180518091906001018152505060018160a001901515908115158152505060098190806001815401808255809150509060018203906000526020600020906006020160009091929091909150600082015181600001556020820151816001015560408201518160020190805190602001906113649291906123df565b50606082015181600301556080820151816004015560a08201518160050160006101000a81548160ff02191690831515021790555050505080600a600083600001518152602001908152602001600020600082015181600001556020820151816001015560408201518160020190805190602001906113e49291906123df565b50606082015181600301556080820151816004015560a08201518160050160006101000a81548160ff02191690831515021790555090505061142b85826000015133611f77565b80600360008573ffffffffffffffffffffffffffffffffffffffff1673ffffffffffffffffffffffffffffffffffffffff1681526020019081526020016000206000820151816000015560208201518160010155604082015181600201908051906020019061149b9291906123df565b50606082015181600301556080820151816004015560a08201518160050160006101000a81548160ff0219169083151502179055509050507f65fc0eb45954044fb55e1b01344d5d72fbfdf88e732d955f73bb7fb2bcc131e9816000015184604051611508929190612c9b565b60405180910390a160019150509392505050565b60608060098054905060405190808252806020026020018201604052801561155e57816020015b61154b61236d565b8152602001906001900390816115435790505b50905060008090505b6009805490508110156116aa5760098181548110151561158357fe5b906000526020600020906006020160c060405190810160405290816000820154815260200160018201548152602001600282018054600181600116156101000203166002900480601f01602080910402602001604051908101604052809291908181526020018280546001816001161561010002031660029004801561164a5780601f1061161f5761010080835404028352916020019161164a565b820191906000526020600020905b81548152906001019060200180831161162d57829003601f168201915b5050505050815260200160038201548152602001600482015481526020016005820160009054906101000a900460ff161515151581525050828281518110151561169057fe5b906020019060200201819052508080600101915050611567565b508091505090565b50565b60008060008090505b600c805490508110156117ff57600c818154811015156116da57fe5b90600052602060002001549150836040516020018082805190602001908083835b60208310151561172057805182526020820191506020810190506020830392506116fb565b6001836020036101000a03801982511681845116808217855250505050505090500191505060405160208183030381529060405280519060200120600b600084815260200190815260200160002060405160200180828054600181600116156101000203166002900480156117cc5780601f106117aa5761010080835404028352918201916117cc565b820191906000526020600020905b8154815290600101906020018083116117b8575b50509150506040516020818303038152906040528051906020012014156117f2576117ff565b80806001019150506116be565b5080915050919050565b611811611953565b1515611852576040517f08c379a000000000000000000000000000000000000000000000000000000000815260040161184990612c60565b60405180910390fd5b600073ffffffffffffffffffffffffffffffffffffffff166000809054906101000a900473ffffffffffffffffffffffffffffffffffffffff1673ffffffffffffffffffffffffffffffffffffffff167f8be0079c531659141344cd1fd0a4f28419497f9722a3daafe3b4186f6b6457e060405160405180910390a360008060006101000a81548173ffffffffffffffffffffffffffffffffffffffff021916908373ffffffffffffffffffffffffffffffffffffffff160217905550565b600061191f60098385612076565b506001905092915050565b60008060009054906101000a900473ffffffffffffffffffffffffffffffffffffffff16905090565b60008060009054906101000a900473ffffffffffffffffffffffffffffffffffffffff1673ffffffffffffffffffffffffffffffffffffffff163373ffffffffffffffffffffffffffffffffffffffff1614905090565b60025481565b60008060008090505b600980549050811015611a1f57836009828154811015156119d657fe5b9060005260206000209060060201600001541415611a12576009818154811015156119fd57fe5b90600052602060002090600602016001015491505b80806001019150506119b9565b5080915050919050565b6060600080600090505b600980549050811015611a995783600982815481101515611a5057fe5b9060005260206000209060060201600001541415611a8c57600981815481101515611a7757fe5b90600052602060002090600602016003015491505b8080600101915050611a33565b50600b60008281526020019081526020016000208054600181600116156101000203166002900480601f016020809104026020016040519081016040528092919081815260200182805460018160011615610100020316600290048015611b415780601f10611b1657610100808354040283529160200191611b41565b820191906000526020600020905b815481529060010190602001808311611b2457829003601f168201915b5050505050915050919050565b60608060008090505b600880549050811015611cd557836003600060076000600886815481101515611b7c57fe5b9060005260206000200154815260200190815260200160002060010160009054906101000a900473ffffffffffffffffffffffffffffffffffffffff1673ffffffffffffffffffffffffffffffffffffffff1673ffffffffffffffffffffffffffffffffffffffff168152602001908152602001600020600001541415611cc85760076000600883815481101515611c1057fe5b906000526020600020015481526020019081526020016000206000018054600181600116156101000203166002900480601f016020809104026020016040519081016040528092919081815260200182805460018160011615610100020316600290048015611cc05780601f10611c9557610100808354040283529160200191611cc0565b820191906000526020600020905b815481529060010190602001808311611ca357829003601f168201915b505050505091505b8080600101915050611b57565b5080915050919050565b60015481565b6000611d2f600460003373ffffffffffffffffffffffffffffffffffffffff1673ffffffffffffffffffffffffffffffffffffffff16815260200190815260200160002083612133565b6001905092915050565b600581815481101515611d4857fe5b906000526020600020016000915054906101000a900473ffffffffffffffffffffffffffffffffffffffff1681565b60008060008090505b600980549050811015611de65783600982815481101515611d9d57fe5b9060005260206000209060060201600001541415611dd957600981815481101515611dc457fe5b90600052602060002090600602016004015491505b8080600101915050611d80565b5080915050919050565b611df8611953565b1515611e39576040517f08c379a0000000000000000000000000000000000000000000000000000000008152600401611e3090612c60565b60405180910390fd5b611e4281612153565b50565b6000611e5360098484612283565b7fdff8ff842f09174143526d155ab2e4621b55eea05415f0f7389dbd0826bb6ad18383604051611e84929190612ced565b60405180910390a16001905092915050565b6003602052806000526040600020600091509050806000015490806001015490806002018054600181600116156101000203166002900480601f016020809104026020016040519081016040528092919081815260200182805460018160011615610100020316600290048015611f4e5780601f10611f2357610100808354040283529160200191611f4e565b820191906000526020600020905b815481529060010190602001808311611f3157829003601f168201915b5050505050908060030154908060040154908060050160009054906101000a900460ff16905086565b611f7f61245f565b838160000181815250508281602001818152505080600460008473ffffffffffffffffffffffffffffffffffffffff1673ffffffffffffffffffffffffffffffffffffffff168152602001908152602001600020600082015181600001556020820151816001015560408201518160020160006101000a81548160ff02191690831515021790555090505060058290806001815401808255809150509060018203906000526020600020016000909192909190916101000a81548173ffffffffffffffffffffffffffffffffffffffff021916908373ffffffffffffffffffffffffffffffffffffffff1602179055505050505050565b600080600090505b6009805490508110156121275782858281548110151561209a57fe5b906000526020600020906006020160000154141561211a578385828154811015156120c157fe5b90600052602060002090600602016001016000828254019250508190555084818154811015156120ed57fe5b906000526020600020906006020160040160008154809291906001019190505550612119848433611f77565b5b808060010191505061207e565b50600190509392505050565b808260020160006101000a81548160ff0219169083151502179055505050565b600073ffffffffffffffffffffffffffffffffffffffff168173ffffffffffffffffffffffffffffffffffffffff16141515156121c5576040517f08c379a00000000000000000000000000000000000000000000000000000000081526004016121bc90612c40565b60405180910390fd5b8073ffffffffffffffffffffffffffffffffffffffff166000809054906101000a900473ffffffffffffffffffffffffffffffffffffffff1673ffffffffffffffffffffffffffffffffffffffff167f8be0079c531659141344cd1fd0a4f28419497f9722a3daafe3b4186f6b6457e060405160405180910390a3806000806101000a81548173ffffffffffffffffffffffffffffffffffffffff021916908373ffffffffffffffffffffffffffffffffffffffff16021790555050565b60008090505b600980549050811015612337578284828154811015156122a557fe5b906000526020600020906006020160000154141561232a578184828154811015156122cc57fe5b906000526020600020906006020160020190805190602001906122f0929190612483565b506000848281548110151561230157fe5b906000526020600020906006020160050160006101000a81548160ff0219169083151502179055505b8080600101915050612289565b50505050565b604080519081016040528060608152602001600073ffffffffffffffffffffffffffffffffffffffff1681525090565b60c06040519081016040528060008152602001600081526020016060815260200160008152602001600081526020016000151581525090565b60c06040519081016040528060008152602001600081526020016060815260200160008152602001600081526020016000151581525090565b828054600181600116156101000203166002900490600052602060002090601f016020900481019282601f1061242057805160ff191683800117855561244e565b8280016001018555821561244e579182015b8281111561244d578251825591602001919060010190612432565b5b50905061245b9190612503565b5090565b60606040519081016040528060008152602001600081526020016000151581525090565b828054600181600116156101000203166002900490600052602060002090601f016020900481019282601f106124c457805160ff19168380011785556124f2565b828001600101855582156124f2579182015b828111156124f15782518255916020019190600101906124d6565b5b5090506124ff9190612503565b5090565b61252591905b80821115612521576000816000905550600101612509565b5090565b90565b60006125348235612ef4565b905092915050565b60006125488235612f06565b905092915050565b600061255c8235612f18565b905092915050565b600082601f830112151561257757600080fd5b813561258a61258582612de9565b612dbc565b915080825260208301602083018583830111156125a657600080fd5b6125b1838284612f64565b50505092915050565b60006125c68235612f24565b905092915050565b6000602082840312156125e057600080fd5b60006125ee84828501612528565b91505092915050565b60006020828403121561260957600080fd5b60006126178482850161253c565b91505092915050565b60006020828403121561263257600080fd5b600082013567ffffffffffffffff81111561264c57600080fd5b61265884828501612564565b91505092915050565b60006020828403121561267357600080fd5b6000612681848285016125ba565b91505092915050565b6000806040838503121561269d57600080fd5b60006126ab858286016125ba565b92505060206126bc85828601612550565b9150509250929050565b600080604083850312156126d957600080fd5b60006126e7858286016125ba565b925050602083013567ffffffffffffffff81111561270457600080fd5b61271085828601612564565b9150509250929050565b6000806040838503121561272d57600080fd5b600061273b858286016125ba565b925050602061274c858286016125ba565b9150509250929050565b60008060006060848603121561276b57600080fd5b6000612779868287016125ba565b935050602061278a868287016125ba565b925050604061279b86828701612528565b9150509250925092565b6127ae81612f2e565b82525050565b6127bd81612eac565b82525050565b6127cc81612e9a565b82525050565b60006127dd82612e3c565b808452602084019350836020820285016127f685612e15565b60005b8481101561282f578383038852612811838351612961565b925061281c82612e73565b91506020880197506001810190506127f9565b508196508694505050505092915050565b600061284b82612e47565b8084526020840193508360208202850161286485612e22565b60005b8481101561289d57838303885261287f838351612a2b565b925061288a82612e80565b9150602088019750600181019050612867565b508196508694505050505092915050565b60006128b982612e52565b808452602084019350836020820285016128d285612e2f565b60005b8481101561290b5783830388526128ed838351612ab4565b92506128f882612e8d565b91506020880197506001810190506128d5565b508196508694505050505092915050565b61292581612ebe565b82525050565b600061293682612e68565b80845261294a816020860160208601612f73565b61295381612fa6565b602085010191505092915050565b600061296c82612e5d565b808452612980816020860160208601612f73565b61298981612fa6565b602085010191505092915050565b6000602682527f4f776e61626c653a206e6577206f776e657220697320746865207a65726f206160208301527f64647265737300000000000000000000000000000000000000000000000000006040830152606082019050919050565b6000602082527f4f776e61626c653a2063616c6c6572206973206e6f7420746865206f776e65726020830152604082019050919050565b600060c083016000830151612a436000860182612af1565b506020830151612a566020860182612af1565b5060408301518482036040860152612a6e8282612961565b9150506060830151612a836060860182612af1565b506080830151612a966080860182612af1565b5060a0830151612aa960a086018261291c565b508091505092915050565b60006040830160008301518482036000860152612ad18282612961565b9150506020830151612ae660208601826127c3565b508091505092915050565b612afa81612eea565b82525050565b6000602082019050612b1560008301846127c3565b92915050565b6000602082019050612b3060008301846127b4565b92915050565b6000606082019050612b4b60008301866127a5565b612b5860208301856127a5565b612b656040830184612af1565b949350505050565b60006020820190508181036000830152612b8781846127d2565b905092915050565b60006020820190508181036000830152612ba98184612840565b905092915050565b60006020820190508181036000830152612bcb81846128ae565b905092915050565b6000602082019050612be8600083018461291c565b92915050565b60006020820190508181036000830152612c08818461292b565b905092915050565b60006040820190508181036000830152612c2a8185612961565b9050612c3960208301846127c3565b9392505050565b60006020820190508181036000830152612c5981612997565b9050919050565b60006020820190508181036000830152612c79816129f4565b9050919050565b6000602082019050612c956000830184612af1565b92915050565b6000604082019050612cb06000830185612af1565b612cbd60208301846127c3565b9392505050565b6000604082019050612cd96000830185612af1565b612ce660208301846127a5565b9392505050565b6000604082019050612d026000830185612af1565b8181036020830152612d14818461292b565b90509392505050565b6000606082019050612d326000830186612af1565b612d3f6020830185612af1565b612d4c604083018461291c565b949350505050565b600060c082019050612d696000830189612af1565b612d766020830188612af1565b8181036040830152612d888187612961565b9050612d976060830186612af1565b612da46080830185612af1565b612db160a083018461291c565b979650505050505050565b6000604051905081810181811067ffffffffffffffff82111715612ddf57600080fd5b8060405250919050565b600067ffffffffffffffff821115612e0057600080fd5b601f19601f8301169050602081019050919050565b6000602082019050919050565b6000602082019050919050565b6000602082019050919050565b600081519050919050565b600081519050919050565b600081519050919050565b600081519050919050565b600081519050919050565b6000602082019050919050565b6000602082019050919050565b6000602082019050919050565b6000612ea582612eca565b9050919050565b6000612eb782612eca565b9050919050565b60008115159050919050565b600073ffffffffffffffffffffffffffffffffffffffff82169050919050565b6000819050919050565b6000612eff82612eca565b9050919050565b6000612f1182612eca565b9050919050565b60008115159050919050565b6000819050919050565b6000612f3982612f40565b9050919050565b6000612f4b82612f52565b9050919050565b6000612f5d82612eca565b9050919050565b82818337600083830152505050565b60005b83811015612f91578082015181840152602081019050612f76565b83811115612fa0576000848401525b50505050565b6000601f19601f830116905091905056fea265627a7a72305820eed0b50dd6e07d5864150e34b3c10f2d0833637b92de0ec0a63dc5455f533be96c6578706572696d656e74616cf50037",
  "source": "pragma solidity ^0.5.0;\npragma experimental ABIEncoderV2;\n\nimport 'node_modules/openzeppelin-solidity/contracts/ownership/Ownable.sol';\n\ncontract game is Ownable{\n    /************************************* Global vars ***************************************/\n    uint public minimumBet; //min bet for a watcher to play the game\n    uint public requiredWatcherNumber = 3; //required number of watchers to play a dare\n\n    /************************************* Structs *******************************************/\n\n    struct User{\n        string nickName;\n        address Uaddress;\n    }\n    \n    struct Watcher{\n        uint BetAmount; \n        uint Poolkey;\n        bool vote ; // true if proof is acceptes and 0 if not\n    }\n    struct PrizePool{\n        uint PoolID;\n        uint TotalAmount;\n        string ProofID; // IPFS ID of the proof\n        uint DareKey;\n        uint NbWatchers;\n        bool state;\n    }\n     \n    /************************************* Arrays ***************************************/\n    mapping(address => PrizePool) public PLayedDare; // mapping (player => prizepool)\n    mapping(address => Watcher) public watcherInfo; // maaping(player-address => player-informations)\n    \n    //address[] public Users; // players are stored in blockchain as an array of adresses\n    address payable[] public watchers; // watchers are stored in blockchain as an array of payable adresses\n    address public player;\n    \n    mapping(uint => User) public Users;\n    uint[] UsersKeyList;\n   /* mapping(uint => PrizePool) PrizePools;\n    uint[] PoolsKeyList;*/\n    PrizePool[] PrizePools;\n    mapping(uint => PrizePool) PoolKey;\n    mapping (uint => string) Dares; // mapping(Dare-key => Dare-description)\n    uint[] DaresKeyList; //array that store all Dares keys \n\n    /************************************* Events *******************************************/\n    event transferFund(address _sender,address _reciever,uint _amount);\n    event PoolCreated(uint PoolID,address _player);\n    event proofUpdated(uint _poolID,string _ipfsID);\n    \n\n    constructor()public {\n        User memory _user;\n        PrizePool memory _pool;\n        //Hard-coded list of dares for test\n        Dares[1]=\"Eat something and then talk with your mouth full\";\n        DaresKeyList.push(1);\n        Dares[2]=\"Fill your mouth with water and try singing a song\";\n        DaresKeyList.push(2);\n        Dares[3]=\"Call up your crush and declare your love for him\";\n        DaresKeyList.push(3);\n        Dares[4]=\"Make an obscene phone call to a random number\";\n        DaresKeyList.push(4);\n\n        //Hard-coded list of users\n        _user.nickName = 'abir';\n        _user.Uaddress = 0xbd291142E71c7278DE5eb82D7CddC53AE704e1fa;\n         Users[1] = _user;\n         UsersKeyList.push(1);\n         _user.nickName = 'hamza';\n        _user.Uaddress = 0xBB9bc244D798123fDe783fCc1C72d3Bb8C189413;\n         Users[2] = _user;\n         UsersKeyList.push(2);\n         _user.nickName = 'majd';\n        _user.Uaddress = 0xde0B295669a9FD93d5F28D9Ec85E40f4cb697BAe;\n         Users[3] = _user;\n         UsersKeyList.push(3);\n        // Initial Pool\n        _pool.PoolID = 0 ;\n        PrizePools.push(_pool);\n\n    }\n    function checkPlayerExists(address _player) private view returns(bool){\n        return _player == player;\n    }\n\n    modifier OnlyPlayer(){\n        require(checkPlayerExists(msg.sender));\n         _;\n    }\n    function checkUserExists(address _user) private view returns(bool){\n         for(uint i = 0; i < UsersKeyList.length; i++){\n            if(keccak256(abi.encode(Users[UsersKeyList[i]]))==keccak256(abi.encode(_user)) ){\n                return true;\n                break;\n            }\n    \n        }\n        return false;\n    }\n    modifier OnlyUser(){\n        require(checkUserExists(msg.sender));\n         _;\n    }\n    function checkWatcherExists(address _watcher) private view returns(bool){\n        for(uint i = 0; i < watchers.length; i++){\n            if(watchers[i] == _watcher) {\n                return true;\n                 break;\n            }\n        }\n        return false;\n    }\n  \n    modifier OnlyWatcher() {\n       require(checkWatcherExists(msg.sender));\n         _;\n    }\n    modifier ExceptWatcher() {\n       require(!checkWatcherExists(msg.sender));\n         _;\n    }\n   \n  \n  /// @dev function that returns all dares \n  /// @return array of string new experimental blockchain feature \n    function getDares()public view returns(string[] memory){\n      string[] memory _Dares = new string[](DaresKeyList.length);\n       for(uint i = 0; i < DaresKeyList.length; i++){\n           _Dares[i] = Dares[DaresKeyList[i]];\n       }\n       return _Dares;\n    }\n   /// @dev function that returns key of selected dare\n  /// @return uint=key in mapping(key => dare)\n    function getDareKey(string memory _dare) public view returns(uint){\n     uint _key;\n        for(uint i = 0; i < DaresKeyList.length; i++){\n             _key = DaresKeyList[i];\n            if(keccak256(abi.encodePacked(Dares[_key]))==keccak256(abi.encodePacked(_dare)) )\n            break;\n        }\n        return _key;\n    }\n    function getDareByKey(uint _key) private view returns(string memory){\n       return Dares[_key];\n    }  \n    function getUsers()public view returns(User[] memory){\n        User[] memory _users = new User[](UsersKeyList.length);\n          for(uint i = 0; i < UsersKeyList.length; i++){\n           _users[i] = Users[UsersKeyList[i]];\n          }\n       return _users;\n    }\n\n    function createWatcher(uint _BetAmount,uint _Poolkey,address payable _address)private {\n     Watcher memory _watcher;\n     _watcher.BetAmount = _BetAmount;\n     _watcher.Poolkey = _Poolkey;\n     watcherInfo[_address]=_watcher;\n     watchers.push(_address);\n     \n    }\n    function dareYou(uint _BetAmount,uint _DareKey,address _player) public payable returns(bool){\n        //require(_BetAmount>minimumBet);\n        PrizePool memory _Pool;\n        //create the new prizepool\n        _Pool.PoolID = PrizePools.length;\n        _Pool.TotalAmount +=_BetAmount;\n        _Pool.DareKey = _DareKey;\n        _Pool.NbWatchers ++;\n        _Pool.state = true;\n        //store the new prizepool\n         PrizePools.push(_Pool);\n         PoolKey[_Pool.PoolID] = _Pool;\n        // create new watcher\n        createWatcher(_BetAmount,_Pool.PoolID,msg.sender);\n        // associate the game with the player\n        PLayedDare[_player] = _Pool;\n        emit PoolCreated(_Pool.PoolID,_player);\n        return true;\n    }\n    function update(PrizePool[] storage _pools,uint _betAmount,uint _poolID)internal returns(bool){\n          \n           for(uint i = 0; i < PrizePools.length; i++){\n             if(_pools[i].PoolID == _poolID){\n               _pools[i].TotalAmount+=_betAmount;\n               _pools[i].NbWatchers++;\n               // create new watcher\n               createWatcher(_betAmount,_poolID,msg.sender);\n              }\n            }\n          return true;\n    }\n    function joinDare(uint _poolID,uint _betAmount)public payable returns(bool ){\n       update(PrizePools,_betAmount,_poolID);\n      return true;\n      \n    }\n    \n    function dareMe(uint _BetAmount,uint  _DareKey) public payable returns(bool){\n        //require(_BetAmount>minimumBet);\n        PrizePool memory _Pool;\n        //create the new prizepool\n        _Pool.PoolID = PrizePools.length;\n        _Pool.TotalAmount +=_BetAmount;\n        _Pool.DareKey = _DareKey;\n        _Pool.state = true;\n        //store the new prizepool\n         PrizePools.push(_Pool);\n         PoolKey[PrizePools.length] = _Pool;\n        // associate the game with the player\n        PLayedDare[msg.sender] = _Pool;\n        emit PoolCreated(PrizePools.length,msg.sender);\n        return true;\n    }\n    // get all active dares\n     function getPools()public view returns(PrizePool[] memory ){\n        PrizePool[] memory _pools = new PrizePool[](PrizePools.length);\n       for(uint i = 0; i < PrizePools.length; i++){\n           _pools[i] = PrizePools[i];\n       }\n       return _pools;\n    \n    }  \n// get active dares for a selected player\n    function getMyDares() public view returns(PrizePool[] memory ){\n      PrizePool[] memory _pools = new PrizePool[](PrizePools.length);\n       for(uint i = 0; i < PrizePools.length; i++){\n           if(PLayedDare[msg.sender].PoolID == PrizePools[i].PoolID)\n           _pools[i] = PrizePools[i];\n       }\n       return _pools;\n\n    }\n// 4 functions to get dare informations\n    function getActiveDareName(uint _pool) public view returns(string memory){\n        uint _dareID;\n        for(uint i = 0; i < PrizePools.length; i++){\n           if(PrizePools[i].PoolID == _pool){\n              _dareID = PrizePools[i].DareKey;\n           }\n       }\n       return Dares[_dareID];\n     } \n    function getActiveDarePlayer(uint _pool) public view returns(string memory){\n      string memory _player;\n        for(uint i = 0; i < UsersKeyList.length; i++){\n           if(PLayedDare[Users[UsersKeyList[i]].Uaddress].PoolID == _pool){\n              _player = Users[UsersKeyList[i]].nickName;\n           }\n       }\n       return _player;\n    }\n\n      function getActiveDareAmount(uint _pool) public view returns(uint){\n        uint _totalAMount;\n        for(uint i = 0; i < PrizePools.length; i++){\n           if(PrizePools[i].PoolID == _pool){\n              _totalAMount = PrizePools[i].TotalAmount;\n           }\n       }\n       return _totalAMount;\n     } \n       function getActiveDareProof(uint _pool) public view returns(string memory){\n        string memory _proof;\n        for(uint i = 0; i < PrizePools.length; i++){\n           if(PrizePools[i].PoolID == _pool){\n              _proof = PrizePools[i].ProofID;\n           }\n       }\n       return _proof;\n     } \n       function getActiveDareNBwatchers(uint _pool) public view returns(uint){\n        uint _nbWatchers;\n        for(uint i = 0; i < PrizePools.length; i++){\n           if(PrizePools[i].PoolID == _pool){\n              _nbWatchers = PrizePools[i].NbWatchers;\n           }\n       }\n       return _nbWatchers;\n     } \n\n    function getBalance() public view returns(uint){\n         return (msg.sender.balance);\n    }\n    function send(address payable _reciever) public payable returns(bool){\n        _reciever.transfer(msg.value);\n        emit transferFund(msg.sender,_reciever,msg.value);\n        return true;\n    }\n    function updateProof(PrizePool[] storage _pools,uint _poolID,string memory _ipfsID)internal {\n        \n           for(uint i = 0; i < PrizePools.length; i++){\n             if(_pools[i].PoolID == _poolID){\n               _pools[i].ProofID = _ipfsID;\n                _pools[i].state = false;\n              }\n            }\n    }\n    \n    function setProof(uint _poolID,string memory _ipfsID)public payable returns(bool){\n        updateProof(PrizePools,_poolID,_ipfsID);\n        emit proofUpdated(_poolID,_ipfsID);\n        return true;\n\n    }\n    function getProof(uint _poolID)public view returns(string memory){\n        for(uint i = 0; i < PrizePools.length; i++){\n             if(PrizePools[i].PoolID == _poolID){\n               return PrizePools[i].ProofID ;\n              }\n            }\n    }\n    function vote(uint _poolID,bool _vote)public payable returns(bool) {\n\n          updateVote(watcherInfo[msg.sender],_vote);\n          //emit voteUpdated();\n          return true;\n    }\n    function updateVote(Watcher storage _watcher,bool _vote)internal {\n             _watcher.vote = _vote;\n    }\n    function distributePrizes(uint _poolID) public {\n       /* bool _closedGame=true;\n        uint _nbVote=0;\n        for(uint i = 0; i < PrizePools.length; i++){\n            if(PrizePools[i].PoolID == _poolID){\n               _closedGame=false;\n              }\n            }\n            if(!_closedGame){\n              for(uint i = 0; i < watchers.length; i++){ \n                  if(watcherInfo[watchers[i]].vote == true) \n                  _nbVote++;\n            }\n            }\n            if(_nbVote > watchers.length/2)\n            //player win and send him money\n            else\n            //distribute prizepools to watchers\n\n            //delete watchers and watcherinfo*/\n    } \n        // Fallback function in case someone sends ether to the contract so it doesn't get lost and to increase the treasury of this contract that will be distributed in each game\n    function() external payable {}\n}",
  "sourcePath": "/home/abir/Nerve-Project/contracts/game.sol",
  "compiler": {
    "name": "solc",
    "version": "0.5.0+commit.1d4f565a.Emscripten.clang"
  },
  "schemaVersion": "3.0.2",
  "updatedAt": "2019-06-15T12:47:48.764Z",
  "devdoc": {
    "methods": {
      "getDareKey(string)": {
        "details": "function that returns key of selected dare",
        "return": "uint=key in mapping(key => dare)"
      },
      "getDares()": {
        "details": "function that returns all dares ",
        "return": "array of string new experimental blockchain feature "
      },
      "isOwner()": {
        "details": "Returns true if the caller is the current owner."
      },
      "owner()": {
        "details": "Returns the address of the current owner."
      },
      "renounceOwnership()": {
        "details": "Leaves the contract without owner. It will not be possible to call `onlyOwner` functions anymore. Can only be called by the current owner.     * > Note: Renouncing ownership will leave the contract without an owner, thereby removing any functionality that is only available to the owner."
      },
      "transferOwnership(address)": {
        "details": "Transfers ownership of the contract to a new account (`newOwner`). Can only be called by the current owner."
      }
    }
  },
  "userdoc": {
    "methods": {}
  }
}