{
  "contractName": "game",
  "abi": [
    {
      "constant": true,
      "inputs": [
        {
          "name": "",
          "type": "address"
        }
      ],
      "name": "playerInfo",
      "outputs": [
        {
          "name": "amountBet",
          "type": "string"
        }
      ],
      "payable": false,
      "stateMutability": "view",
      "type": "function",
      "signature": "0x4b114691"
    },
    {
      "constant": true,
      "inputs": [
        {
          "name": "",
          "type": "uint256"
        }
      ],
      "name": "watchers",
      "outputs": [
        {
          "name": "",
          "type": "address"
        }
      ],
      "payable": false,
      "stateMutability": "view",
      "type": "function",
      "signature": "0xcabe05f2"
    },
    {
      "inputs": [],
      "payable": false,
      "stateMutability": "nonpayable",
      "type": "constructor",
      "signature": "constructor"
    },
    {
      "payable": true,
      "stateMutability": "payable",
      "type": "fallback"
    },
    {
      "anonymous": false,
      "inputs": [
        {
          "indexed": false,
          "name": "_sender",
          "type": "address"
        },
        {
          "indexed": false,
          "name": "_reciever",
          "type": "address"
        },
        {
          "indexed": false,
          "name": "_amount",
          "type": "uint256"
        }
      ],
      "name": "transferFund",
      "type": "event",
      "signature": "0x62d5969633e8a33eb6c8ce39af086f3abf04daa520b3858a6f1acbc0073e9ef9"
    },
    {
      "constant": true,
      "inputs": [
        {
          "name": "_index",
          "type": "uint256"
        }
      ],
      "name": "getDare",
      "outputs": [
        {
          "name": "",
          "type": "string"
        }
      ],
      "payable": false,
      "stateMutability": "view",
      "type": "function",
      "signature": "0xd144a9de"
    },
    {
      "constant": true,
      "inputs": [],
      "name": "getBalance",
      "outputs": [
        {
          "name": "",
          "type": "uint256"
        }
      ],
      "payable": false,
      "stateMutability": "view",
      "type": "function",
      "signature": "0x12065fe0"
    },
    {
      "constant": false,
      "inputs": [
        {
          "name": "_reciever",
          "type": "address"
        }
      ],
      "name": "send",
      "outputs": [
        {
          "name": "",
          "type": "bool"
        }
      ],
      "payable": true,
      "stateMutability": "payable",
      "type": "function",
      "signature": "0x3e58c58c"
    }
  ],
  "bytecode": "0x608060405234801561001057600080fd5b50606060405190810160405280603081526020017f45617420736f6d657468696e6720616e64207468656e2074616c6b207769746881526020017f20796f7572206d6f7574682066756c6c000000000000000000000000000000008152506002600060018152602001908152602001600020908051906020019061009592919061022a565b50606060405190810160405280603181526020017f46696c6c20796f7572206d6f757468207769746820776174657220616e64207481526020017f72792073696e67696e67206120736f6e670000000000000000000000000000008152506002600060028152602001908152602001600020908051906020019061011a92919061022a565b50606060405190810160405280603081526020017f43616c6c20757020796f757220637275736820616e64206465636c617265207981526020017f6f7572206c6f766520666f722068696d000000000000000000000000000000008152506002600060038152602001908152602001600020908051906020019061019f92919061022a565b50606060405190810160405280602d81526020017f4d616b6520616e206f627363656e652070686f6e652063616c6c20746f20612081526020017f72616e646f6d206e756d626572000000000000000000000000000000000000008152506002600060048152602001908152602001600020908051906020019061022492919061022a565b506102cf565b828054600181600116156101000203166002900490600052602060002090601f016020900481019282601f1061026b57805160ff1916838001178555610299565b82800160010185558215610299579182015b8281111561029857825182559160200191906001019061027d565b5b5090506102a691906102aa565b5090565b6102cc91905b808211156102c85760008160009055506001016102b0565b5090565b90565b610741806102de6000396000f3fe60806040526004361061006d576000357c0100000000000000000000000000000000000000000000000000000000900463ffffffff16806312065fe01461006f5780633e58c58c1461009a5780634b114691146100ca578063cabe05f214610107578063d144a9de14610144575b005b34801561007b57600080fd5b50610084610181565b60405161009191906105e6565b60405180910390f35b6100b460048036036100af919081019061043b565b6101a0565b6040516100c19190610587565b60405180910390f35b3480156100d657600080fd5b506100f160048036036100ec9190810190610412565b61022d565b6040516100fe91906105a2565b60405180910390f35b34801561011357600080fd5b5061012e60048036036101299190810190610464565b6102e3565b60405161013b9190610535565b60405180910390f35b34801561015057600080fd5b5061016b60048036036101669190810190610464565b610321565b60405161017891906105c4565b60405180910390f35b60003373ffffffffffffffffffffffffffffffffffffffff1631905090565b60008173ffffffffffffffffffffffffffffffffffffffff166108fc349081150290604051600060405180830381858888f193505050501580156101e8573d6000803e3d6000fd5b507f62d5969633e8a33eb6c8ce39af086f3abf04daa520b3858a6f1acbc0073e9ef933833460405161021c93929190610550565b60405180910390a160019050919050565b6000602052806000526040600020600091509050806000018054600181600116156101000203166002900480601f0160208091040260200160405190810160405280929190818152602001828054600181600116156101000203166002900480156102d95780601f106102ae576101008083540402835291602001916102d9565b820191906000526020600020905b8154815290600101906020018083116102bc57829003601f168201915b5050505050905081565b6001818154811015156102f257fe5b906000526020600020016000915054906101000a900473ffffffffffffffffffffffffffffffffffffffff1681565b6060600260008381526020019081526020016000208054600181600116156101000203166002900480601f0160208091040260200160405190810160405280929190818152602001828054600181600116156101000203166002900480156103ca5780601f1061039f576101008083540402835291602001916103ca565b820191906000526020600020905b8154815290600101906020018083116103ad57829003601f168201915b50505050509050919050565b60006103e2823561065f565b905092915050565b60006103f68235610671565b905092915050565b600061040a8235610683565b905092915050565b60006020828403121561042457600080fd5b6000610432848285016103d6565b91505092915050565b60006020828403121561044d57600080fd5b600061045b848285016103ea565b91505092915050565b60006020828403121561047657600080fd5b6000610484848285016103fe565b91505092915050565b6104968161068d565b82525050565b6104a581610617565b82525050565b6104b481610629565b82525050565b60006104c58261060c565b8084526104d98160208601602086016106c3565b6104e2816106f6565b602085010191505092915050565b60006104fb82610601565b80845261050f8160208601602086016106c3565b610518816106f6565b602085010191505092915050565b61052f81610655565b82525050565b600060208201905061054a600083018461049c565b92915050565b6000606082019050610565600083018661048d565b610572602083018561048d565b61057f6040830184610526565b949350505050565b600060208201905061059c60008301846104ab565b92915050565b600060208201905081810360008301526105bc81846104f0565b905092915050565b600060208201905081810360008301526105de81846104ba565b905092915050565b60006020820190506105fb6000830184610526565b92915050565b600081519050919050565b600081519050919050565b600061062282610635565b9050919050565b60008115159050919050565b600073ffffffffffffffffffffffffffffffffffffffff82169050919050565b6000819050919050565b600061066a82610635565b9050919050565b600061067c82610635565b9050919050565b6000819050919050565b60006106988261069f565b9050919050565b60006106aa826106b1565b9050919050565b60006106bc82610635565b9050919050565b60005b838110156106e15780820151818401526020810190506106c6565b838111156106f0576000848401525b50505050565b6000601f19601f830116905091905056fea265627a7a72305820077d41a2afa38fb3199098d4100acf64b4237cbca6f7f2c4295d28ba8d89017a6c6578706572696d656e74616cf50037",
  "source": "pragma solidity ^0.5.0;\npragma experimental ABIEncoderV2;\n\ncontract game{\n    struct Player {\n        string amountBet;\n    }  \n    mapping(address => Player) public playerInfo;\n    \n    address payable[] public watchers;\n    mapping (uint => string) Dares;\n    //string[] Dares;\n    event transferFund(address _sender,address _reciever,uint _amount);\n\n    constructor()public {\n        Dares[1]=\"Eat something and then talk with your mouth full\";\n        Dares[2]=\"Fill your mouth with water and try singing a song\";\n        Dares[3]=\"Call up your crush and declare your love for him\";\n        Dares[4]=\"Make an obscene phone call to a random number\";\n    }\n  /*  function getDresNumber()public view returns(uint){\n       return Dares.length;\n    }*/\n    function getDare(uint _index)public view returns(string memory){\n      \n        return Dares[_index];\n        //return \"Hello from getDares !!\";\n    }\n    function getBalance() public view returns(uint){\n         return (msg.sender.balance);\n    }\n      \n\n    function send(address payable _reciever) public payable returns(bool){\n        _reciever.transfer(msg.value);\n        emit transferFund(msg.sender,_reciever,msg.value);\n        return true;\n    }\n    function() external payable {}\n}",
  "sourcePath": "/home/abir/Nerve-Project/contracts/game.sol",
  "compiler": {
    "name": "solc",
    "version": "0.5.0+commit.1d4f565a.Emscripten.clang"
  },
  "schemaVersion": "3.0.2",
  "updatedAt": "2019-06-09T07:55:48.567Z",
  "devdoc": {
    "methods": {}
  },
  "userdoc": {
    "methods": {}
  }
}