{
  "contractName": "game",
  "abi": [
    {
      "constant": true,
      "inputs": [
        {
          "name": "",
          "type": "address"
        }
      ],
      "name": "playerInfo",
      "outputs": [
        {
          "name": "nickName",
          "type": "string"
        }
      ],
      "payable": false,
      "stateMutability": "view",
      "type": "function",
      "signature": "0x4b114691"
    },
    {
      "constant": true,
      "inputs": [
        {
          "name": "",
          "type": "uint256"
        }
      ],
      "name": "watchers",
      "outputs": [
        {
          "name": "",
          "type": "address"
        }
      ],
      "payable": false,
      "stateMutability": "view",
      "type": "function",
      "signature": "0xcabe05f2"
    },
    {
      "constant": true,
      "inputs": [
        {
          "name": "",
          "type": "uint256"
        }
      ],
      "name": "players",
      "outputs": [
        {
          "name": "",
          "type": "address"
        }
      ],
      "payable": false,
      "stateMutability": "view",
      "type": "function",
      "signature": "0xf71d96cb"
    },
    {
      "inputs": [],
      "payable": false,
      "stateMutability": "nonpayable",
      "type": "constructor",
      "signature": "constructor"
    },
    {
      "payable": true,
      "stateMutability": "payable",
      "type": "fallback"
    },
    {
      "anonymous": false,
      "inputs": [
        {
          "indexed": false,
          "name": "_sender",
          "type": "address"
        },
        {
          "indexed": false,
          "name": "_reciever",
          "type": "address"
        },
        {
          "indexed": false,
          "name": "_amount",
          "type": "uint256"
        }
      ],
      "name": "transferFund",
      "type": "event",
      "signature": "0x62d5969633e8a33eb6c8ce39af086f3abf04daa520b3858a6f1acbc0073e9ef9"
    },
    {
      "constant": true,
      "inputs": [],
      "name": "getDares",
      "outputs": [
        {
          "name": "",
          "type": "string[]"
        }
      ],
      "payable": false,
      "stateMutability": "view",
      "type": "function",
      "signature": "0x25a21701"
    },
    {
      "constant": true,
      "inputs": [
        {
          "name": "_dare",
          "type": "string"
        }
      ],
      "name": "getDareKey",
      "outputs": [
        {
          "name": "",
          "type": "uint256"
        }
      ],
      "payable": false,
      "stateMutability": "view",
      "type": "function",
      "signature": "0x6fdbdbec"
    },
    {
      "constant": true,
      "inputs": [],
      "name": "getBalance",
      "outputs": [
        {
          "name": "",
          "type": "uint256"
        }
      ],
      "payable": false,
      "stateMutability": "view",
      "type": "function",
      "signature": "0x12065fe0"
    },
    {
      "constant": false,
      "inputs": [
        {
          "name": "_reciever",
          "type": "address"
        }
      ],
      "name": "send",
      "outputs": [
        {
          "name": "",
          "type": "bool"
        }
      ],
      "payable": true,
      "stateMutability": "payable",
      "type": "function",
      "signature": "0x3e58c58c"
    }
  ],
  "bytecode": "0x608060405234801561001057600080fd5b50606060405190810160405280603081526020017f45617420736f6d657468696e6720616e64207468656e2074616c6b207769746881526020017f20796f7572206d6f7574682066756c6c00000000000000000000000000000000815250600360006001815260200190815260200160002090805190602001906100959291906102dd565b50600460019080600181540180825580915050906001820390600052602060002001600090919290919091505550606060405190810160405280603181526020017f46696c6c20796f7572206d6f757468207769746820776174657220616e64207481526020017f72792073696e67696e67206120736f6e67000000000000000000000000000000815250600360006002815260200190815260200160002090805190602001906101479291906102dd565b50600460029080600181540180825580915050906001820390600052602060002001600090919290919091505550606060405190810160405280603081526020017f43616c6c20757020796f757220637275736820616e64206465636c617265207981526020017f6f7572206c6f766520666f722068696d00000000000000000000000000000000815250600360006003815260200190815260200160002090805190602001906101f99291906102dd565b50600460039080600181540180825580915050906001820390600052602060002001600090919290919091505550606060405190810160405280602d81526020017f4d616b6520616e206f627363656e652070686f6e652063616c6c20746f20612081526020017f72616e646f6d206e756d62657200000000000000000000000000000000000000815250600360006004815260200190815260200160002090805190602001906102ab9291906102dd565b506004809080600181540180825580915050906001820390600052602060002001600090919290919091505550610382565b828054600181600116156101000203166002900490600052602060002090601f016020900481019282601f1061031e57805160ff191683800117855561034c565b8280016001018555821561034c579182015b8281111561034b578251825591602001919060010190610330565b5b509050610359919061035d565b5090565b61037f91905b8082111561037b576000816000905550600101610363565b5090565b90565b610b70806103916000396000f3fe608060405260043610610083576000357c0100000000000000000000000000000000000000000000000000000000900463ffffffff16806312065fe01461008557806325a21701146100b05780633e58c58c146100db5780634b1146911461010b5780636fdbdbec14610148578063cabe05f214610185578063f71d96cb146101c2575b005b34801561009157600080fd5b5061009a6101ff565b6040516100a79190610981565b60405180910390f35b3480156100bc57600080fd5b506100c561021e565b6040516100d29190610922565b60405180910390f35b6100f560048036036100f09190810190610733565b610365565b6040516101029190610944565b60405180910390f35b34801561011757600080fd5b50610132600480360361012d919081019061070a565b6103f2565b60405161013f919061095f565b60405180910390f35b34801561015457600080fd5b5061016f600480360361016a919081019061075c565b6104a8565b60405161017c9190610981565b60405180910390f35b34801561019157600080fd5b506101ac60048036036101a7919081019061079d565b6105fc565b6040516101b991906108d0565b60405180910390f35b3480156101ce57600080fd5b506101e960048036036101e4919081019061079d565b61063a565b6040516101f691906108b5565b60405180910390f35b60003373ffffffffffffffffffffffffffffffffffffffff1631905090565b60608060048054905060405190808252806020026020018201604052801561025a57816020015b60608152602001906001900390816102455790505b50905060008090505b60048054905081101561035d576003600060048381548110151561028357fe5b906000526020600020015481526020019081526020016000208054600181600116156101000203166002900480601f0160208091040260200160405190810160405280929190818152602001828054600181600116156101000203166002900480156103305780601f1061030557610100808354040283529160200191610330565b820191906000526020600020905b81548152906001019060200180831161031357829003601f168201915b5050505050828281518110151561034357fe5b906020019060200201819052508080600101915050610263565b508091505090565b60008173ffffffffffffffffffffffffffffffffffffffff166108fc349081150290604051600060405180830381858888f193505050501580156103ad573d6000803e3d6000fd5b507f62d5969633e8a33eb6c8ce39af086f3abf04daa520b3858a6f1acbc0073e9ef93383346040516103e1939291906108eb565b60405180910390a160019050919050565b6000602052806000526040600020600091509050806000018054600181600116156101000203166002900480601f01602080910402602001604051908101604052809291908181526020018280546001816001161561010002031660029004801561049e5780601f106104735761010080835404028352916020019161049e565b820191906000526020600020905b81548152906001019060200180831161048157829003601f168201915b5050505050905081565b60008060008090505b6004805490508110156105f2576004818154811015156104cd57fe5b90600052602060002001549150836040516020018082805190602001908083835b60208310151561051357805182526020820191506020810190506020830392506104ee565b6001836020036101000a038019825116818451168082178552505050505050905001915050604051602081830303815290604052805190602001206003600084815260200190815260200160002060405160200180828054600181600116156101000203166002900480156105bf5780601f1061059d5761010080835404028352918201916105bf565b820191906000526020600020905b8154815290600101906020018083116105ab575b50509150506040516020818303038152906040528051906020012014156105e5576105f2565b80806001019150506104b1565b5080915050919050565b60028181548110151561060b57fe5b906000526020600020016000915054906101000a900473ffffffffffffffffffffffffffffffffffffffff1681565b60018181548110151561064957fe5b906000526020600020016000915054906101000a900473ffffffffffffffffffffffffffffffffffffffff1681565b60006106848235610a7f565b905092915050565b60006106988235610a91565b905092915050565b600082601f83011215156106b357600080fd5b81356106c66106c1826109c9565b61099c565b915080825260208301602083018583830111156106e257600080fd5b6106ed838284610ae3565b50505092915050565b60006107028235610aa3565b905092915050565b60006020828403121561071c57600080fd5b600061072a84828501610678565b91505092915050565b60006020828403121561074557600080fd5b60006107538482850161068c565b91505092915050565b60006020828403121561076e57600080fd5b600082013567ffffffffffffffff81111561078857600080fd5b610794848285016106a0565b91505092915050565b6000602082840312156107af57600080fd5b60006107bd848285016106f6565b91505092915050565b6107cf81610aad565b82525050565b6107de81610a37565b82525050565b6107ed81610a25565b82525050565b60006107fe82610a02565b80845260208401935083602082028501610817856109f5565b60005b84811015610850578383038852610832838351610870565b925061083d82610a18565b915060208801975060018101905061081a565b508196508694505050505092915050565b61086a81610a49565b82525050565b600061087b82610a0d565b80845261088f816020860160208601610af2565b61089881610b25565b602085010191505092915050565b6108af81610a75565b82525050565b60006020820190506108ca60008301846107e4565b92915050565b60006020820190506108e560008301846107d5565b92915050565b600060608201905061090060008301866107c6565b61090d60208301856107c6565b61091a60408301846108a6565b949350505050565b6000602082019050818103600083015261093c81846107f3565b905092915050565b60006020820190506109596000830184610861565b92915050565b600060208201905081810360008301526109798184610870565b905092915050565b600060208201905061099660008301846108a6565b92915050565b6000604051905081810181811067ffffffffffffffff821117156109bf57600080fd5b8060405250919050565b600067ffffffffffffffff8211156109e057600080fd5b601f19601f8301169050602081019050919050565b6000602082019050919050565b600081519050919050565b600081519050919050565b6000602082019050919050565b6000610a3082610a55565b9050919050565b6000610a4282610a55565b9050919050565b60008115159050919050565b600073ffffffffffffffffffffffffffffffffffffffff82169050919050565b6000819050919050565b6000610a8a82610a55565b9050919050565b6000610a9c82610a55565b9050919050565b6000819050919050565b6000610ab882610abf565b9050919050565b6000610aca82610ad1565b9050919050565b6000610adc82610a55565b9050919050565b82818337600083830152505050565b60005b83811015610b10578082015181840152602081019050610af5565b83811115610b1f576000848401525b50505050565b6000601f19601f830116905091905056fea265627a7a72305820868416ace978b2fb24d61657fe95c3e3d773d476e2fe624d763b555e330ebd806c6578706572696d656e74616cf50037",
  "source": "pragma solidity ^0.5.0;\npragma experimental ABIEncoderV2;\n\ncontract game{\n    //Struct that represents a player/watcher\n    struct Player {\n        string nickName;\n    }  \n    mapping(address => Player) public playerInfo; // maaping(user-address => user-informations)\n    address[] public players; // players are stored in blockchain as an array of adresses\n    address payable[] public watchers; // watchers are stored in blockchain as an array of payable adresses\n    mapping (uint => string) Dares; // mapping(Dare-key => Dare-description)\n    uint[] DaresKeyList; //array that store all Dares keys \n\n    event transferFund(address _sender,address _reciever,uint _amount);\n    \n\n    constructor()public {\n        //Hard-coded list of dares for test\n        Dares[1]=\"Eat something and then talk with your mouth full\";\n        DaresKeyList.push(1);\n        Dares[2]=\"Fill your mouth with water and try singing a song\";\n        DaresKeyList.push(2);\n        Dares[3]=\"Call up your crush and declare your love for him\";\n        DaresKeyList.push(3);\n        Dares[4]=\"Make an obscene phone call to a random number\";\n        DaresKeyList.push(4);\n\n    }\n  \n  /// @dev function that returns all dares \n  /// @return array of string new experimental blockchain feature \n    function getDares()public view returns(string[] memory){\n      string[] memory _Dares = new string[](DaresKeyList.length);\n       for(uint i = 0; i < DaresKeyList.length; i++){\n           _Dares[i] = Dares[DaresKeyList[i]];\n       }\n       return _Dares;\n    }\n    function getDareKey(string memory _dare) public view returns(uint){\n     uint _key;\n        for(uint i = 0; i < DaresKeyList.length; i++){\n             _key = DaresKeyList[i];\n            if(keccak256(abi.encodePacked(Dares[_key]))==keccak256(abi.encodePacked(_dare)) )\n            break;\n        }\n        return _key;\n    }\n    function getBalance() public view returns(uint){\n         return (msg.sender.balance);\n    }\n      \n\n    function send(address payable _reciever) public payable returns(bool){\n        _reciever.transfer(msg.value);\n        emit transferFund(msg.sender,_reciever,msg.value);\n        return true;\n    }\n    function() external payable {}\n}",
  "sourcePath": "/home/abir/Nerve-Project/contracts/game.sol",
  "compiler": {
    "name": "solc",
    "version": "0.5.0+commit.1d4f565a.Emscripten.clang"
  },
  "schemaVersion": "3.0.2",
  "updatedAt": "2019-06-10T19:32:47.023Z",
  "devdoc": {
    "methods": {
      "getDares()": {
        "details": "function that returns all dares ",
        "return": "array of string new experimental blockchain feature "
      }
    }
  },
  "userdoc": {
    "methods": {}
  }
}