{
  "contractName": "game",
  "abi": [
    {
      "constant": true,
      "inputs": [
        {
          "name": "",
          "type": "address"
        }
      ],
      "name": "playerInfo",
      "outputs": [
        {
          "name": "amountBet",
          "type": "string"
        }
      ],
      "payable": false,
      "stateMutability": "view",
      "type": "function",
      "signature": "0x4b114691"
    },
    {
      "constant": true,
      "inputs": [
        {
          "name": "",
          "type": "uint256"
        }
      ],
      "name": "watchers",
      "outputs": [
        {
          "name": "",
          "type": "address"
        }
      ],
      "payable": false,
      "stateMutability": "view",
      "type": "function",
      "signature": "0xcabe05f2"
    },
    {
      "inputs": [],
      "payable": false,
      "stateMutability": "nonpayable",
      "type": "constructor",
      "signature": "constructor"
    },
    {
      "payable": true,
      "stateMutability": "payable",
      "type": "fallback"
    },
    {
      "anonymous": false,
      "inputs": [
        {
          "indexed": false,
          "name": "_sender",
          "type": "address"
        },
        {
          "indexed": false,
          "name": "_reciever",
          "type": "address"
        },
        {
          "indexed": false,
          "name": "_amount",
          "type": "uint256"
        }
      ],
      "name": "transferFund",
      "type": "event",
      "signature": "0x62d5969633e8a33eb6c8ce39af086f3abf04daa520b3858a6f1acbc0073e9ef9"
    },
    {
      "constant": true,
      "inputs": [],
      "name": "getDares",
      "outputs": [
        {
          "name": "",
          "type": "string[]"
        }
      ],
      "payable": false,
      "stateMutability": "view",
      "type": "function",
      "signature": "0x25a21701"
    },
    {
      "constant": true,
      "inputs": [],
      "name": "getBalance",
      "outputs": [
        {
          "name": "",
          "type": "uint256"
        }
      ],
      "payable": false,
      "stateMutability": "view",
      "type": "function",
      "signature": "0x12065fe0"
    },
    {
      "constant": false,
      "inputs": [
        {
          "name": "_reciever",
          "type": "address"
        }
      ],
      "name": "send",
      "outputs": [
        {
          "name": "",
          "type": "bool"
        }
      ],
      "payable": true,
      "stateMutability": "payable",
      "type": "function",
      "signature": "0x3e58c58c"
    }
  ],
  "bytecode": "0x608060405234801561001057600080fd5b50606060405190810160405280603081526020017f45617420736f6d657468696e6720616e64207468656e2074616c6b207769746881526020017f20796f7572206d6f7574682066756c6c00000000000000000000000000000000815250600260006001815260200190815260200160002090805190602001906100959291906102dd565b50600360019080600181540180825580915050906001820390600052602060002001600090919290919091505550606060405190810160405280603181526020017f46696c6c20796f7572206d6f757468207769746820776174657220616e64207481526020017f72792073696e67696e67206120736f6e67000000000000000000000000000000815250600260006002815260200190815260200160002090805190602001906101479291906102dd565b50600360029080600181540180825580915050906001820390600052602060002001600090919290919091505550606060405190810160405280603081526020017f43616c6c20757020796f757220637275736820616e64206465636c617265207981526020017f6f7572206c6f766520666f722068696d00000000000000000000000000000000815250600260006003815260200190815260200160002090805190602001906101f99291906102dd565b506003809080600181540180825580915050906001820390600052602060002001600090919290919091505550606060405190810160405280602d81526020017f4d616b6520616e206f627363656e652070686f6e652063616c6c20746f20612081526020017f72616e646f6d206e756d62657200000000000000000000000000000000000000815250600260006004815260200190815260200160002090805190602001906102aa9291906102dd565b50600360049080600181540180825580915050906001820390600052602060002001600090919290919091505550610382565b828054600181600116156101000203166002900490600052602060002090601f016020900481019282601f1061031e57805160ff191683800117855561034c565b8280016001018555821561034c579182015b8281111561034b578251825591602001919060010190610330565b5b509050610359919061035d565b5090565b61037f91905b8082111561037b576000816000905550600101610363565b5090565b90565b610813806103916000396000f3fe60806040526004361061006d576000357c0100000000000000000000000000000000000000000000000000000000900463ffffffff16806312065fe01461006f57806325a217011461009a5780633e58c58c146100c55780634b114691146100f5578063cabe05f214610132575b005b34801561007b57600080fd5b5061008461016f565b604051610091919061069e565b60405180910390f35b3480156100a657600080fd5b506100af61018e565b6040516100bc919061063f565b60405180910390f35b6100df60048036036100da91908101906104bb565b6102d5565b6040516100ec9190610661565b60405180910390f35b34801561010157600080fd5b5061011c60048036036101179190810190610492565b610362565b604051610129919061067c565b60405180910390f35b34801561013e57600080fd5b50610159600480360361015491908101906104e4565b610418565b60405161016691906105ed565b60405180910390f35b60003373ffffffffffffffffffffffffffffffffffffffff1631905090565b6060806003805490506040519080825280602002602001820160405280156101ca57816020015b60608152602001906001900390816101b55790505b50905060008090505b6003805490508110156102cd57600260006003838154811015156101f357fe5b906000526020600020015481526020019081526020016000208054600181600116156101000203166002900480601f0160208091040260200160405190810160405280929190818152602001828054600181600116156101000203166002900480156102a05780601f10610275576101008083540402835291602001916102a0565b820191906000526020600020905b81548152906001019060200180831161028357829003601f168201915b505050505082828151811015156102b357fe5b9060200190602002018190525080806001019150506101d3565b508091505090565b60008173ffffffffffffffffffffffffffffffffffffffff166108fc349081150290604051600060405180830381858888f1935050505015801561031d573d6000803e3d6000fd5b507f62d5969633e8a33eb6c8ce39af086f3abf04daa520b3858a6f1acbc0073e9ef933833460405161035193929190610608565b60405180910390a160019050919050565b6000602052806000526040600020600091509050806000018054600181600116156101000203166002900480601f01602080910402602001604051908101604052809291908181526020018280546001816001161561010002031660029004801561040e5780601f106103e35761010080835404028352916020019161040e565b820191906000526020600020905b8154815290600101906020018083116103f157829003601f168201915b5050505050905081565b60018181548110151561042757fe5b906000526020600020016000915054906101000a900473ffffffffffffffffffffffffffffffffffffffff1681565b60006104628235610731565b905092915050565b60006104768235610743565b905092915050565b600061048a8235610755565b905092915050565b6000602082840312156104a457600080fd5b60006104b284828501610456565b91505092915050565b6000602082840312156104cd57600080fd5b60006104db8482850161046a565b91505092915050565b6000602082840312156104f657600080fd5b60006105048482850161047e565b91505092915050565b6105168161075f565b82525050565b610525816106e9565b82525050565b6000610536826106c6565b8084526020840193508360208202850161054f856106b9565b60005b8481101561058857838303885261056a8383516105a8565b9250610575826106dc565b9150602088019750600181019050610552565b508196508694505050505092915050565b6105a2816106fb565b82525050565b60006105b3826106d1565b8084526105c7816020860160208601610795565b6105d0816107c8565b602085010191505092915050565b6105e781610727565b82525050565b6000602082019050610602600083018461051c565b92915050565b600060608201905061061d600083018661050d565b61062a602083018561050d565b61063760408301846105de565b949350505050565b60006020820190508181036000830152610659818461052b565b905092915050565b60006020820190506106766000830184610599565b92915050565b6000602082019050818103600083015261069681846105a8565b905092915050565b60006020820190506106b360008301846105de565b92915050565b6000602082019050919050565b600081519050919050565b600081519050919050565b6000602082019050919050565b60006106f482610707565b9050919050565b60008115159050919050565b600073ffffffffffffffffffffffffffffffffffffffff82169050919050565b6000819050919050565b600061073c82610707565b9050919050565b600061074e82610707565b9050919050565b6000819050919050565b600061076a82610771565b9050919050565b600061077c82610783565b9050919050565b600061078e82610707565b9050919050565b60005b838110156107b3578082015181840152602081019050610798565b838111156107c2576000848401525b50505050565b6000601f19601f830116905091905056fea265627a7a72305820c7ea04e3317eb7ac0be66b20ad8acd420d8ac109fd971411139ae73e2068fc176c6578706572696d656e74616cf50037",
  "source": "pragma solidity ^0.5.0;\npragma experimental ABIEncoderV2;\n\ncontract game{\n    struct Player {\n        string amountBet;\n    }  \n    mapping(address => Player) public playerInfo;\n    \n    address payable[] public watchers;\n    mapping (uint => string) Dares;\n    uint[] DaresKeyList;\n    event transferFund(address _sender,address _reciever,uint _amount);\n\n    constructor()public {\n        Dares[1]=\"Eat something and then talk with your mouth full\";\n        DaresKeyList.push(1);\n        Dares[2]=\"Fill your mouth with water and try singing a song\";\n        DaresKeyList.push(2);\n        Dares[3]=\"Call up your crush and declare your love for him\";\n        DaresKeyList.push(3);\n        Dares[4]=\"Make an obscene phone call to a random number\";\n        DaresKeyList.push(4);\n    }\n  \n    function getDares()public view returns(string[] memory){\n      string[] memory _Dares = new string[](DaresKeyList.length);\n       for(uint i = 0; i < DaresKeyList.length; i++){\n           _Dares[i] = Dares[DaresKeyList[i]];\n       }\n       return _Dares;\n    }\n    function getBalance() public view returns(uint){\n         return (msg.sender.balance);\n    }\n      \n\n    function send(address payable _reciever) public payable returns(bool){\n        _reciever.transfer(msg.value);\n        emit transferFund(msg.sender,_reciever,msg.value);\n        return true;\n    }\n    function() external payable {}\n}",
  "sourcePath": "/home/abir/Nerve-Project/contracts/game.sol",
  "compiler": {
    "name": "solc",
    "version": "0.5.0+commit.1d4f565a.Emscripten.clang"
  },
  "schemaVersion": "3.0.2",
  "updatedAt": "2019-06-09T08:56:05.335Z",
  "devdoc": {
    "methods": {}
  },
  "userdoc": {
    "methods": {}
  }
}