{
  "contractName": "paiement",
  "abi": [
    {
      "anonymous": false,
      "inputs": [
        {
          "indexed": false,
          "name": "_sender",
          "type": "address"
        },
        {
          "indexed": false,
          "name": "_reciever",
          "type": "address"
        },
        {
          "indexed": false,
          "name": "_amount",
          "type": "uint256"
        }
      ],
      "name": "transferFund",
      "type": "event",
      "signature": "0x62d5969633e8a33eb6c8ce39af086f3abf04daa520b3858a6f1acbc0073e9ef9"
    },
    {
      "constant": false,
      "inputs": [
        {
          "name": "_reciever",
          "type": "address"
        }
      ],
      "name": "send",
      "outputs": [
        {
          "name": "",
          "type": "bool"
        }
      ],
      "payable": true,
      "stateMutability": "payable",
      "type": "function",
      "signature": "0x3e58c58c"
    },
    {
      "constant": true,
      "inputs": [],
      "name": "getBalance",
      "outputs": [
        {
          "name": "",
          "type": "uint256"
        }
      ],
      "payable": false,
      "stateMutability": "view",
      "type": "function",
      "signature": "0x12065fe0"
    }
  ],
  "bytecode": "0x608060405234801561001057600080fd5b5061020e806100206000396000f3fe608060405260043610610046576000357c01000000000000000000000000000000000000000000000000000000009004806312065fe01461004b5780633e58c58c14610076575b600080fd5b34801561005757600080fd5b506100606100d2565b6040518082815260200191505060405180910390f35b6100b86004803603602081101561008c57600080fd5b81019080803573ffffffffffffffffffffffffffffffffffffffff1690602001909291905050506100f1565b604051808215151515815260200191505060405180910390f35b60003373ffffffffffffffffffffffffffffffffffffffff1631905090565b60008173ffffffffffffffffffffffffffffffffffffffff166108fc349081150290604051600060405180830381858888f19350505050158015610139573d6000803e3d6000fd5b507f62d5969633e8a33eb6c8ce39af086f3abf04daa520b3858a6f1acbc0073e9ef9338334604051808473ffffffffffffffffffffffffffffffffffffffff1673ffffffffffffffffffffffffffffffffffffffff1681526020018373ffffffffffffffffffffffffffffffffffffffff1673ffffffffffffffffffffffffffffffffffffffff168152602001828152602001935050505060405180910390a16001905091905056fea165627a7a72305820009a0523ded47555021600686c05e025375b30efcdab2307775748f7f31d97300029",
  "source": "pragma solidity ^0.5.0;\n\ncontract paiement {\n    event transferFund(address _sender,address _reciever,uint _amount);\n\n    function send(address payable _reciever) public payable returns(bool){\n        _reciever.transfer(msg.value);\n        emit transferFund(msg.sender,_reciever,msg.value);\n        return true;\n    }\n    function getBalance() public view returns(uint){\n         return msg.sender.balance;\n    }\n}",
  "sourcePath": "/home/abir/paiement/contracts/paiement.sol",
  "compiler": {
    "name": "solc",
    "version": "0.5.1+commit.c8a2cb62.Emscripten.clang"
  },
  "schemaVersion": "3.0.2",
  "updatedAt": "2019-06-05T01:55:57.288Z",
  "devdoc": {
    "methods": {}
  },
  "userdoc": {
    "methods": {}
  }
}